{"contracts/MarsxCommunity.sol":{"MarsxCommunity":{"abi":[{"inputs":[{"internalType":"address","name":"_usdtAddress","type":"address"},{"internalType":"address","name":"_erc20Address","type":"address"},{"internalType":"string","name":"_baseURI","type":"string"},{"internalType":"uint256","name":"_mxPrice","type":"uint256"},{"internalType":"uint256","name":"_usdtprice","type":"uint256"}],"stateMutability":"nonpayable","type":"constructor"},{"inputs":[{"internalType":"address","name":"sender","type":"address"},{"internalType":"uint256","name":"balance","type":"uint256"},{"internalType":"uint256","name":"needed","type":"uint256"},{"internalType":"uint256","name":"tokenId","type":"uint256"}],"name":"ERC1155InsufficientBalance","type":"error"},{"inputs":[{"internalType":"address","name":"approver","type":"address"}],"name":"ERC1155InvalidApprover","type":"error"},{"inputs":[{"internalType":"uint256","name":"idsLength","type":"uint256"},{"internalType":"uint256","name":"valuesLength","type":"uint256"}],"name":"ERC1155InvalidArrayLength","type":"error"},{"inputs":[{"internalType":"address","name":"operator","type":"address"}],"name":"ERC1155InvalidOperator","type":"error"},{"inputs":[{"internalType":"address","name":"receiver","type":"address"}],"name":"ERC1155InvalidReceiver","type":"error"},{"inputs":[{"internalType":"address","name":"sender","type":"address"}],"name":"ERC1155InvalidSender","type":"error"},{"inputs":[{"internalType":"address","name":"operator","type":"address"},{"internalType":"address","name":"owner","type":"address"}],"name":"ERC1155MissingApprovalForAll","type":"error"},{"inputs":[{"internalType":"address","name":"owner","type":"address"}],"name":"OwnableInvalidOwner","type":"error"},{"inputs":[{"internalType":"address","name":"account","type":"address"}],"name":"OwnableUnauthorizedAccount","type":"error"},{"inputs":[],"name":"ReentrancyGuardReentrantCall","type":"error"},{"anonymous":false,"inputs":[{"indexed":true,"internalType":"address","name":"account","type":"address"},{"indexed":true,"internalType":"address","name":"operator","type":"address"},{"indexed":false,"internalType":"bool","name":"approved","type":"bool"}],"name":"ApprovalForAll","type":"event"},{"anonymous":false,"inputs":[{"indexed":false,"internalType":"string","name":"newBaseURI","type":"string"}],"name":"BaseURISet","type":"event"},{"anonymous":false,"inputs":[{"indexed":true,"internalType":"address","name":"buyer","type":"address"},{"indexed":false,"internalType":"uint256","name":"communityId","type":"uint256"},{"indexed":false,"internalType":"uint256","name":"quantity","type":"uint256"}],"name":"MintedWithMX","type":"event"},{"anonymous":false,"inputs":[{"indexed":true,"internalType":"address","name":"buyer","type":"address"},{"indexed":false,"internalType":"uint256","name":"communityId","type":"uint256"},{"indexed":false,"internalType":"uint256","name":"quantity","type":"uint256"}],"name":"MintedWithUSDT","type":"event"},{"anonymous":false,"inputs":[{"indexed":true,"internalType":"address","name":"previousOwner","type":"address"},{"indexed":true,"internalType":"address","name":"newOwner","type":"address"}],"name":"OwnershipTransferred","type":"event"},{"anonymous":false,"inputs":[{"indexed":true,"internalType":"address","name":"to","type":"address"},{"indexed":false,"internalType":"uint256","name":"amount","type":"uint256"},{"indexed":false,"internalType":"bool","name":"isUSDT","type":"bool"}],"name":"TokensWithdrawn","type":"event"},{"anonymous":false,"inputs":[{"indexed":true,"internalType":"address","name":"operator","type":"address"},{"indexed":true,"internalType":"address","name":"from","type":"address"},{"indexed":true,"internalType":"address","name":"to","type":"address"},{"indexed":false,"internalType":"uint256[]","name":"ids","type":"uint256[]"},{"indexed":false,"internalType":"uint256[]","name":"values","type":"uint256[]"}],"name":"TransferBatch","type":"event"},{"anonymous":false,"inputs":[{"indexed":true,"internalType":"address","name":"operator","type":"address"},{"indexed":true,"internalType":"address","name":"from","type":"address"},{"indexed":true,"internalType":"address","name":"to","type":"address"},{"indexed":false,"internalType":"uint256","name":"id","type":"uint256"},{"indexed":false,"internalType":"uint256","name":"value","type":"uint256"}],"name":"TransferSingle","type":"event"},{"anonymous":false,"inputs":[{"indexed":false,"internalType":"string","name":"value","type":"string"},{"indexed":true,"internalType":"uint256","name":"id","type":"uint256"}],"name":"URI","type":"event"},{"inputs":[{"internalType":"address","name":"account","type":"address"},{"internalType":"uint256","name":"id","type":"uint256"}],"name":"balanceOf","outputs":[{"internalType":"uint256","name":"","type":"uint256"}],"stateMutability":"view","type":"function"},{"inputs":[{"internalType":"address[]","name":"accounts","type":"address[]"},{"internalType":"uint256[]","name":"ids","type":"uint256[]"}],"name":"balanceOfBatch","outputs":[{"internalType":"uint256[]","name":"","type":"uint256[]"}],"stateMutability":"view","type":"function"},{"inputs":[{"internalType":"uint256","name":"","type":"uint256"},{"internalType":"uint256","name":"","type":"uint256"}],"name":"communityOwners","outputs":[{"internalType":"address","name":"ownerAddress","type":"address"},{"internalType":"uint256","name":"quantity","type":"uint256"},{"internalType":"string","name":"currency","type":"string"}],"stateMutability":"view","type":"function"},{"inputs":[{"internalType":"uint256","name":"communityId","type":"uint256"}],"name":"getCommunityOwners","outputs":[{"components":[{"internalType":"address","name":"ownerAddress","type":"address"},{"internalType":"uint256","name":"quantity","type":"uint256"},{"internalType":"string","name":"currency","type":"string"}],"internalType":"struct MarsxCommunity.Owner[]","name":"","type":"tuple[]"}],"stateMutability":"view","type":"function"},{"inputs":[{"internalType":"address","name":"account","type":"address"},{"internalType":"address","name":"operator","type":"address"}],"name":"isApprovedForAll","outputs":[{"internalType":"bool","name":"","type":"bool"}],"stateMutability":"view","type":"function"},{"inputs":[{"internalType":"uint256","name":"","type":"uint256"}],"name":"lastMintedItemId","outputs":[{"internalType":"uint256","name":"","type":"uint256"}],"stateMutability":"view","type":"function"},{"inputs":[{"internalType":"uint256","name":"communityId","type":"uint256"},{"internalType":"uint256","name":"quantity","type":"uint256"}],"name":"mintWithMX","outputs":[],"stateMutability":"nonpayable","type":"function"},{"inputs":[{"internalType":"uint256","name":"communityId","type":"uint256"},{"internalType":"uint256","name":"quantity","type":"uint256"}],"name":"mintWithUSDT","outputs":[],"stateMutability":"nonpayable","type":"function"},{"inputs":[],"name":"mxPrice","outputs":[{"internalType":"uint256","name":"","type":"uint256"}],"stateMutability":"view","type":"function"},{"inputs":[],"name":"mxToken","outputs":[{"internalType":"contract IERC20","name":"","type":"address"}],"stateMutability":"view","type":"function"},{"inputs":[],"name":"name","outputs":[{"internalType":"string","name":"","type":"string"}],"stateMutability":"view","type":"function"},{"inputs":[],"name":"owner","outputs":[{"internalType":"address","name":"","type":"address"}],"stateMutability":"view","type":"function"},{"inputs":[],"name":"renounceOwnership","outputs":[],"stateMutability":"nonpayable","type":"function"},{"inputs":[{"internalType":"address","name":"from","type":"address"},{"internalType":"address","name":"to","type":"address"},{"internalType":"uint256[]","name":"ids","type":"uint256[]"},{"internalType":"uint256[]","name":"values","type":"uint256[]"},{"internalType":"bytes","name":"data","type":"bytes"}],"name":"safeBatchTransferFrom","outputs":[],"stateMutability":"nonpayable","type":"function"},{"inputs":[{"internalType":"address","name":"from","type":"address"},{"internalType":"address","name":"to","type":"address"},{"internalType":"uint256","name":"id","type":"uint256"},{"internalType":"uint256","name":"value","type":"uint256"},{"internalType":"bytes","name":"data","type":"bytes"}],"name":"safeTransferFrom","outputs":[],"stateMutability":"nonpayable","type":"function"},{"inputs":[{"internalType":"address","name":"operator","type":"address"},{"internalType":"bool","name":"approved","type":"bool"}],"name":"setApprovalForAll","outputs":[],"stateMutability":"nonpayable","type":"function"},{"inputs":[{"internalType":"string","name":"newBaseURI","type":"string"}],"name":"setBaseURI","outputs":[],"stateMutability":"nonpayable","type":"function"},{"inputs":[{"internalType":"uint256","name":"newPrice","type":"uint256"}],"name":"setMXPrice","outputs":[],"stateMutability":"nonpayable","type":"function"},{"inputs":[{"internalType":"uint256","name":"newPrice","type":"uint256"}],"name":"setUsdtPrice","outputs":[],"stateMutability":"nonpayable","type":"function"},{"inputs":[{"internalType":"bytes4","name":"interfaceId","type":"bytes4"}],"name":"supportsInterface","outputs":[{"internalType":"bool","name":"","type":"bool"}],"stateMutability":"view","type":"function"},{"inputs":[],"name":"symbol","outputs":[{"internalType":"string","name":"","type":"string"}],"stateMutability":"view","type":"function"},{"inputs":[{"internalType":"bool","name":"enabled","type":"bool"}],"name":"toggleUsdtPurchases","outputs":[],"stateMutability":"nonpayable","type":"function"},{"inputs":[{"internalType":"address","name":"newOwner","type":"address"}],"name":"transferOwnership","outputs":[],"stateMutability":"nonpayable","type":"function"},{"inputs":[{"internalType":"uint256","name":"tokenId","type":"uint256"}],"name":"uri","outputs":[{"internalType":"string","name":"","type":"string"}],"stateMutability":"view","type":"function"},{"inputs":[],"name":"usdtEnabled","outputs":[{"internalType":"bool","name":"","type":"bool"}],"stateMutability":"view","type":"function"},{"inputs":[],"name":"usdtPrice","outputs":[{"internalType":"uint256","name":"","type":"uint256"}],"stateMutability":"view","type":"function"},{"inputs":[],"name":"usdtToken","outputs":[{"internalType":"contract IERC20","name":"","type":"address"}],"stateMutability":"view","type":"function"},{"inputs":[{"internalType":"address","name":"to","type":"address"},{"internalType":"uint256","name":"amount","type":"uint256"},{"internalType":"bool","name":"isUSDT","type":"bool"}],"name":"withdrawTokens","outputs":[],"stateMutability":"nonpayable","type":"function"}],"evm":{"bytecode":{"linkReferences":{},"object":"60806040526040518060400160405280601081526020017f4d6172732d5820436f6d6d756e69747900000000000000000000000000000000815250600590816200004a919062000585565b506040518060400160405280600381526020017f4d584300000000000000000000000000000000000000000000000000000000008152506006908162000091919062000585565b506001600b60006101000a81548160ff021916908315150217905550348015620000ba57600080fd5b5060405162004f2d38038062004f2d8339818101604052810190620000e0919062000866565b3383620000f3816200023060201b60201c565b50600073ffffffffffffffffffffffffffffffffffffffff168173ffffffffffffffffffffffffffffffffffffffff1603620001695760006040517f1e4fbdf70000000000000000000000000000000000000000000000000000000081526004016200016091906200091e565b60405180910390fd5b6200017a816200024560201b60201c565b50600160048190555084600d60006101000a81548173ffffffffffffffffffffffffffffffffffffffff021916908373ffffffffffffffffffffffffffffffffffffffff16021790555083600e60006101000a81548173ffffffffffffffffffffffffffffffffffffffff021916908373ffffffffffffffffffffffffffffffffffffffff16021790555082600c908162000216919062000585565b50806007819055508160088190555050505050506200093b565b806002908162000241919062000585565b5050565b6000600360009054906101000a900473ffffffffffffffffffffffffffffffffffffffff16905081600360006101000a81548173ffffffffffffffffffffffffffffffffffffffff021916908373ffffffffffffffffffffffffffffffffffffffff1602179055508173ffffffffffffffffffffffffffffffffffffffff168173ffffffffffffffffffffffffffffffffffffffff167f8be0079c531659141344cd1fd0a4f28419497f9722a3daafe3b4186f6b6457e060405160405180910390a35050565b600081519050919050565b7f4e487b7100000000000000000000000000000000000000000000000000000000600052604160045260246000fd5b7f4e487b7100000000000000000000000000000000000000000000000000000000600052602260045260246000fd5b600060028204905060018216806200038d57607f821691505b602082108103620003a357620003a262000345565b5b50919050565b60008190508160005260206000209050919050565b60006020601f8301049050919050565b600082821b905092915050565b6000600883026200040d7fffffffffffffffffffffffffffffffffffffffffffffffffffffffffffffffff82620003ce565b620004198683620003ce565b95508019841693508086168417925050509392505050565b6000819050919050565b6000819050919050565b600062000466620004606200045a8462000431565b6200043b565b62000431565b9050919050565b6000819050919050565b620004828362000445565b6200049a62000491826200046d565b848454620003db565b825550505050565b600090565b620004b1620004a2565b620004be81848462000477565b505050565b5b81811015620004e657620004da600082620004a7565b600181019050620004c4565b5050565b601f8211156200053557620004ff81620003a9565b6200050a84620003be565b810160208510156200051a578190505b620005326200052985620003be565b830182620004c3565b50505b505050565b600082821c905092915050565b60006200055a600019846008026200053a565b1980831691505092915050565b600062000575838362000547565b9150826002028217905092915050565b62000590826200030b565b67ffffffffffffffff811115620005ac57620005ab62000316565b5b620005b8825462000374565b620005c5828285620004ea565b600060209050601f831160018114620005fd5760008415620005e8578287015190505b620005f4858262000567565b86555062000664565b601f1984166200060d86620003a9565b60005b82811015620006375784890151825560018201915060208501945060208101905062000610565b8683101562000657578489015162000653601f89168262000547565b8355505b6001600288020188555050505b505050505050565b6000604051905090565b600080fd5b600080fd5b600073ffffffffffffffffffffffffffffffffffffffff82169050919050565b6000620006ad8262000680565b9050919050565b620006bf81620006a0565b8114620006cb57600080fd5b50565b600081519050620006df81620006b4565b92915050565b600080fd5b600080fd5b6000601f19601f8301169050919050565b6200070b82620006ef565b810181811067ffffffffffffffff821117156200072d576200072c62000316565b5b80604052505050565b6000620007426200066c565b905062000750828262000700565b919050565b600067ffffffffffffffff82111562000773576200077262000316565b5b6200077e82620006ef565b9050602081019050919050565b60005b83811015620007ab5780820151818401526020810190506200078e565b60008484015250505050565b6000620007ce620007c88462000755565b62000736565b905082815260208101848484011115620007ed57620007ec620006ea565b5b620007fa8482856200078b565b509392505050565b600082601f8301126200081a5762000819620006e5565b5b81516200082c848260208601620007b7565b91505092915050565b620008408162000431565b81146200084c57600080fd5b50565b600081519050620008608162000835565b92915050565b600080600080600060a0868803121562000885576200088462000676565b5b60006200089588828901620006ce565b9550506020620008a888828901620006ce565b945050604086015167ffffffffffffffff811115620008cc57620008cb6200067b565b5b620008da8882890162000802565b9350506060620008ed888289016200084f565b925050608062000900888289016200084f565b9150509295509295909350565b6200091881620006a0565b82525050565b60006020820190506200093560008301846200090d565b92915050565b6145e2806200094b6000396000f3fe608060405234801561001057600080fd5b50600436106101c35760003560e01c80638da5cb5b116100f9578063b92c678411610097578063e9fecdd211610071578063e9fecdd214610506578063f242432a14610524578063f290955514610540578063f2fde38b1461055c576101c3565b8063b92c678414610486578063e136f65f146104b8578063e985e9c5146104d6576101c3565b8063a22cb465116100d3578063a22cb46514610400578063a37dafb31461041c578063a98ad46c1461044c578063ac4013be1461046a576101c3565b80638da5cb5b146103a857806395d89b41146103c657806398fcca60146103e4576101c3565b80632644cd5c1161016657806352a512621161014057806352a512621461034657806355f804b3146103645780636edd450614610380578063715018a61461039e576101c3565b80632644cd5c146102ca5780632eb2c2d6146102fa5780634e1273f414610316576101c3565b806306fdde03116101a257806306fdde0314610244578063091271c3146102625780630e89341c1461027e5780630ef31451146102ae576101c3565b8062fdd58e146101c857806301dc2627146101f857806301ffc9a714610214575b600080fd5b6101e260048036038101906101dd9190612d6b565b610578565b6040516101ef9190612dba565b60405180910390f35b610212600480360381019061020d9190612e0d565b6105d2565b005b61022e60048036038101906102299190612e92565b6105f7565b60405161023b9190612ece565b60405180910390f35b61024c6106d9565b6040516102599190612f79565b60405180910390f35b61027c60048036038101906102779190612f9b565b610767565b005b61029860048036038101906102939190612fdb565b610bd0565b6040516102a59190612f79565b60405180910390f35b6102c860048036038101906102c39190612fdb565b610c04565b005b6102e460048036038101906102df9190612fdb565b610c16565b6040516102f19190613182565b60405180910390f35b610314600480360381019061030f91906133a1565b610d7a565b005b610330600480360381019061032b9190613533565b610e22565b60405161033d919061365a565b60405180910390f35b61034e610f31565b60405161035b91906136db565b60405180910390f35b61037e60048036038101906103799190613797565b610f57565b005b610388610fa9565b6040516103959190612ece565b60405180910390f35b6103a6610fbc565b005b6103b0610fd0565b6040516103bd91906137ef565b60405180910390f35b6103ce610ffa565b6040516103db9190612f79565b60405180910390f35b6103fe60048036038101906103f99190612f9b565b611088565b005b61041a6004803603810190610415919061380a565b611540565b005b61043660048036038101906104319190612fdb565b611556565b6040516104439190612dba565b60405180910390f35b61045461156e565b60405161046191906136db565b60405180910390f35b610484600480360381019061047f919061384a565b611594565b005b6104a0600480360381019061049b9190612f9b565b611998565b6040516104af9392919061389d565b60405180910390f35b6104c0611a87565b6040516104cd9190612dba565b60405180910390f35b6104f060048036038101906104eb91906138db565b611a8d565b6040516104fd9190612ece565b60405180910390f35b61050e611b21565b60405161051b9190612dba565b60405180910390f35b61053e6004803603810190610539919061391b565b611b27565b005b61055a60048036038101906105559190612fdb565b611bcf565b005b610576600480360381019061057191906139b2565b611be1565b005b600080600083815260200190815260200160002060008473ffffffffffffffffffffffffffffffffffffffff1673ffffffffffffffffffffffffffffffffffffffff16815260200190815260200160002054905092915050565b6105da611c67565b80600b60006101000a81548160ff02191690831515021790555050565b60007fd9b67a26000000000000000000000000000000000000000000000000000000007bffffffffffffffffffffffffffffffffffffffffffffffffffffffff1916827bffffffffffffffffffffffffffffffffffffffffffffffffffffffff191614806106c257507f0e89341c000000000000000000000000000000000000000000000000000000007bffffffffffffffffffffffffffffffffffffffffffffffffffffffff1916827bffffffffffffffffffffffffffffffffffffffffffffffffffffffff1916145b806106d257506106d182611cee565b5b9050919050565b600580546106e690613a0e565b80601f016020809104026020016040519081016040528092919081815260200182805461071290613a0e565b801561075f5780601f106107345761010080835404028352916020019161075f565b820191906000526020600020905b81548152906001019060200180831161074257829003601f168201915b505050505081565b61076f611d58565b600081116107b2576040517f08c379a00000000000000000000000000000000000000000000000000000000081526004016107a990613ab1565b60405180910390fd5b600a81600a6000858152602001908152602001600020546107d39190613b00565b1115610814576040517f08c379a000000000000000000000000000000000000000000000000000000000815260040161080b90613b80565b60405180910390fd5b6000816008546108249190613ba0565b9050600e60009054906101000a900473ffffffffffffffffffffffffffffffffffffffff1673ffffffffffffffffffffffffffffffffffffffff166323b872dd3330846040518463ffffffff1660e01b815260040161088593929190613be2565b6020604051808303816000875af11580156108a4573d6000803e3d6000fd5b505050506040513d601f19601f820116820180604052508101906108c89190613c2e565b610907576040517f08c379a00000000000000000000000000000000000000000000000000000000081526004016108fe90613ca7565b60405180910390fd5b81600a6000858152602001908152602001600020600082825461092a9190613b00565b9250508190555061094c33848460405180602001604052806000815250611d9e565b6000805b6009600086815260200190815260200160002080549050811015610a60573373ffffffffffffffffffffffffffffffffffffffff166009600087815260200190815260200160002082815481106109aa576109a9613cc7565b5b906000526020600020906003020160000160009054906101000a900473ffffffffffffffffffffffffffffffffffffffff1673ffffffffffffffffffffffffffffffffffffffff1603610a4d5783600960008781526020019081526020016000208281548110610a1d57610a1c613cc7565b5b90600052602060002090600302016001016000828254610a3d9190613b00565b9250508190555060019150610a60565b8080610a5890613cf6565b915050610950565b5080610b72576009600085815260200190815260200160002060405180606001604052803373ffffffffffffffffffffffffffffffffffffffff1681526020018581526020016040518060400160405280600281526020017f4d58000000000000000000000000000000000000000000000000000000000000815250815250908060018154018082558091505060019003906000526020600020906003020160009091909190915060008201518160000160006101000a81548173ffffffffffffffffffffffffffffffffffffffff021916908373ffffffffffffffffffffffffffffffffffffffff160217905550602082015181600101556040820151816002019081610b6e9190613ee0565b5050505b3373ffffffffffffffffffffffffffffffffffffffff167f4bfa332cff87c82d5eec48e5b72c3d89f341f35ef0c47a72e99b2b5d00191e5d8585604051610bba929190613fb2565b60405180910390a25050610bcc611e37565b5050565b6060600c610bdd83611e41565b604051602001610bee9291906140e6565b6040516020818303038152906040529050919050565b610c0c611c67565b8060078190555050565b606060096000838152602001908152602001600020805480602002602001604051908101604052809291908181526020016000905b82821015610d6f57838290600052602060002090600302016040518060600160405290816000820160009054906101000a900473ffffffffffffffffffffffffffffffffffffffff1673ffffffffffffffffffffffffffffffffffffffff1673ffffffffffffffffffffffffffffffffffffffff16815260200160018201548152602001600282018054610cde90613a0e565b80601f0160208091040260200160405190810160405280929190818152602001828054610d0a90613a0e565b8015610d575780601f10610d2c57610100808354040283529160200191610d57565b820191906000526020600020905b815481529060010190602001808311610d3a57829003601f168201915b50505050508152505081526020019060010190610c4b565b505050509050919050565b6000610d84611f0f565b90508073ffffffffffffffffffffffffffffffffffffffff168673ffffffffffffffffffffffffffffffffffffffff1614158015610dc95750610dc78682611a8d565b155b15610e0d5780866040517fe237d922000000000000000000000000000000000000000000000000000000008152600401610e04929190614115565b60405180910390fd5b610e1a8686868686611f17565b505050505050565b60608151835114610e6e57815183516040517f5b059991000000000000000000000000000000000000000000000000000000008152600401610e65929190613fb2565b60405180910390fd5b6000835167ffffffffffffffff811115610e8b57610e8a6131a9565b5b604051908082528060200260200182016040528015610eb95781602001602082028036833780820191505090505b50905060005b8451811015610f2657610ef6610ede828761200f90919063ffffffff16565b610ef1838761202390919063ffffffff16565b610578565b828281518110610f0957610f08613cc7565b5b60200260200101818152505080610f1f90613cf6565b9050610ebf565b508091505092915050565b600e60009054906101000a900473ffffffffffffffffffffffffffffffffffffffff1681565b610f5f611c67565b80600c9081610f6e9190613ee0565b507ff9c7803e94e0d3c02900d8a90893a6d5e90dd04d32a4cfe825520f82bf9f32f681604051610f9e9190612f79565b60405180910390a150565b600b60009054906101000a900460ff1681565b610fc4611c67565b610fce6000612037565b565b6000600360009054906101000a900473ffffffffffffffffffffffffffffffffffffffff16905090565b6006805461100790613a0e565b80601f016020809104026020016040519081016040528092919081815260200182805461103390613a0e565b80156110805780601f1061105557610100808354040283529160200191611080565b820191906000526020600020905b81548152906001019060200180831161106357829003601f168201915b505050505081565b611090611d58565b600081116110d3576040517f08c379a00000000000000000000000000000000000000000000000000000000081526004016110ca90613ab1565b60405180910390fd5b600b60009054906101000a900460ff16611122576040517f08c379a00000000000000000000000000000000000000000000000000000000081526004016111199061418a565b60405180910390fd5b600a81600a6000858152602001908152602001600020546111439190613b00565b1115611184576040517f08c379a000000000000000000000000000000000000000000000000000000000815260040161117b90613b80565b60405180910390fd5b6000816007546111949190613ba0565b9050600d60009054906101000a900473ffffffffffffffffffffffffffffffffffffffff1673ffffffffffffffffffffffffffffffffffffffff166323b872dd3330846040518463ffffffff1660e01b81526004016111f593929190613be2565b6020604051808303816000875af1158015611214573d6000803e3d6000fd5b505050506040513d601f19601f820116820180604052508101906112389190613c2e565b611277576040517f08c379a000000000000000000000000000000000000000000000000000000000815260040161126e906141f6565b60405180910390fd5b81600a6000858152602001908152602001600020600082825461129a9190613b00565b925050819055506112bc33848460405180602001604052806000815250611d9e565b6000805b60096000868152602001908152602001600020805490508110156113d0573373ffffffffffffffffffffffffffffffffffffffff1660096000878152602001908152602001600020828154811061131a57611319613cc7565b5b906000526020600020906003020160000160009054906101000a900473ffffffffffffffffffffffffffffffffffffffff1673ffffffffffffffffffffffffffffffffffffffff16036113bd578360096000878152602001908152602001600020828154811061138d5761138c613cc7565b5b906000526020600020906003020160010160008282546113ad9190613b00565b92505081905550600191506113d0565b80806113c890613cf6565b9150506112c0565b50806114e2576009600085815260200190815260200160002060405180606001604052803373ffffffffffffffffffffffffffffffffffffffff1681526020018581526020016040518060400160405280600481526020017f5553445400000000000000000000000000000000000000000000000000000000815250815250908060018154018082558091505060019003906000526020600020906003020160009091909190915060008201518160000160006101000a81548173ffffffffffffffffffffffffffffffffffffffff021916908373ffffffffffffffffffffffffffffffffffffffff1602179055506020820151816001015560408201518160020190816114de9190613ee0565b5050505b3373ffffffffffffffffffffffffffffffffffffffff167fd115e474df7f346023269013b65c20889a9c10f5c2cc073e6a0f36e386c9bd44858560405161152a929190613fb2565b60405180910390a2505061153c611e37565b5050565b61155261154b611f0f565b83836120fd565b5050565b600a6020528060005260406000206000915090505481565b600d60009054906101000a900473ffffffffffffffffffffffffffffffffffffffff1681565b61159c611c67565b60008161164457600e60009054906101000a900473ffffffffffffffffffffffffffffffffffffffff1673ffffffffffffffffffffffffffffffffffffffff166370a08231306040518263ffffffff1660e01b81526004016115fe91906137ef565b602060405180830381865afa15801561161b573d6000803e3d6000fd5b505050506040513d601f19601f8201168201806040525081019061163f919061422b565b6116e1565b600d60009054906101000a900473ffffffffffffffffffffffffffffffffffffffff1673ffffffffffffffffffffffffffffffffffffffff166370a08231306040518263ffffffff1660e01b815260040161169f91906137ef565b602060405180830381865afa1580156116bc573d6000803e3d6000fd5b505050506040513d601f19601f820116820180604052508101906116e0919061422b565b5b905080831115611726576040517f08c379a000000000000000000000000000000000000000000000000000000000815260040161171d906142ca565b60405180910390fd5b811561186157600d60009054906101000a900473ffffffffffffffffffffffffffffffffffffffff1673ffffffffffffffffffffffffffffffffffffffff1663a9059cbb85856040518363ffffffff1660e01b81526004016117899291906142ea565b6020604051808303816000875af11580156117a8573d6000803e3d6000fd5b505050506040513d601f19601f820116820180604052508101906117cc9190613c2e565b61180b576040517f08c379a00000000000000000000000000000000000000000000000000000000081526004016118029061435f565b60405180910390fd5b3373ffffffffffffffffffffffffffffffffffffffff167fa995a272df1bb18670c48272b0035c51cb0074b02b60ded72745a68e1cacfb3084600160405161185492919061437f565b60405180910390a2611992565b600e60009054906101000a900473ffffffffffffffffffffffffffffffffffffffff1673ffffffffffffffffffffffffffffffffffffffff1663a9059cbb85856040518363ffffffff1660e01b81526004016118be9291906142ea565b6020604051808303816000875af11580156118dd573d6000803e3d6000fd5b505050506040513d601f19601f820116820180604052508101906119019190613c2e565b611940576040517f08c379a00000000000000000000000000000000000000000000000000000000081526004016119379061435f565b60405180910390fd5b3373ffffffffffffffffffffffffffffffffffffffff167fa995a272df1bb18670c48272b0035c51cb0074b02b60ded72745a68e1cacfb3084600060405161198992919061437f565b60405180910390a25b50505050565b600960205281600052604060002081815481106119b457600080fd5b9060005260206000209060030201600091509150508060000160009054906101000a900473ffffffffffffffffffffffffffffffffffffffff1690806001015490806002018054611a0490613a0e565b80601f0160208091040260200160405190810160405280929190818152602001828054611a3090613a0e565b8015611a7d5780601f10611a5257610100808354040283529160200191611a7d565b820191906000526020600020905b815481529060010190602001808311611a6057829003601f168201915b5050505050905083565b60075481565b6000600160008473ffffffffffffffffffffffffffffffffffffffff1673ffffffffffffffffffffffffffffffffffffffff16815260200190815260200160002060008373ffffffffffffffffffffffffffffffffffffffff1673ffffffffffffffffffffffffffffffffffffffff16815260200190815260200160002060009054906101000a900460ff16905092915050565b60085481565b6000611b31611f0f565b90508073ffffffffffffffffffffffffffffffffffffffff168673ffffffffffffffffffffffffffffffffffffffff1614158015611b765750611b748682611a8d565b155b15611bba5780866040517fe237d922000000000000000000000000000000000000000000000000000000008152600401611bb1929190614115565b60405180910390fd5b611bc7868686868661226d565b505050505050565b611bd7611c67565b8060088190555050565b611be9611c67565b600073ffffffffffffffffffffffffffffffffffffffff168173ffffffffffffffffffffffffffffffffffffffff1603611c5b5760006040517f1e4fbdf7000000000000000000000000000000000000000000000000000000008152600401611c5291906137ef565b60405180910390fd5b611c6481612037565b50565b611c6f611f0f565b73ffffffffffffffffffffffffffffffffffffffff16611c8d610fd0565b73ffffffffffffffffffffffffffffffffffffffff1614611cec57611cb0611f0f565b6040517f118cdaa7000000000000000000000000000000000000000000000000000000008152600401611ce391906137ef565b60405180910390fd5b565b60007f01ffc9a7000000000000000000000000000000000000000000000000000000007bffffffffffffffffffffffffffffffffffffffffffffffffffffffff1916827bffffffffffffffffffffffffffffffffffffffffffffffffffffffff1916149050919050565b600260045403611d94576040517f3ee5aeb500000000000000000000000000000000000000000000000000000000815260040160405180910390fd5b6002600481905550565b600073ffffffffffffffffffffffffffffffffffffffff168473ffffffffffffffffffffffffffffffffffffffff1603611e105760006040517f57f447ce000000000000000000000000000000000000000000000000000000008152600401611e0791906137ef565b60405180910390fd5b600080611e1d8585612378565b91509150611e2f6000878484876123a8565b505050505050565b6001600481905550565b606060006001611e508461245a565b01905060008167ffffffffffffffff811115611e6f57611e6e6131a9565b5b6040519080825280601f01601f191660200182016040528015611ea15781602001600182028036833780820191505090505b509050600082602001820190505b600115611f04578080600190039150507f3031323334353637383961626364656600000000000000000000000000000000600a86061a8153600a8581611ef857611ef76143a8565b5b04945060008503611eaf575b819350505050919050565b600033905090565b600073ffffffffffffffffffffffffffffffffffffffff168473ffffffffffffffffffffffffffffffffffffffff1603611f895760006040517f57f447ce000000000000000000000000000000000000000000000000000000008152600401611f8091906137ef565b60405180910390fd5b600073ffffffffffffffffffffffffffffffffffffffff168573ffffffffffffffffffffffffffffffffffffffff1603611ffb5760006040517f01a83514000000000000000000000000000000000000000000000000000000008152600401611ff291906137ef565b60405180910390fd5b61200885858585856123a8565b5050505050565b600060208202602084010151905092915050565b600060208202602084010151905092915050565b6000600360009054906101000a900473ffffffffffffffffffffffffffffffffffffffff16905081600360006101000a81548173ffffffffffffffffffffffffffffffffffffffff021916908373ffffffffffffffffffffffffffffffffffffffff1602179055508173ffffffffffffffffffffffffffffffffffffffff168173ffffffffffffffffffffffffffffffffffffffff167f8be0079c531659141344cd1fd0a4f28419497f9722a3daafe3b4186f6b6457e060405160405180910390a35050565b600073ffffffffffffffffffffffffffffffffffffffff168273ffffffffffffffffffffffffffffffffffffffff160361216f5760006040517fced3e10000000000000000000000000000000000000000000000000000000000815260040161216691906137ef565b60405180910390fd5b80600160008573ffffffffffffffffffffffffffffffffffffffff1673ffffffffffffffffffffffffffffffffffffffff16815260200190815260200160002060008473ffffffffffffffffffffffffffffffffffffffff1673ffffffffffffffffffffffffffffffffffffffff16815260200190815260200160002060006101000a81548160ff0219169083151502179055508173ffffffffffffffffffffffffffffffffffffffff168373ffffffffffffffffffffffffffffffffffffffff167f17307eab39ab6107e8899845ad3d59bd9653f200f220920489ca2b5937696c31836040516122609190612ece565b60405180910390a3505050565b600073ffffffffffffffffffffffffffffffffffffffff168473ffffffffffffffffffffffffffffffffffffffff16036122df5760006040517f57f447ce0000000000000000000000000000000000000000000000000000000081526004016122d691906137ef565b60405180910390fd5b600073ffffffffffffffffffffffffffffffffffffffff168573ffffffffffffffffffffffffffffffffffffffff16036123515760006040517f01a8351400000000000000000000000000000000000000000000000000000000815260040161234891906137ef565b60405180910390fd5b60008061235e8585612378565b9150915061236f87878484876123a8565b50505050505050565b60608060405191506001825283602083015260408201905060018152826020820152604081016040529250929050565b6123b4858585856125ad565b600073ffffffffffffffffffffffffffffffffffffffff168473ffffffffffffffffffffffffffffffffffffffff16146124535760006123f2611f0f565b9050600184510361244257600061241360008661202390919063ffffffff16565b9050600061242b60008661202390919063ffffffff16565b905061243b83898985858961295b565b5050612451565b612450818787878787612b0f565b5b505b5050505050565b600080600090507a184f03e93ff9f4daa797ed6e38ed64bf6a1f01000000000000000083106124b8577a184f03e93ff9f4daa797ed6e38ed64bf6a1f01000000000000000083816124ae576124ad6143a8565b5b0492506040810190505b6d04ee2d6d415b85acef810000000083106124f5576d04ee2d6d415b85acef810000000083816124eb576124ea6143a8565b5b0492506020810190505b662386f26fc10000831061252457662386f26fc10000838161251a576125196143a8565b5b0492506010810190505b6305f5e100831061254d576305f5e1008381612543576125426143a8565b5b0492506008810190505b6127108310612572576127108381612568576125676143a8565b5b0492506004810190505b60648310612595576064838161258b5761258a6143a8565b5b0492506002810190505b600a83106125a4576001810190505b80915050919050565b80518251146125f757815181516040517f5b0599910000000000000000000000000000000000000000000000000000000081526004016125ee929190613fb2565b60405180910390fd5b6000612601611f0f565b905060005b8351811015612816576000612624828661202390919063ffffffff16565b9050600061263b838661202390919063ffffffff16565b9050600073ffffffffffffffffffffffffffffffffffffffff168873ffffffffffffffffffffffffffffffffffffffff161461276857600080600084815260200190815260200160002060008a73ffffffffffffffffffffffffffffffffffffffff1673ffffffffffffffffffffffffffffffffffffffff1681526020019081526020016000205490508181101561271057888183856040517f03dee4c500000000000000000000000000000000000000000000000000000000815260040161270794939291906143d7565b60405180910390fd5b81810360008085815260200190815260200160002060008b73ffffffffffffffffffffffffffffffffffffffff1673ffffffffffffffffffffffffffffffffffffffff16815260200190815260200160002081905550505b600073ffffffffffffffffffffffffffffffffffffffff168773ffffffffffffffffffffffffffffffffffffffff1614612803578060008084815260200190815260200160002060008973ffffffffffffffffffffffffffffffffffffffff1673ffffffffffffffffffffffffffffffffffffffff16815260200190815260200160002060008282546127fb9190613b00565b925050819055505b50508061280f90613cf6565b9050612606565b5060018351036128d557600061283660008561202390919063ffffffff16565b9050600061284e60008561202390919063ffffffff16565b90508573ffffffffffffffffffffffffffffffffffffffff168773ffffffffffffffffffffffffffffffffffffffff168473ffffffffffffffffffffffffffffffffffffffff167fc3d58168c5ae7397731d063d5bbf3d657854427343f4c083240f7aacaa2d0f6285856040516128c6929190613fb2565b60405180910390a45050612954565b8373ffffffffffffffffffffffffffffffffffffffff168573ffffffffffffffffffffffffffffffffffffffff168273ffffffffffffffffffffffffffffffffffffffff167f4a39dc06d4c0dbc64b70af90fd698a233a518aa5d07e595d983b8c0526c8f7fb868660405161294b92919061441c565b60405180910390a45b5050505050565b60008473ffffffffffffffffffffffffffffffffffffffff163b1115612b07578373ffffffffffffffffffffffffffffffffffffffff1663f23a6e6187878686866040518663ffffffff1660e01b81526004016129bc9594939291906144a8565b6020604051808303816000875af19250505080156129f857506040513d601f19601f820116820180604052508101906129f59190614517565b60015b612a7c573d8060008114612a28576040519150601f19603f3d011682016040523d82523d6000602084013e612a2d565b606091505b506000815103612a7457846040517f57f447ce000000000000000000000000000000000000000000000000000000008152600401612a6b91906137ef565b60405180910390fd5b805181602001fd5b63f23a6e6160e01b7bffffffffffffffffffffffffffffffffffffffffffffffffffffffff1916817bffffffffffffffffffffffffffffffffffffffffffffffffffffffff191614612b0557846040517f57f447ce000000000000000000000000000000000000000000000000000000008152600401612afc91906137ef565b60405180910390fd5b505b505050505050565b60008473ffffffffffffffffffffffffffffffffffffffff163b1115612cbb578373ffffffffffffffffffffffffffffffffffffffff1663bc197c8187878686866040518663ffffffff1660e01b8152600401612b70959493929190614544565b6020604051808303816000875af1925050508015612bac57506040513d601f19601f82011682018060405250810190612ba99190614517565b60015b612c30573d8060008114612bdc576040519150601f19603f3d011682016040523d82523d6000602084013e612be1565b606091505b506000815103612c2857846040517f57f447ce000000000000000000000000000000000000000000000000000000008152600401612c1f91906137ef565b60405180910390fd5b805181602001fd5b63bc197c8160e01b7bffffffffffffffffffffffffffffffffffffffffffffffffffffffff1916817bffffffffffffffffffffffffffffffffffffffffffffffffffffffff191614612cb957846040517f57f447ce000000000000000000000000000000000000000000000000000000008152600401612cb091906137ef565b60405180910390fd5b505b505050505050565b6000604051905090565b600080fd5b600080fd5b600073ffffffffffffffffffffffffffffffffffffffff82169050919050565b6000612d0282612cd7565b9050919050565b612d1281612cf7565b8114612d1d57600080fd5b50565b600081359050612d2f81612d09565b92915050565b6000819050919050565b612d4881612d35565b8114612d5357600080fd5b50565b600081359050612d6581612d3f565b92915050565b60008060408385031215612d8257612d81612ccd565b5b6000612d9085828601612d20565b9250506020612da185828601612d56565b9150509250929050565b612db481612d35565b82525050565b6000602082019050612dcf6000830184612dab565b92915050565b60008115159050919050565b612dea81612dd5565b8114612df557600080fd5b50565b600081359050612e0781612de1565b92915050565b600060208284031215612e2357612e22612ccd565b5b6000612e3184828501612df8565b91505092915050565b60007fffffffff0000000000000000000000000000000000000000000000000000000082169050919050565b612e6f81612e3a565b8114612e7a57600080fd5b50565b600081359050612e8c81612e66565b92915050565b600060208284031215612ea857612ea7612ccd565b5b6000612eb684828501612e7d565b91505092915050565b612ec881612dd5565b82525050565b6000602082019050612ee36000830184612ebf565b92915050565b600081519050919050565b600082825260208201905092915050565b60005b83811015612f23578082015181840152602081019050612f08565b60008484015250505050565b6000601f19601f8301169050919050565b6000612f4b82612ee9565b612f558185612ef4565b9350612f65818560208601612f05565b612f6e81612f2f565b840191505092915050565b60006020820190508181036000830152612f938184612f40565b905092915050565b60008060408385031215612fb257612fb1612ccd565b5b6000612fc085828601612d56565b9250506020612fd185828601612d56565b9150509250929050565b600060208284031215612ff157612ff0612ccd565b5b6000612fff84828501612d56565b91505092915050565b600081519050919050565b600082825260208201905092915050565b6000819050602082019050919050565b61303d81612cf7565b82525050565b61304c81612d35565b82525050565b600082825260208201905092915050565b600061306e82612ee9565b6130788185613052565b9350613088818560208601612f05565b61309181612f2f565b840191505092915050565b60006060830160008301516130b46000860182613034565b5060208301516130c76020860182613043565b50604083015184820360408601526130df8282613063565b9150508091505092915050565b60006130f8838361309c565b905092915050565b6000602082019050919050565b600061311882613008565b6131228185613013565b93508360208202850161313485613024565b8060005b85811015613170578484038952815161315185826130ec565b945061315c83613100565b925060208a01995050600181019050613138565b50829750879550505050505092915050565b6000602082019050818103600083015261319c818461310d565b905092915050565b600080fd5b7f4e487b7100000000000000000000000000000000000000000000000000000000600052604160045260246000fd5b6131e182612f2f565b810181811067ffffffffffffffff82111715613200576131ff6131a9565b5b80604052505050565b6000613213612cc3565b905061321f82826131d8565b919050565b600067ffffffffffffffff82111561323f5761323e6131a9565b5b602082029050602081019050919050565b600080fd5b600061326861326384613224565b613209565b9050808382526020820190506020840283018581111561328b5761328a613250565b5b835b818110156132b457806132a08882612d56565b84526020840193505060208101905061328d565b5050509392505050565b600082601f8301126132d3576132d26131a4565b5b81356132e3848260208601613255565b91505092915050565b600080fd5b600067ffffffffffffffff82111561330c5761330b6131a9565b5b61331582612f2f565b9050602081019050919050565b82818337600083830152505050565b600061334461333f846132f1565b613209565b9050828152602081018484840111156133605761335f6132ec565b5b61336b848285613322565b509392505050565b600082601f830112613388576133876131a4565b5b8135613398848260208601613331565b91505092915050565b600080600080600060a086880312156133bd576133bc612ccd565b5b60006133cb88828901612d20565b95505060206133dc88828901612d20565b945050604086013567ffffffffffffffff8111156133fd576133fc612cd2565b5b613409888289016132be565b935050606086013567ffffffffffffffff81111561342a57613429612cd2565b5b613436888289016132be565b925050608086013567ffffffffffffffff81111561345757613456612cd2565b5b61346388828901613373565b9150509295509295909350565b600067ffffffffffffffff82111561348b5761348a6131a9565b5b602082029050602081019050919050565b60006134af6134aa84613470565b613209565b905080838252602082019050602084028301858111156134d2576134d1613250565b5b835b818110156134fb57806134e78882612d20565b8452602084019350506020810190506134d4565b5050509392505050565b600082601f83011261351a576135196131a4565b5b813561352a84826020860161349c565b91505092915050565b6000806040838503121561354a57613549612ccd565b5b600083013567ffffffffffffffff81111561356857613567612cd2565b5b61357485828601613505565b925050602083013567ffffffffffffffff81111561359557613594612cd2565b5b6135a1858286016132be565b9150509250929050565b600081519050919050565b600082825260208201905092915050565b6000819050602082019050919050565b60006135e38383613043565b60208301905092915050565b6000602082019050919050565b6000613607826135ab565b61361181856135b6565b935061361c836135c7565b8060005b8381101561364d57815161363488826135d7565b975061363f836135ef565b925050600181019050613620565b5085935050505092915050565b6000602082019050818103600083015261367481846135fc565b905092915050565b6000819050919050565b60006136a161369c61369784612cd7565b61367c565b612cd7565b9050919050565b60006136b382613686565b9050919050565b60006136c5826136a8565b9050919050565b6136d5816136ba565b82525050565b60006020820190506136f060008301846136cc565b92915050565b600067ffffffffffffffff821115613711576137106131a9565b5b61371a82612f2f565b9050602081019050919050565b600061373a613735846136f6565b613209565b905082815260208101848484011115613756576137556132ec565b5b613761848285613322565b509392505050565b600082601f83011261377e5761377d6131a4565b5b813561378e848260208601613727565b91505092915050565b6000602082840312156137ad576137ac612ccd565b5b600082013567ffffffffffffffff8111156137cb576137ca612cd2565b5b6137d784828501613769565b91505092915050565b6137e981612cf7565b82525050565b600060208201905061380460008301846137e0565b92915050565b6000806040838503121561382157613820612ccd565b5b600061382f85828601612d20565b925050602061384085828601612df8565b9150509250929050565b60008060006060848603121561386357613862612ccd565b5b600061387186828701612d20565b935050602061388286828701612d56565b925050604061389386828701612df8565b9150509250925092565b60006060820190506138b260008301866137e0565b6138bf6020830185612dab565b81810360408301526138d18184612f40565b9050949350505050565b600080604083850312156138f2576138f1612ccd565b5b600061390085828601612d20565b925050602061391185828601612d20565b9150509250929050565b600080600080600060a0868803121561393757613936612ccd565b5b600061394588828901612d20565b955050602061395688828901612d20565b945050604061396788828901612d56565b935050606061397888828901612d56565b925050608086013567ffffffffffffffff81111561399957613998612cd2565b5b6139a588828901613373565b9150509295509295909350565b6000602082840312156139c8576139c7612ccd565b5b60006139d684828501612d20565b91505092915050565b7f4e487b7100000000000000000000000000000000000000000000000000000000600052602260045260246000fd5b60006002820490506001821680613a2657607f821691505b602082108103613a3957613a386139df565b5b50919050565b7f5175616e74697479206d7573742062652067726561746572207468616e207a6560008201527f726f000000000000000000000000000000000000000000000000000000000000602082015250565b6000613a9b602283612ef4565b9150613aa682613a3f565b604082019050919050565b60006020820190508181036000830152613aca81613a8e565b9050919050565b7f4e487b7100000000000000000000000000000000000000000000000000000000600052601160045260246000fd5b6000613b0b82612d35565b9150613b1683612d35565b9250828201905080821115613b2e57613b2d613ad1565b5b92915050565b7f45786365656473206d6178696d756d20737570706c7900000000000000000000600082015250565b6000613b6a601683612ef4565b9150613b7582613b34565b602082019050919050565b60006020820190508181036000830152613b9981613b5d565b9050919050565b6000613bab82612d35565b9150613bb683612d35565b9250828202613bc481612d35565b91508282048414831517613bdb57613bda613ad1565b5b5092915050565b6000606082019050613bf760008301866137e0565b613c0460208301856137e0565b613c116040830184612dab565b949350505050565b600081519050613c2881612de1565b92915050565b600060208284031215613c4457613c43612ccd565b5b6000613c5284828501613c19565b91505092915050565b7f4552433230207472616e73666572206661696c65640000000000000000000000600082015250565b6000613c91601583612ef4565b9150613c9c82613c5b565b602082019050919050565b60006020820190508181036000830152613cc081613c84565b9050919050565b7f4e487b7100000000000000000000000000000000000000000000000000000000600052603260045260246000fd5b6000613d0182612d35565b91507fffffffffffffffffffffffffffffffffffffffffffffffffffffffffffffffff8203613d3357613d32613ad1565b5b600182019050919050565b60008190508160005260206000209050919050565b60006020601f8301049050919050565b600082821b905092915050565b600060088302613da07fffffffffffffffffffffffffffffffffffffffffffffffffffffffffffffffff82613d63565b613daa8683613d63565b95508019841693508086168417925050509392505050565b6000613ddd613dd8613dd384612d35565b61367c565b612d35565b9050919050565b6000819050919050565b613df783613dc2565b613e0b613e0382613de4565b848454613d70565b825550505050565b600090565b613e20613e13565b613e2b818484613dee565b505050565b5b81811015613e4f57613e44600082613e18565b600181019050613e31565b5050565b601f821115613e9457613e6581613d3e565b613e6e84613d53565b81016020851015613e7d578190505b613e91613e8985613d53565b830182613e30565b50505b505050565b600082821c905092915050565b6000613eb760001984600802613e99565b1980831691505092915050565b6000613ed08383613ea6565b9150826002028217905092915050565b613ee982612ee9565b67ffffffffffffffff811115613f0257613f016131a9565b5b613f0c8254613a0e565b613f17828285613e53565b600060209050601f831160018114613f4a5760008415613f38578287015190505b613f428582613ec4565b865550613faa565b601f198416613f5886613d3e565b60005b82811015613f8057848901518255600182019150602085019450602081019050613f5b565b86831015613f9d5784890151613f99601f891682613ea6565b8355505b6001600288020188555050505b505050505050565b6000604082019050613fc76000830185612dab565b613fd46020830184612dab565b9392505050565b600081905092915050565b60008154613ff381613a0e565b613ffd8186613fdb565b94506001821660008114614018576001811461402d57614060565b60ff1983168652811515820286019350614060565b61403685613d3e565b60005b8381101561405857815481890152600182019150602081019050614039565b838801955050505b50505092915050565b600061407482612ee9565b61407e8185613fdb565b935061408e818560208601612f05565b80840191505092915050565b7f2e6a736f6e000000000000000000000000000000000000000000000000000000600082015250565b60006140d0600583613fdb565b91506140db8261409a565b600582019050919050565b60006140f28285613fe6565b91506140fe8284614069565b9150614109826140c3565b91508190509392505050565b600060408201905061412a60008301856137e0565b61413760208301846137e0565b9392505050565b7f5553445420707572636861736573206172652064697361626c65640000000000600082015250565b6000614174601b83612ef4565b915061417f8261413e565b602082019050919050565b600060208201905081810360008301526141a381614167565b9050919050565b7f55534454207472616e73666572206661696c6564000000000000000000000000600082015250565b60006141e0601483612ef4565b91506141eb826141aa565b602082019050919050565b6000602082019050818103600083015261420f816141d3565b9050919050565b60008151905061422581612d3f565b92915050565b60006020828403121561424157614240612ccd565b5b600061424f84828501614216565b91505092915050565b7f496e73756666696369656e742062616c616e636520666f72207769746864726160008201527f77616c0000000000000000000000000000000000000000000000000000000000602082015250565b60006142b4602383612ef4565b91506142bf82614258565b604082019050919050565b600060208201905081810360008301526142e3816142a7565b9050919050565b60006040820190506142ff60008301856137e0565b61430c6020830184612dab565b9392505050565b7f5769746864726177616c206661696c6564000000000000000000000000000000600082015250565b6000614349601183612ef4565b915061435482614313565b602082019050919050565b600060208201905081810360008301526143788161433c565b9050919050565b60006040820190506143946000830185612dab565b6143a16020830184612ebf565b9392505050565b7f4e487b7100000000000000000000000000000000000000000000000000000000600052601260045260246000fd5b60006080820190506143ec60008301876137e0565b6143f96020830186612dab565b6144066040830185612dab565b6144136060830184612dab565b95945050505050565b6000604082019050818103600083015261443681856135fc565b9050818103602083015261444a81846135fc565b90509392505050565b600081519050919050565b600082825260208201905092915050565b600061447a82614453565b614484818561445e565b9350614494818560208601612f05565b61449d81612f2f565b840191505092915050565b600060a0820190506144bd60008301886137e0565b6144ca60208301876137e0565b6144d76040830186612dab565b6144e46060830185612dab565b81810360808301526144f6818461446f565b90509695505050505050565b60008151905061451181612e66565b92915050565b60006020828403121561452d5761452c612ccd565b5b600061453b84828501614502565b91505092915050565b600060a08201905061455960008301886137e0565b61456660208301876137e0565b818103604083015261457881866135fc565b9050818103606083015261458c81856135fc565b905081810360808301526145a0818461446f565b9050969550505050505056fea264697066735822122054800794cc91c71f89d57eb5229388b0f9882fb6657706bbd53455e85ec2591164736f6c63430008140033","opcodes":"PUSH1 0x80 PUSH1 0x40 MSTORE PUSH1 0x40 MLOAD DUP1 PUSH1 0x40 ADD PUSH1 0x40 MSTORE DUP1 PUSH1 0x10 DUP2 MSTORE PUSH1 0x20 ADD PUSH32 0x4D6172732D5820436F6D6D756E69747900000000000000000000000000000000 DUP2 MSTORE POP PUSH1 0x5 SWAP1 DUP2 PUSH3 0x4A SWAP2 SWAP1 PUSH3 0x585 JUMP JUMPDEST POP PUSH1 0x40 MLOAD DUP1 PUSH1 0x40 ADD PUSH1 0x40 MSTORE DUP1 PUSH1 0x3 DUP2 MSTORE PUSH1 0x20 ADD PUSH32 0x4D58430000000000000000000000000000000000000000000000000000000000 DUP2 MSTORE POP PUSH1 0x6 SWAP1 DUP2 PUSH3 0x91 SWAP2 SWAP1 PUSH3 0x585 JUMP JUMPDEST POP PUSH1 0x1 PUSH1 0xB PUSH1 0x0 PUSH2 0x100 EXP DUP2 SLOAD DUP2 PUSH1 0xFF MUL NOT AND SWAP1 DUP4 ISZERO ISZERO MUL OR SWAP1 SSTORE POP CALLVALUE DUP1 ISZERO PUSH3 0xBA JUMPI PUSH1 0x0 DUP1 REVERT JUMPDEST POP PUSH1 0x40 MLOAD PUSH3 0x4F2D CODESIZE SUB DUP1 PUSH3 0x4F2D DUP4 CODECOPY DUP2 DUP2 ADD PUSH1 0x40 MSTORE DUP2 ADD SWAP1 PUSH3 0xE0 SWAP2 SWAP1 PUSH3 0x866 JUMP JUMPDEST CALLER DUP4 PUSH3 0xF3 DUP2 PUSH3 0x230 PUSH1 0x20 SHL PUSH1 0x20 SHR JUMP JUMPDEST POP PUSH1 0x0 PUSH20 0xFFFFFFFFFFFFFFFFFFFFFFFFFFFFFFFFFFFFFFFF AND DUP2 PUSH20 0xFFFFFFFFFFFFFFFFFFFFFFFFFFFFFFFFFFFFFFFF AND SUB PUSH3 0x169 JUMPI PUSH1 0x0 PUSH1 0x40 MLOAD PUSH32 0x1E4FBDF700000000000000000000000000000000000000000000000000000000 DUP2 MSTORE PUSH1 0x4 ADD PUSH3 0x160 SWAP2 SWAP1 PUSH3 0x91E JUMP JUMPDEST PUSH1 0x40 MLOAD DUP1 SWAP2 SUB SWAP1 REVERT JUMPDEST PUSH3 0x17A DUP2 PUSH3 0x245 PUSH1 0x20 SHL PUSH1 0x20 SHR JUMP JUMPDEST POP PUSH1 0x1 PUSH1 0x4 DUP2 SWAP1 SSTORE POP DUP5 PUSH1 0xD PUSH1 0x0 PUSH2 0x100 EXP DUP2 SLOAD DUP2 PUSH20 0xFFFFFFFFFFFFFFFFFFFFFFFFFFFFFFFFFFFFFFFF MUL NOT AND SWAP1 DUP4 PUSH20 0xFFFFFFFFFFFFFFFFFFFFFFFFFFFFFFFFFFFFFFFF AND MUL OR SWAP1 SSTORE POP DUP4 PUSH1 0xE PUSH1 0x0 PUSH2 0x100 EXP DUP2 SLOAD DUP2 PUSH20 0xFFFFFFFFFFFFFFFFFFFFFFFFFFFFFFFFFFFFFFFF MUL NOT AND SWAP1 DUP4 PUSH20 0xFFFFFFFFFFFFFFFFFFFFFFFFFFFFFFFFFFFFFFFF AND MUL OR SWAP1 SSTORE POP DUP3 PUSH1 0xC SWAP1 DUP2 PUSH3 0x216 SWAP2 SWAP1 PUSH3 0x585 JUMP JUMPDEST POP DUP1 PUSH1 0x7 DUP2 SWAP1 SSTORE POP DUP2 PUSH1 0x8 DUP2 SWAP1 SSTORE POP POP POP POP POP POP PUSH3 0x93B JUMP JUMPDEST DUP1 PUSH1 0x2 SWAP1 DUP2 PUSH3 0x241 SWAP2 SWAP1 PUSH3 0x585 JUMP JUMPDEST POP POP JUMP JUMPDEST PUSH1 0x0 PUSH1 0x3 PUSH1 0x0 SWAP1 SLOAD SWAP1 PUSH2 0x100 EXP SWAP1 DIV PUSH20 0xFFFFFFFFFFFFFFFFFFFFFFFFFFFFFFFFFFFFFFFF AND SWAP1 POP DUP2 PUSH1 0x3 PUSH1 0x0 PUSH2 0x100 EXP DUP2 SLOAD DUP2 PUSH20 0xFFFFFFFFFFFFFFFFFFFFFFFFFFFFFFFFFFFFFFFF MUL NOT AND SWAP1 DUP4 PUSH20 0xFFFFFFFFFFFFFFFFFFFFFFFFFFFFFFFFFFFFFFFF AND MUL OR SWAP1 SSTORE POP DUP2 PUSH20 0xFFFFFFFFFFFFFFFFFFFFFFFFFFFFFFFFFFFFFFFF AND DUP2 PUSH20 0xFFFFFFFFFFFFFFFFFFFFFFFFFFFFFFFFFFFFFFFF AND PUSH32 0x8BE0079C531659141344CD1FD0A4F28419497F9722A3DAAFE3B4186F6B6457E0 PUSH1 0x40 MLOAD PUSH1 0x40 MLOAD DUP1 SWAP2 SUB SWAP1 LOG3 POP POP JUMP JUMPDEST PUSH1 0x0 DUP2 MLOAD SWAP1 POP SWAP2 SWAP1 POP JUMP JUMPDEST PUSH32 0x4E487B7100000000000000000000000000000000000000000000000000000000 PUSH1 0x0 MSTORE PUSH1 0x41 PUSH1 0x4 MSTORE PUSH1 0x24 PUSH1 0x0 REVERT JUMPDEST PUSH32 0x4E487B7100000000000000000000000000000000000000000000000000000000 PUSH1 0x0 MSTORE PUSH1 0x22 PUSH1 0x4 MSTORE PUSH1 0x24 PUSH1 0x0 REVERT JUMPDEST PUSH1 0x0 PUSH1 0x2 DUP3 DIV SWAP1 POP PUSH1 0x1 DUP3 AND DUP1 PUSH3 0x38D JUMPI PUSH1 0x7F DUP3 AND SWAP2 POP JUMPDEST PUSH1 0x20 DUP3 LT DUP2 SUB PUSH3 0x3A3 JUMPI PUSH3 0x3A2 PUSH3 0x345 JUMP JUMPDEST JUMPDEST POP SWAP2 SWAP1 POP JUMP JUMPDEST PUSH1 0x0 DUP2 SWAP1 POP DUP2 PUSH1 0x0 MSTORE PUSH1 0x20 PUSH1 0x0 KECCAK256 SWAP1 POP SWAP2 SWAP1 POP JUMP JUMPDEST PUSH1 0x0 PUSH1 0x20 PUSH1 0x1F DUP4 ADD DIV SWAP1 POP SWAP2 SWAP1 POP JUMP JUMPDEST PUSH1 0x0 DUP3 DUP3 SHL SWAP1 POP SWAP3 SWAP2 POP POP JUMP JUMPDEST PUSH1 0x0 PUSH1 0x8 DUP4 MUL PUSH3 0x40D PUSH32 0xFFFFFFFFFFFFFFFFFFFFFFFFFFFFFFFFFFFFFFFFFFFFFFFFFFFFFFFFFFFFFFFF DUP3 PUSH3 0x3CE JUMP JUMPDEST PUSH3 0x419 DUP7 DUP4 PUSH3 0x3CE JUMP JUMPDEST SWAP6 POP DUP1 NOT DUP5 AND SWAP4 POP DUP1 DUP7 AND DUP5 OR SWAP3 POP POP POP SWAP4 SWAP3 POP POP POP JUMP JUMPDEST PUSH1 0x0 DUP2 SWAP1 POP SWAP2 SWAP1 POP JUMP JUMPDEST PUSH1 0x0 DUP2 SWAP1 POP SWAP2 SWAP1 POP JUMP JUMPDEST PUSH1 0x0 PUSH3 0x466 PUSH3 0x460 PUSH3 0x45A DUP5 PUSH3 0x431 JUMP JUMPDEST PUSH3 0x43B JUMP JUMPDEST PUSH3 0x431 JUMP JUMPDEST SWAP1 POP SWAP2 SWAP1 POP JUMP JUMPDEST PUSH1 0x0 DUP2 SWAP1 POP SWAP2 SWAP1 POP JUMP JUMPDEST PUSH3 0x482 DUP4 PUSH3 0x445 JUMP JUMPDEST PUSH3 0x49A PUSH3 0x491 DUP3 PUSH3 0x46D JUMP JUMPDEST DUP5 DUP5 SLOAD PUSH3 0x3DB JUMP JUMPDEST DUP3 SSTORE POP POP POP POP JUMP JUMPDEST PUSH1 0x0 SWAP1 JUMP JUMPDEST PUSH3 0x4B1 PUSH3 0x4A2 JUMP JUMPDEST PUSH3 0x4BE DUP2 DUP5 DUP5 PUSH3 0x477 JUMP JUMPDEST POP POP POP JUMP JUMPDEST JUMPDEST DUP2 DUP2 LT ISZERO PUSH3 0x4E6 JUMPI PUSH3 0x4DA PUSH1 0x0 DUP3 PUSH3 0x4A7 JUMP JUMPDEST PUSH1 0x1 DUP2 ADD SWAP1 POP PUSH3 0x4C4 JUMP JUMPDEST POP POP JUMP JUMPDEST PUSH1 0x1F DUP3 GT ISZERO PUSH3 0x535 JUMPI PUSH3 0x4FF DUP2 PUSH3 0x3A9 JUMP JUMPDEST PUSH3 0x50A DUP5 PUSH3 0x3BE JUMP JUMPDEST DUP2 ADD PUSH1 0x20 DUP6 LT ISZERO PUSH3 0x51A JUMPI DUP2 SWAP1 POP JUMPDEST PUSH3 0x532 PUSH3 0x529 DUP6 PUSH3 0x3BE JUMP JUMPDEST DUP4 ADD DUP3 PUSH3 0x4C3 JUMP JUMPDEST POP POP JUMPDEST POP POP POP JUMP JUMPDEST PUSH1 0x0 DUP3 DUP3 SHR SWAP1 POP SWAP3 SWAP2 POP POP JUMP JUMPDEST PUSH1 0x0 PUSH3 0x55A PUSH1 0x0 NOT DUP5 PUSH1 0x8 MUL PUSH3 0x53A JUMP JUMPDEST NOT DUP1 DUP4 AND SWAP2 POP POP SWAP3 SWAP2 POP POP JUMP JUMPDEST PUSH1 0x0 PUSH3 0x575 DUP4 DUP4 PUSH3 0x547 JUMP JUMPDEST SWAP2 POP DUP3 PUSH1 0x2 MUL DUP3 OR SWAP1 POP SWAP3 SWAP2 POP POP JUMP JUMPDEST PUSH3 0x590 DUP3 PUSH3 0x30B JUMP JUMPDEST PUSH8 0xFFFFFFFFFFFFFFFF DUP2 GT ISZERO PUSH3 0x5AC JUMPI PUSH3 0x5AB PUSH3 0x316 JUMP JUMPDEST JUMPDEST PUSH3 0x5B8 DUP3 SLOAD PUSH3 0x374 JUMP JUMPDEST PUSH3 0x5C5 DUP3 DUP3 DUP6 PUSH3 0x4EA JUMP JUMPDEST PUSH1 0x0 PUSH1 0x20 SWAP1 POP PUSH1 0x1F DUP4 GT PUSH1 0x1 DUP2 EQ PUSH3 0x5FD JUMPI PUSH1 0x0 DUP5 ISZERO PUSH3 0x5E8 JUMPI DUP3 DUP8 ADD MLOAD SWAP1 POP JUMPDEST PUSH3 0x5F4 DUP6 DUP3 PUSH3 0x567 JUMP JUMPDEST DUP7 SSTORE POP PUSH3 0x664 JUMP JUMPDEST PUSH1 0x1F NOT DUP5 AND PUSH3 0x60D DUP7 PUSH3 0x3A9 JUMP JUMPDEST PUSH1 0x0 JUMPDEST DUP3 DUP2 LT ISZERO PUSH3 0x637 JUMPI DUP5 DUP10 ADD MLOAD DUP3 SSTORE PUSH1 0x1 DUP3 ADD SWAP2 POP PUSH1 0x20 DUP6 ADD SWAP5 POP PUSH1 0x20 DUP2 ADD SWAP1 POP PUSH3 0x610 JUMP JUMPDEST DUP7 DUP4 LT ISZERO PUSH3 0x657 JUMPI DUP5 DUP10 ADD MLOAD PUSH3 0x653 PUSH1 0x1F DUP10 AND DUP3 PUSH3 0x547 JUMP JUMPDEST DUP4 SSTORE POP JUMPDEST PUSH1 0x1 PUSH1 0x2 DUP9 MUL ADD DUP9 SSTORE POP POP POP JUMPDEST POP POP POP POP POP POP JUMP JUMPDEST PUSH1 0x0 PUSH1 0x40 MLOAD SWAP1 POP SWAP1 JUMP JUMPDEST PUSH1 0x0 DUP1 REVERT JUMPDEST PUSH1 0x0 DUP1 REVERT JUMPDEST PUSH1 0x0 PUSH20 0xFFFFFFFFFFFFFFFFFFFFFFFFFFFFFFFFFFFFFFFF DUP3 AND SWAP1 POP SWAP2 SWAP1 POP JUMP JUMPDEST PUSH1 0x0 PUSH3 0x6AD DUP3 PUSH3 0x680 JUMP JUMPDEST SWAP1 POP SWAP2 SWAP1 POP JUMP JUMPDEST PUSH3 0x6BF DUP2 PUSH3 0x6A0 JUMP JUMPDEST DUP2 EQ PUSH3 0x6CB JUMPI PUSH1 0x0 DUP1 REVERT JUMPDEST POP JUMP JUMPDEST PUSH1 0x0 DUP2 MLOAD SWAP1 POP PUSH3 0x6DF DUP2 PUSH3 0x6B4 JUMP JUMPDEST SWAP3 SWAP2 POP POP JUMP JUMPDEST PUSH1 0x0 DUP1 REVERT JUMPDEST PUSH1 0x0 DUP1 REVERT JUMPDEST PUSH1 0x0 PUSH1 0x1F NOT PUSH1 0x1F DUP4 ADD AND SWAP1 POP SWAP2 SWAP1 POP JUMP JUMPDEST PUSH3 0x70B DUP3 PUSH3 0x6EF JUMP JUMPDEST DUP2 ADD DUP2 DUP2 LT PUSH8 0xFFFFFFFFFFFFFFFF DUP3 GT OR ISZERO PUSH3 0x72D JUMPI PUSH3 0x72C PUSH3 0x316 JUMP JUMPDEST JUMPDEST DUP1 PUSH1 0x40 MSTORE POP POP POP JUMP JUMPDEST PUSH1 0x0 PUSH3 0x742 PUSH3 0x66C JUMP JUMPDEST SWAP1 POP PUSH3 0x750 DUP3 DUP3 PUSH3 0x700 JUMP JUMPDEST SWAP2 SWAP1 POP JUMP JUMPDEST PUSH1 0x0 PUSH8 0xFFFFFFFFFFFFFFFF DUP3 GT ISZERO PUSH3 0x773 JUMPI PUSH3 0x772 PUSH3 0x316 JUMP JUMPDEST JUMPDEST PUSH3 0x77E DUP3 PUSH3 0x6EF JUMP JUMPDEST SWAP1 POP PUSH1 0x20 DUP2 ADD SWAP1 POP SWAP2 SWAP1 POP JUMP JUMPDEST PUSH1 0x0 JUMPDEST DUP4 DUP2 LT ISZERO PUSH3 0x7AB JUMPI DUP1 DUP3 ADD MLOAD DUP2 DUP5 ADD MSTORE PUSH1 0x20 DUP2 ADD SWAP1 POP PUSH3 0x78E JUMP JUMPDEST PUSH1 0x0 DUP5 DUP5 ADD MSTORE POP POP POP POP JUMP JUMPDEST PUSH1 0x0 PUSH3 0x7CE PUSH3 0x7C8 DUP5 PUSH3 0x755 JUMP JUMPDEST PUSH3 0x736 JUMP JUMPDEST SWAP1 POP DUP3 DUP2 MSTORE PUSH1 0x20 DUP2 ADD DUP5 DUP5 DUP5 ADD GT ISZERO PUSH3 0x7ED JUMPI PUSH3 0x7EC PUSH3 0x6EA JUMP JUMPDEST JUMPDEST PUSH3 0x7FA DUP5 DUP3 DUP6 PUSH3 0x78B JUMP JUMPDEST POP SWAP4 SWAP3 POP POP POP JUMP JUMPDEST PUSH1 0x0 DUP3 PUSH1 0x1F DUP4 ADD SLT PUSH3 0x81A JUMPI PUSH3 0x819 PUSH3 0x6E5 JUMP JUMPDEST JUMPDEST DUP2 MLOAD PUSH3 0x82C DUP5 DUP3 PUSH1 0x20 DUP7 ADD PUSH3 0x7B7 JUMP JUMPDEST SWAP2 POP POP SWAP3 SWAP2 POP POP JUMP JUMPDEST PUSH3 0x840 DUP2 PUSH3 0x431 JUMP JUMPDEST DUP2 EQ PUSH3 0x84C JUMPI PUSH1 0x0 DUP1 REVERT JUMPDEST POP JUMP JUMPDEST PUSH1 0x0 DUP2 MLOAD SWAP1 POP PUSH3 0x860 DUP2 PUSH3 0x835 JUMP JUMPDEST SWAP3 SWAP2 POP POP JUMP JUMPDEST PUSH1 0x0 DUP1 PUSH1 0x0 DUP1 PUSH1 0x0 PUSH1 0xA0 DUP7 DUP9 SUB SLT ISZERO PUSH3 0x885 JUMPI PUSH3 0x884 PUSH3 0x676 JUMP JUMPDEST JUMPDEST PUSH1 0x0 PUSH3 0x895 DUP9 DUP3 DUP10 ADD PUSH3 0x6CE JUMP JUMPDEST SWAP6 POP POP PUSH1 0x20 PUSH3 0x8A8 DUP9 DUP3 DUP10 ADD PUSH3 0x6CE JUMP JUMPDEST SWAP5 POP POP PUSH1 0x40 DUP7 ADD MLOAD PUSH8 0xFFFFFFFFFFFFFFFF DUP2 GT ISZERO PUSH3 0x8CC JUMPI PUSH3 0x8CB PUSH3 0x67B JUMP JUMPDEST JUMPDEST PUSH3 0x8DA DUP9 DUP3 DUP10 ADD PUSH3 0x802 JUMP JUMPDEST SWAP4 POP POP PUSH1 0x60 PUSH3 0x8ED DUP9 DUP3 DUP10 ADD PUSH3 0x84F JUMP JUMPDEST SWAP3 POP POP PUSH1 0x80 PUSH3 0x900 DUP9 DUP3 DUP10 ADD PUSH3 0x84F JUMP JUMPDEST SWAP2 POP POP SWAP3 SWAP6 POP SWAP3 SWAP6 SWAP1 SWAP4 POP JUMP JUMPDEST PUSH3 0x918 DUP2 PUSH3 0x6A0 JUMP JUMPDEST DUP3 MSTORE POP POP JUMP JUMPDEST PUSH1 0x0 PUSH1 0x20 DUP3 ADD SWAP1 POP PUSH3 0x935 PUSH1 0x0 DUP4 ADD DUP5 PUSH3 0x90D JUMP JUMPDEST SWAP3 SWAP2 POP POP JUMP JUMPDEST PUSH2 0x45E2 DUP1 PUSH3 0x94B PUSH1 0x0 CODECOPY PUSH1 0x0 RETURN INVALID PUSH1 0x80 PUSH1 0x40 MSTORE CALLVALUE DUP1 ISZERO PUSH2 0x10 JUMPI PUSH1 0x0 DUP1 REVERT JUMPDEST POP PUSH1 0x4 CALLDATASIZE LT PUSH2 0x1C3 JUMPI PUSH1 0x0 CALLDATALOAD PUSH1 0xE0 SHR DUP1 PUSH4 0x8DA5CB5B GT PUSH2 0xF9 JUMPI DUP1 PUSH4 0xB92C6784 GT PUSH2 0x97 JUMPI DUP1 PUSH4 0xE9FECDD2 GT PUSH2 0x71 JUMPI DUP1 PUSH4 0xE9FECDD2 EQ PUSH2 0x506 JUMPI DUP1 PUSH4 0xF242432A EQ PUSH2 0x524 JUMPI DUP1 PUSH4 0xF2909555 EQ PUSH2 0x540 JUMPI DUP1 PUSH4 0xF2FDE38B EQ PUSH2 0x55C JUMPI PUSH2 0x1C3 JUMP JUMPDEST DUP1 PUSH4 0xB92C6784 EQ PUSH2 0x486 JUMPI DUP1 PUSH4 0xE136F65F EQ PUSH2 0x4B8 JUMPI DUP1 PUSH4 0xE985E9C5 EQ PUSH2 0x4D6 JUMPI PUSH2 0x1C3 JUMP JUMPDEST DUP1 PUSH4 0xA22CB465 GT PUSH2 0xD3 JUMPI DUP1 PUSH4 0xA22CB465 EQ PUSH2 0x400 JUMPI DUP1 PUSH4 0xA37DAFB3 EQ PUSH2 0x41C JUMPI DUP1 PUSH4 0xA98AD46C EQ PUSH2 0x44C JUMPI DUP1 PUSH4 0xAC4013BE EQ PUSH2 0x46A JUMPI PUSH2 0x1C3 JUMP JUMPDEST DUP1 PUSH4 0x8DA5CB5B EQ PUSH2 0x3A8 JUMPI DUP1 PUSH4 0x95D89B41 EQ PUSH2 0x3C6 JUMPI DUP1 PUSH4 0x98FCCA60 EQ PUSH2 0x3E4 JUMPI PUSH2 0x1C3 JUMP JUMPDEST DUP1 PUSH4 0x2644CD5C GT PUSH2 0x166 JUMPI DUP1 PUSH4 0x52A51262 GT PUSH2 0x140 JUMPI DUP1 PUSH4 0x52A51262 EQ PUSH2 0x346 JUMPI DUP1 PUSH4 0x55F804B3 EQ PUSH2 0x364 JUMPI DUP1 PUSH4 0x6EDD4506 EQ PUSH2 0x380 JUMPI DUP1 PUSH4 0x715018A6 EQ PUSH2 0x39E JUMPI PUSH2 0x1C3 JUMP JUMPDEST DUP1 PUSH4 0x2644CD5C EQ PUSH2 0x2CA JUMPI DUP1 PUSH4 0x2EB2C2D6 EQ PUSH2 0x2FA JUMPI DUP1 PUSH4 0x4E1273F4 EQ PUSH2 0x316 JUMPI PUSH2 0x1C3 JUMP JUMPDEST DUP1 PUSH4 0x6FDDE03 GT PUSH2 0x1A2 JUMPI DUP1 PUSH4 0x6FDDE03 EQ PUSH2 0x244 JUMPI DUP1 PUSH4 0x91271C3 EQ PUSH2 0x262 JUMPI DUP1 PUSH4 0xE89341C EQ PUSH2 0x27E JUMPI DUP1 PUSH4 0xEF31451 EQ PUSH2 0x2AE JUMPI PUSH2 0x1C3 JUMP JUMPDEST DUP1 PUSH3 0xFDD58E EQ PUSH2 0x1C8 JUMPI DUP1 PUSH4 0x1DC2627 EQ PUSH2 0x1F8 JUMPI DUP1 PUSH4 0x1FFC9A7 EQ PUSH2 0x214 JUMPI JUMPDEST PUSH1 0x0 DUP1 REVERT JUMPDEST PUSH2 0x1E2 PUSH1 0x4 DUP1 CALLDATASIZE SUB DUP2 ADD SWAP1 PUSH2 0x1DD SWAP2 SWAP1 PUSH2 0x2D6B JUMP JUMPDEST PUSH2 0x578 JUMP JUMPDEST PUSH1 0x40 MLOAD PUSH2 0x1EF SWAP2 SWAP1 PUSH2 0x2DBA JUMP JUMPDEST PUSH1 0x40 MLOAD DUP1 SWAP2 SUB SWAP1 RETURN JUMPDEST PUSH2 0x212 PUSH1 0x4 DUP1 CALLDATASIZE SUB DUP2 ADD SWAP1 PUSH2 0x20D SWAP2 SWAP1 PUSH2 0x2E0D JUMP JUMPDEST PUSH2 0x5D2 JUMP JUMPDEST STOP JUMPDEST PUSH2 0x22E PUSH1 0x4 DUP1 CALLDATASIZE SUB DUP2 ADD SWAP1 PUSH2 0x229 SWAP2 SWAP1 PUSH2 0x2E92 JUMP JUMPDEST PUSH2 0x5F7 JUMP JUMPDEST PUSH1 0x40 MLOAD PUSH2 0x23B SWAP2 SWAP1 PUSH2 0x2ECE JUMP JUMPDEST PUSH1 0x40 MLOAD DUP1 SWAP2 SUB SWAP1 RETURN JUMPDEST PUSH2 0x24C PUSH2 0x6D9 JUMP JUMPDEST PUSH1 0x40 MLOAD PUSH2 0x259 SWAP2 SWAP1 PUSH2 0x2F79 JUMP JUMPDEST PUSH1 0x40 MLOAD DUP1 SWAP2 SUB SWAP1 RETURN JUMPDEST PUSH2 0x27C PUSH1 0x4 DUP1 CALLDATASIZE SUB DUP2 ADD SWAP1 PUSH2 0x277 SWAP2 SWAP1 PUSH2 0x2F9B JUMP JUMPDEST PUSH2 0x767 JUMP JUMPDEST STOP JUMPDEST PUSH2 0x298 PUSH1 0x4 DUP1 CALLDATASIZE SUB DUP2 ADD SWAP1 PUSH2 0x293 SWAP2 SWAP1 PUSH2 0x2FDB JUMP JUMPDEST PUSH2 0xBD0 JUMP JUMPDEST PUSH1 0x40 MLOAD PUSH2 0x2A5 SWAP2 SWAP1 PUSH2 0x2F79 JUMP JUMPDEST PUSH1 0x40 MLOAD DUP1 SWAP2 SUB SWAP1 RETURN JUMPDEST PUSH2 0x2C8 PUSH1 0x4 DUP1 CALLDATASIZE SUB DUP2 ADD SWAP1 PUSH2 0x2C3 SWAP2 SWAP1 PUSH2 0x2FDB JUMP JUMPDEST PUSH2 0xC04 JUMP JUMPDEST STOP JUMPDEST PUSH2 0x2E4 PUSH1 0x4 DUP1 CALLDATASIZE SUB DUP2 ADD SWAP1 PUSH2 0x2DF SWAP2 SWAP1 PUSH2 0x2FDB JUMP JUMPDEST PUSH2 0xC16 JUMP JUMPDEST PUSH1 0x40 MLOAD PUSH2 0x2F1 SWAP2 SWAP1 PUSH2 0x3182 JUMP JUMPDEST PUSH1 0x40 MLOAD DUP1 SWAP2 SUB SWAP1 RETURN JUMPDEST PUSH2 0x314 PUSH1 0x4 DUP1 CALLDATASIZE SUB DUP2 ADD SWAP1 PUSH2 0x30F SWAP2 SWAP1 PUSH2 0x33A1 JUMP JUMPDEST PUSH2 0xD7A JUMP JUMPDEST STOP JUMPDEST PUSH2 0x330 PUSH1 0x4 DUP1 CALLDATASIZE SUB DUP2 ADD SWAP1 PUSH2 0x32B SWAP2 SWAP1 PUSH2 0x3533 JUMP JUMPDEST PUSH2 0xE22 JUMP JUMPDEST PUSH1 0x40 MLOAD PUSH2 0x33D SWAP2 SWAP1 PUSH2 0x365A JUMP JUMPDEST PUSH1 0x40 MLOAD DUP1 SWAP2 SUB SWAP1 RETURN JUMPDEST PUSH2 0x34E PUSH2 0xF31 JUMP JUMPDEST PUSH1 0x40 MLOAD PUSH2 0x35B SWAP2 SWAP1 PUSH2 0x36DB JUMP JUMPDEST PUSH1 0x40 MLOAD DUP1 SWAP2 SUB SWAP1 RETURN JUMPDEST PUSH2 0x37E PUSH1 0x4 DUP1 CALLDATASIZE SUB DUP2 ADD SWAP1 PUSH2 0x379 SWAP2 SWAP1 PUSH2 0x3797 JUMP JUMPDEST PUSH2 0xF57 JUMP JUMPDEST STOP JUMPDEST PUSH2 0x388 PUSH2 0xFA9 JUMP JUMPDEST PUSH1 0x40 MLOAD PUSH2 0x395 SWAP2 SWAP1 PUSH2 0x2ECE JUMP JUMPDEST PUSH1 0x40 MLOAD DUP1 SWAP2 SUB SWAP1 RETURN JUMPDEST PUSH2 0x3A6 PUSH2 0xFBC JUMP JUMPDEST STOP JUMPDEST PUSH2 0x3B0 PUSH2 0xFD0 JUMP JUMPDEST PUSH1 0x40 MLOAD PUSH2 0x3BD SWAP2 SWAP1 PUSH2 0x37EF JUMP JUMPDEST PUSH1 0x40 MLOAD DUP1 SWAP2 SUB SWAP1 RETURN JUMPDEST PUSH2 0x3CE PUSH2 0xFFA JUMP JUMPDEST PUSH1 0x40 MLOAD PUSH2 0x3DB SWAP2 SWAP1 PUSH2 0x2F79 JUMP JUMPDEST PUSH1 0x40 MLOAD DUP1 SWAP2 SUB SWAP1 RETURN JUMPDEST PUSH2 0x3FE PUSH1 0x4 DUP1 CALLDATASIZE SUB DUP2 ADD SWAP1 PUSH2 0x3F9 SWAP2 SWAP1 PUSH2 0x2F9B JUMP JUMPDEST PUSH2 0x1088 JUMP JUMPDEST STOP JUMPDEST PUSH2 0x41A PUSH1 0x4 DUP1 CALLDATASIZE SUB DUP2 ADD SWAP1 PUSH2 0x415 SWAP2 SWAP1 PUSH2 0x380A JUMP JUMPDEST PUSH2 0x1540 JUMP JUMPDEST STOP JUMPDEST PUSH2 0x436 PUSH1 0x4 DUP1 CALLDATASIZE SUB DUP2 ADD SWAP1 PUSH2 0x431 SWAP2 SWAP1 PUSH2 0x2FDB JUMP JUMPDEST PUSH2 0x1556 JUMP JUMPDEST PUSH1 0x40 MLOAD PUSH2 0x443 SWAP2 SWAP1 PUSH2 0x2DBA JUMP JUMPDEST PUSH1 0x40 MLOAD DUP1 SWAP2 SUB SWAP1 RETURN JUMPDEST PUSH2 0x454 PUSH2 0x156E JUMP JUMPDEST PUSH1 0x40 MLOAD PUSH2 0x461 SWAP2 SWAP1 PUSH2 0x36DB JUMP JUMPDEST PUSH1 0x40 MLOAD DUP1 SWAP2 SUB SWAP1 RETURN JUMPDEST PUSH2 0x484 PUSH1 0x4 DUP1 CALLDATASIZE SUB DUP2 ADD SWAP1 PUSH2 0x47F SWAP2 SWAP1 PUSH2 0x384A JUMP JUMPDEST PUSH2 0x1594 JUMP JUMPDEST STOP JUMPDEST PUSH2 0x4A0 PUSH1 0x4 DUP1 CALLDATASIZE SUB DUP2 ADD SWAP1 PUSH2 0x49B SWAP2 SWAP1 PUSH2 0x2F9B JUMP JUMPDEST PUSH2 0x1998 JUMP JUMPDEST PUSH1 0x40 MLOAD PUSH2 0x4AF SWAP4 SWAP3 SWAP2 SWAP1 PUSH2 0x389D JUMP JUMPDEST PUSH1 0x40 MLOAD DUP1 SWAP2 SUB SWAP1 RETURN JUMPDEST PUSH2 0x4C0 PUSH2 0x1A87 JUMP JUMPDEST PUSH1 0x40 MLOAD PUSH2 0x4CD SWAP2 SWAP1 PUSH2 0x2DBA JUMP JUMPDEST PUSH1 0x40 MLOAD DUP1 SWAP2 SUB SWAP1 RETURN JUMPDEST PUSH2 0x4F0 PUSH1 0x4 DUP1 CALLDATASIZE SUB DUP2 ADD SWAP1 PUSH2 0x4EB SWAP2 SWAP1 PUSH2 0x38DB JUMP JUMPDEST PUSH2 0x1A8D JUMP JUMPDEST PUSH1 0x40 MLOAD PUSH2 0x4FD SWAP2 SWAP1 PUSH2 0x2ECE JUMP JUMPDEST PUSH1 0x40 MLOAD DUP1 SWAP2 SUB SWAP1 RETURN JUMPDEST PUSH2 0x50E PUSH2 0x1B21 JUMP JUMPDEST PUSH1 0x40 MLOAD PUSH2 0x51B SWAP2 SWAP1 PUSH2 0x2DBA JUMP JUMPDEST PUSH1 0x40 MLOAD DUP1 SWAP2 SUB SWAP1 RETURN JUMPDEST PUSH2 0x53E PUSH1 0x4 DUP1 CALLDATASIZE SUB DUP2 ADD SWAP1 PUSH2 0x539 SWAP2 SWAP1 PUSH2 0x391B JUMP JUMPDEST PUSH2 0x1B27 JUMP JUMPDEST STOP JUMPDEST PUSH2 0x55A PUSH1 0x4 DUP1 CALLDATASIZE SUB DUP2 ADD SWAP1 PUSH2 0x555 SWAP2 SWAP1 PUSH2 0x2FDB JUMP JUMPDEST PUSH2 0x1BCF JUMP JUMPDEST STOP JUMPDEST PUSH2 0x576 PUSH1 0x4 DUP1 CALLDATASIZE SUB DUP2 ADD SWAP1 PUSH2 0x571 SWAP2 SWAP1 PUSH2 0x39B2 JUMP JUMPDEST PUSH2 0x1BE1 JUMP JUMPDEST STOP JUMPDEST PUSH1 0x0 DUP1 PUSH1 0x0 DUP4 DUP2 MSTORE PUSH1 0x20 ADD SWAP1 DUP2 MSTORE PUSH1 0x20 ADD PUSH1 0x0 KECCAK256 PUSH1 0x0 DUP5 PUSH20 0xFFFFFFFFFFFFFFFFFFFFFFFFFFFFFFFFFFFFFFFF AND PUSH20 0xFFFFFFFFFFFFFFFFFFFFFFFFFFFFFFFFFFFFFFFF AND DUP2 MSTORE PUSH1 0x20 ADD SWAP1 DUP2 MSTORE PUSH1 0x20 ADD PUSH1 0x0 KECCAK256 SLOAD SWAP1 POP SWAP3 SWAP2 POP POP JUMP JUMPDEST PUSH2 0x5DA PUSH2 0x1C67 JUMP JUMPDEST DUP1 PUSH1 0xB PUSH1 0x0 PUSH2 0x100 EXP DUP2 SLOAD DUP2 PUSH1 0xFF MUL NOT AND SWAP1 DUP4 ISZERO ISZERO MUL OR SWAP1 SSTORE POP POP JUMP JUMPDEST PUSH1 0x0 PUSH32 0xD9B67A2600000000000000000000000000000000000000000000000000000000 PUSH28 0xFFFFFFFFFFFFFFFFFFFFFFFFFFFFFFFFFFFFFFFFFFFFFFFFFFFFFFFF NOT AND DUP3 PUSH28 0xFFFFFFFFFFFFFFFFFFFFFFFFFFFFFFFFFFFFFFFFFFFFFFFFFFFFFFFF NOT AND EQ DUP1 PUSH2 0x6C2 JUMPI POP PUSH32 0xE89341C00000000000000000000000000000000000000000000000000000000 PUSH28 0xFFFFFFFFFFFFFFFFFFFFFFFFFFFFFFFFFFFFFFFFFFFFFFFFFFFFFFFF NOT AND DUP3 PUSH28 0xFFFFFFFFFFFFFFFFFFFFFFFFFFFFFFFFFFFFFFFFFFFFFFFFFFFFFFFF NOT AND EQ JUMPDEST DUP1 PUSH2 0x6D2 JUMPI POP PUSH2 0x6D1 DUP3 PUSH2 0x1CEE JUMP JUMPDEST JUMPDEST SWAP1 POP SWAP2 SWAP1 POP JUMP JUMPDEST PUSH1 0x5 DUP1 SLOAD PUSH2 0x6E6 SWAP1 PUSH2 0x3A0E JUMP JUMPDEST DUP1 PUSH1 0x1F ADD PUSH1 0x20 DUP1 SWAP2 DIV MUL PUSH1 0x20 ADD PUSH1 0x40 MLOAD SWAP1 DUP2 ADD PUSH1 0x40 MSTORE DUP1 SWAP3 SWAP2 SWAP1 DUP2 DUP2 MSTORE PUSH1 0x20 ADD DUP3 DUP1 SLOAD PUSH2 0x712 SWAP1 PUSH2 0x3A0E JUMP JUMPDEST DUP1 ISZERO PUSH2 0x75F JUMPI DUP1 PUSH1 0x1F LT PUSH2 0x734 JUMPI PUSH2 0x100 DUP1 DUP4 SLOAD DIV MUL DUP4 MSTORE SWAP2 PUSH1 0x20 ADD SWAP2 PUSH2 0x75F JUMP JUMPDEST DUP3 ADD SWAP2 SWAP1 PUSH1 0x0 MSTORE PUSH1 0x20 PUSH1 0x0 KECCAK256 SWAP1 JUMPDEST DUP2 SLOAD DUP2 MSTORE SWAP1 PUSH1 0x1 ADD SWAP1 PUSH1 0x20 ADD DUP1 DUP4 GT PUSH2 0x742 JUMPI DUP3 SWAP1 SUB PUSH1 0x1F AND DUP3 ADD SWAP2 JUMPDEST POP POP POP POP POP DUP2 JUMP JUMPDEST PUSH2 0x76F PUSH2 0x1D58 JUMP JUMPDEST PUSH1 0x0 DUP2 GT PUSH2 0x7B2 JUMPI PUSH1 0x40 MLOAD PUSH32 0x8C379A000000000000000000000000000000000000000000000000000000000 DUP2 MSTORE PUSH1 0x4 ADD PUSH2 0x7A9 SWAP1 PUSH2 0x3AB1 JUMP JUMPDEST PUSH1 0x40 MLOAD DUP1 SWAP2 SUB SWAP1 REVERT JUMPDEST PUSH1 0xA DUP2 PUSH1 0xA PUSH1 0x0 DUP6 DUP2 MSTORE PUSH1 0x20 ADD SWAP1 DUP2 MSTORE PUSH1 0x20 ADD PUSH1 0x0 KECCAK256 SLOAD PUSH2 0x7D3 SWAP2 SWAP1 PUSH2 0x3B00 JUMP JUMPDEST GT ISZERO PUSH2 0x814 JUMPI PUSH1 0x40 MLOAD PUSH32 0x8C379A000000000000000000000000000000000000000000000000000000000 DUP2 MSTORE PUSH1 0x4 ADD PUSH2 0x80B SWAP1 PUSH2 0x3B80 JUMP JUMPDEST PUSH1 0x40 MLOAD DUP1 SWAP2 SUB SWAP1 REVERT JUMPDEST PUSH1 0x0 DUP2 PUSH1 0x8 SLOAD PUSH2 0x824 SWAP2 SWAP1 PUSH2 0x3BA0 JUMP JUMPDEST SWAP1 POP PUSH1 0xE PUSH1 0x0 SWAP1 SLOAD SWAP1 PUSH2 0x100 EXP SWAP1 DIV PUSH20 0xFFFFFFFFFFFFFFFFFFFFFFFFFFFFFFFFFFFFFFFF AND PUSH20 0xFFFFFFFFFFFFFFFFFFFFFFFFFFFFFFFFFFFFFFFF AND PUSH4 0x23B872DD CALLER ADDRESS DUP5 PUSH1 0x40 MLOAD DUP5 PUSH4 0xFFFFFFFF AND PUSH1 0xE0 SHL DUP2 MSTORE PUSH1 0x4 ADD PUSH2 0x885 SWAP4 SWAP3 SWAP2 SWAP1 PUSH2 0x3BE2 JUMP JUMPDEST PUSH1 0x20 PUSH1 0x40 MLOAD DUP1 DUP4 SUB DUP2 PUSH1 0x0 DUP8 GAS CALL ISZERO DUP1 ISZERO PUSH2 0x8A4 JUMPI RETURNDATASIZE PUSH1 0x0 DUP1 RETURNDATACOPY RETURNDATASIZE PUSH1 0x0 REVERT JUMPDEST POP POP POP POP PUSH1 0x40 MLOAD RETURNDATASIZE PUSH1 0x1F NOT PUSH1 0x1F DUP3 ADD AND DUP3 ADD DUP1 PUSH1 0x40 MSTORE POP DUP2 ADD SWAP1 PUSH2 0x8C8 SWAP2 SWAP1 PUSH2 0x3C2E JUMP JUMPDEST PUSH2 0x907 JUMPI PUSH1 0x40 MLOAD PUSH32 0x8C379A000000000000000000000000000000000000000000000000000000000 DUP2 MSTORE PUSH1 0x4 ADD PUSH2 0x8FE SWAP1 PUSH2 0x3CA7 JUMP JUMPDEST PUSH1 0x40 MLOAD DUP1 SWAP2 SUB SWAP1 REVERT JUMPDEST DUP2 PUSH1 0xA PUSH1 0x0 DUP6 DUP2 MSTORE PUSH1 0x20 ADD SWAP1 DUP2 MSTORE PUSH1 0x20 ADD PUSH1 0x0 KECCAK256 PUSH1 0x0 DUP3 DUP3 SLOAD PUSH2 0x92A SWAP2 SWAP1 PUSH2 0x3B00 JUMP JUMPDEST SWAP3 POP POP DUP2 SWAP1 SSTORE POP PUSH2 0x94C CALLER DUP5 DUP5 PUSH1 0x40 MLOAD DUP1 PUSH1 0x20 ADD PUSH1 0x40 MSTORE DUP1 PUSH1 0x0 DUP2 MSTORE POP PUSH2 0x1D9E JUMP JUMPDEST PUSH1 0x0 DUP1 JUMPDEST PUSH1 0x9 PUSH1 0x0 DUP7 DUP2 MSTORE PUSH1 0x20 ADD SWAP1 DUP2 MSTORE PUSH1 0x20 ADD PUSH1 0x0 KECCAK256 DUP1 SLOAD SWAP1 POP DUP2 LT ISZERO PUSH2 0xA60 JUMPI CALLER PUSH20 0xFFFFFFFFFFFFFFFFFFFFFFFFFFFFFFFFFFFFFFFF AND PUSH1 0x9 PUSH1 0x0 DUP8 DUP2 MSTORE PUSH1 0x20 ADD SWAP1 DUP2 MSTORE PUSH1 0x20 ADD PUSH1 0x0 KECCAK256 DUP3 DUP2 SLOAD DUP2 LT PUSH2 0x9AA JUMPI PUSH2 0x9A9 PUSH2 0x3CC7 JUMP JUMPDEST JUMPDEST SWAP1 PUSH1 0x0 MSTORE PUSH1 0x20 PUSH1 0x0 KECCAK256 SWAP1 PUSH1 0x3 MUL ADD PUSH1 0x0 ADD PUSH1 0x0 SWAP1 SLOAD SWAP1 PUSH2 0x100 EXP SWAP1 DIV PUSH20 0xFFFFFFFFFFFFFFFFFFFFFFFFFFFFFFFFFFFFFFFF AND PUSH20 0xFFFFFFFFFFFFFFFFFFFFFFFFFFFFFFFFFFFFFFFF AND SUB PUSH2 0xA4D JUMPI DUP4 PUSH1 0x9 PUSH1 0x0 DUP8 DUP2 MSTORE PUSH1 0x20 ADD SWAP1 DUP2 MSTORE PUSH1 0x20 ADD PUSH1 0x0 KECCAK256 DUP3 DUP2 SLOAD DUP2 LT PUSH2 0xA1D JUMPI PUSH2 0xA1C PUSH2 0x3CC7 JUMP JUMPDEST JUMPDEST SWAP1 PUSH1 0x0 MSTORE PUSH1 0x20 PUSH1 0x0 KECCAK256 SWAP1 PUSH1 0x3 MUL ADD PUSH1 0x1 ADD PUSH1 0x0 DUP3 DUP3 SLOAD PUSH2 0xA3D SWAP2 SWAP1 PUSH2 0x3B00 JUMP JUMPDEST SWAP3 POP POP DUP2 SWAP1 SSTORE POP PUSH1 0x1 SWAP2 POP PUSH2 0xA60 JUMP JUMPDEST DUP1 DUP1 PUSH2 0xA58 SWAP1 PUSH2 0x3CF6 JUMP JUMPDEST SWAP2 POP POP PUSH2 0x950 JUMP JUMPDEST POP DUP1 PUSH2 0xB72 JUMPI PUSH1 0x9 PUSH1 0x0 DUP6 DUP2 MSTORE PUSH1 0x20 ADD SWAP1 DUP2 MSTORE PUSH1 0x20 ADD PUSH1 0x0 KECCAK256 PUSH1 0x40 MLOAD DUP1 PUSH1 0x60 ADD PUSH1 0x40 MSTORE DUP1 CALLER PUSH20 0xFFFFFFFFFFFFFFFFFFFFFFFFFFFFFFFFFFFFFFFF AND DUP2 MSTORE PUSH1 0x20 ADD DUP6 DUP2 MSTORE PUSH1 0x20 ADD PUSH1 0x40 MLOAD DUP1 PUSH1 0x40 ADD PUSH1 0x40 MSTORE DUP1 PUSH1 0x2 DUP2 MSTORE PUSH1 0x20 ADD PUSH32 0x4D58000000000000000000000000000000000000000000000000000000000000 DUP2 MSTORE POP DUP2 MSTORE POP SWAP1 DUP1 PUSH1 0x1 DUP2 SLOAD ADD DUP1 DUP3 SSTORE DUP1 SWAP2 POP POP PUSH1 0x1 SWAP1 SUB SWAP1 PUSH1 0x0 MSTORE PUSH1 0x20 PUSH1 0x0 KECCAK256 SWAP1 PUSH1 0x3 MUL ADD PUSH1 0x0 SWAP1 SWAP2 SWAP1 SWAP2 SWAP1 SWAP2 POP PUSH1 0x0 DUP3 ADD MLOAD DUP2 PUSH1 0x0 ADD PUSH1 0x0 PUSH2 0x100 EXP DUP2 SLOAD DUP2 PUSH20 0xFFFFFFFFFFFFFFFFFFFFFFFFFFFFFFFFFFFFFFFF MUL NOT AND SWAP1 DUP4 PUSH20 0xFFFFFFFFFFFFFFFFFFFFFFFFFFFFFFFFFFFFFFFF AND MUL OR SWAP1 SSTORE POP PUSH1 0x20 DUP3 ADD MLOAD DUP2 PUSH1 0x1 ADD SSTORE PUSH1 0x40 DUP3 ADD MLOAD DUP2 PUSH1 0x2 ADD SWAP1 DUP2 PUSH2 0xB6E SWAP2 SWAP1 PUSH2 0x3EE0 JUMP JUMPDEST POP POP POP JUMPDEST CALLER PUSH20 0xFFFFFFFFFFFFFFFFFFFFFFFFFFFFFFFFFFFFFFFF AND PUSH32 0x4BFA332CFF87C82D5EEC48E5B72C3D89F341F35EF0C47A72E99B2B5D00191E5D DUP6 DUP6 PUSH1 0x40 MLOAD PUSH2 0xBBA SWAP3 SWAP2 SWAP1 PUSH2 0x3FB2 JUMP JUMPDEST PUSH1 0x40 MLOAD DUP1 SWAP2 SUB SWAP1 LOG2 POP POP PUSH2 0xBCC PUSH2 0x1E37 JUMP JUMPDEST POP POP JUMP JUMPDEST PUSH1 0x60 PUSH1 0xC PUSH2 0xBDD DUP4 PUSH2 0x1E41 JUMP JUMPDEST PUSH1 0x40 MLOAD PUSH1 0x20 ADD PUSH2 0xBEE SWAP3 SWAP2 SWAP1 PUSH2 0x40E6 JUMP JUMPDEST PUSH1 0x40 MLOAD PUSH1 0x20 DUP2 DUP4 SUB SUB DUP2 MSTORE SWAP1 PUSH1 0x40 MSTORE SWAP1 POP SWAP2 SWAP1 POP JUMP JUMPDEST PUSH2 0xC0C PUSH2 0x1C67 JUMP JUMPDEST DUP1 PUSH1 0x7 DUP2 SWAP1 SSTORE POP POP JUMP JUMPDEST PUSH1 0x60 PUSH1 0x9 PUSH1 0x0 DUP4 DUP2 MSTORE PUSH1 0x20 ADD SWAP1 DUP2 MSTORE PUSH1 0x20 ADD PUSH1 0x0 KECCAK256 DUP1 SLOAD DUP1 PUSH1 0x20 MUL PUSH1 0x20 ADD PUSH1 0x40 MLOAD SWAP1 DUP2 ADD PUSH1 0x40 MSTORE DUP1 SWAP3 SWAP2 SWAP1 DUP2 DUP2 MSTORE PUSH1 0x20 ADD PUSH1 0x0 SWAP1 JUMPDEST DUP3 DUP3 LT ISZERO PUSH2 0xD6F JUMPI DUP4 DUP3 SWAP1 PUSH1 0x0 MSTORE PUSH1 0x20 PUSH1 0x0 KECCAK256 SWAP1 PUSH1 0x3 MUL ADD PUSH1 0x40 MLOAD DUP1 PUSH1 0x60 ADD PUSH1 0x40 MSTORE SWAP1 DUP2 PUSH1 0x0 DUP3 ADD PUSH1 0x0 SWAP1 SLOAD SWAP1 PUSH2 0x100 EXP SWAP1 DIV PUSH20 0xFFFFFFFFFFFFFFFFFFFFFFFFFFFFFFFFFFFFFFFF AND PUSH20 0xFFFFFFFFFFFFFFFFFFFFFFFFFFFFFFFFFFFFFFFF AND PUSH20 0xFFFFFFFFFFFFFFFFFFFFFFFFFFFFFFFFFFFFFFFF AND DUP2 MSTORE PUSH1 0x20 ADD PUSH1 0x1 DUP3 ADD SLOAD DUP2 MSTORE PUSH1 0x20 ADD PUSH1 0x2 DUP3 ADD DUP1 SLOAD PUSH2 0xCDE SWAP1 PUSH2 0x3A0E JUMP JUMPDEST DUP1 PUSH1 0x1F ADD PUSH1 0x20 DUP1 SWAP2 DIV MUL PUSH1 0x20 ADD PUSH1 0x40 MLOAD SWAP1 DUP2 ADD PUSH1 0x40 MSTORE DUP1 SWAP3 SWAP2 SWAP1 DUP2 DUP2 MSTORE PUSH1 0x20 ADD DUP3 DUP1 SLOAD PUSH2 0xD0A SWAP1 PUSH2 0x3A0E JUMP JUMPDEST DUP1 ISZERO PUSH2 0xD57 JUMPI DUP1 PUSH1 0x1F LT PUSH2 0xD2C JUMPI PUSH2 0x100 DUP1 DUP4 SLOAD DIV MUL DUP4 MSTORE SWAP2 PUSH1 0x20 ADD SWAP2 PUSH2 0xD57 JUMP JUMPDEST DUP3 ADD SWAP2 SWAP1 PUSH1 0x0 MSTORE PUSH1 0x20 PUSH1 0x0 KECCAK256 SWAP1 JUMPDEST DUP2 SLOAD DUP2 MSTORE SWAP1 PUSH1 0x1 ADD SWAP1 PUSH1 0x20 ADD DUP1 DUP4 GT PUSH2 0xD3A JUMPI DUP3 SWAP1 SUB PUSH1 0x1F AND DUP3 ADD SWAP2 JUMPDEST POP POP POP POP POP DUP2 MSTORE POP POP DUP2 MSTORE PUSH1 0x20 ADD SWAP1 PUSH1 0x1 ADD SWAP1 PUSH2 0xC4B JUMP JUMPDEST POP POP POP POP SWAP1 POP SWAP2 SWAP1 POP JUMP JUMPDEST PUSH1 0x0 PUSH2 0xD84 PUSH2 0x1F0F JUMP JUMPDEST SWAP1 POP DUP1 PUSH20 0xFFFFFFFFFFFFFFFFFFFFFFFFFFFFFFFFFFFFFFFF AND DUP7 PUSH20 0xFFFFFFFFFFFFFFFFFFFFFFFFFFFFFFFFFFFFFFFF AND EQ ISZERO DUP1 ISZERO PUSH2 0xDC9 JUMPI POP PUSH2 0xDC7 DUP7 DUP3 PUSH2 0x1A8D JUMP JUMPDEST ISZERO JUMPDEST ISZERO PUSH2 0xE0D JUMPI DUP1 DUP7 PUSH1 0x40 MLOAD PUSH32 0xE237D92200000000000000000000000000000000000000000000000000000000 DUP2 MSTORE PUSH1 0x4 ADD PUSH2 0xE04 SWAP3 SWAP2 SWAP1 PUSH2 0x4115 JUMP JUMPDEST PUSH1 0x40 MLOAD DUP1 SWAP2 SUB SWAP1 REVERT JUMPDEST PUSH2 0xE1A DUP7 DUP7 DUP7 DUP7 DUP7 PUSH2 0x1F17 JUMP JUMPDEST POP POP POP POP POP POP JUMP JUMPDEST PUSH1 0x60 DUP2 MLOAD DUP4 MLOAD EQ PUSH2 0xE6E JUMPI DUP2 MLOAD DUP4 MLOAD PUSH1 0x40 MLOAD PUSH32 0x5B05999100000000000000000000000000000000000000000000000000000000 DUP2 MSTORE PUSH1 0x4 ADD PUSH2 0xE65 SWAP3 SWAP2 SWAP1 PUSH2 0x3FB2 JUMP JUMPDEST PUSH1 0x40 MLOAD DUP1 SWAP2 SUB SWAP1 REVERT JUMPDEST PUSH1 0x0 DUP4 MLOAD PUSH8 0xFFFFFFFFFFFFFFFF DUP2 GT ISZERO PUSH2 0xE8B JUMPI PUSH2 0xE8A PUSH2 0x31A9 JUMP JUMPDEST JUMPDEST PUSH1 0x40 MLOAD SWAP1 DUP1 DUP3 MSTORE DUP1 PUSH1 0x20 MUL PUSH1 0x20 ADD DUP3 ADD PUSH1 0x40 MSTORE DUP1 ISZERO PUSH2 0xEB9 JUMPI DUP2 PUSH1 0x20 ADD PUSH1 0x20 DUP3 MUL DUP1 CALLDATASIZE DUP4 CALLDATACOPY DUP1 DUP3 ADD SWAP2 POP POP SWAP1 POP JUMPDEST POP SWAP1 POP PUSH1 0x0 JUMPDEST DUP5 MLOAD DUP2 LT ISZERO PUSH2 0xF26 JUMPI PUSH2 0xEF6 PUSH2 0xEDE DUP3 DUP8 PUSH2 0x200F SWAP1 SWAP2 SWAP1 PUSH4 0xFFFFFFFF AND JUMP JUMPDEST PUSH2 0xEF1 DUP4 DUP8 PUSH2 0x2023 SWAP1 SWAP2 SWAP1 PUSH4 0xFFFFFFFF AND JUMP JUMPDEST PUSH2 0x578 JUMP JUMPDEST DUP3 DUP3 DUP2 MLOAD DUP2 LT PUSH2 0xF09 JUMPI PUSH2 0xF08 PUSH2 0x3CC7 JUMP JUMPDEST JUMPDEST PUSH1 0x20 MUL PUSH1 0x20 ADD ADD DUP2 DUP2 MSTORE POP POP DUP1 PUSH2 0xF1F SWAP1 PUSH2 0x3CF6 JUMP JUMPDEST SWAP1 POP PUSH2 0xEBF JUMP JUMPDEST POP DUP1 SWAP2 POP POP SWAP3 SWAP2 POP POP JUMP JUMPDEST PUSH1 0xE PUSH1 0x0 SWAP1 SLOAD SWAP1 PUSH2 0x100 EXP SWAP1 DIV PUSH20 0xFFFFFFFFFFFFFFFFFFFFFFFFFFFFFFFFFFFFFFFF AND DUP2 JUMP JUMPDEST PUSH2 0xF5F PUSH2 0x1C67 JUMP JUMPDEST DUP1 PUSH1 0xC SWAP1 DUP2 PUSH2 0xF6E SWAP2 SWAP1 PUSH2 0x3EE0 JUMP JUMPDEST POP PUSH32 0xF9C7803E94E0D3C02900D8A90893A6D5E90DD04D32A4CFE825520F82BF9F32F6 DUP2 PUSH1 0x40 MLOAD PUSH2 0xF9E SWAP2 SWAP1 PUSH2 0x2F79 JUMP JUMPDEST PUSH1 0x40 MLOAD DUP1 SWAP2 SUB SWAP1 LOG1 POP JUMP JUMPDEST PUSH1 0xB PUSH1 0x0 SWAP1 SLOAD SWAP1 PUSH2 0x100 EXP SWAP1 DIV PUSH1 0xFF AND DUP2 JUMP JUMPDEST PUSH2 0xFC4 PUSH2 0x1C67 JUMP JUMPDEST PUSH2 0xFCE PUSH1 0x0 PUSH2 0x2037 JUMP JUMPDEST JUMP JUMPDEST PUSH1 0x0 PUSH1 0x3 PUSH1 0x0 SWAP1 SLOAD SWAP1 PUSH2 0x100 EXP SWAP1 DIV PUSH20 0xFFFFFFFFFFFFFFFFFFFFFFFFFFFFFFFFFFFFFFFF AND SWAP1 POP SWAP1 JUMP JUMPDEST PUSH1 0x6 DUP1 SLOAD PUSH2 0x1007 SWAP1 PUSH2 0x3A0E JUMP JUMPDEST DUP1 PUSH1 0x1F ADD PUSH1 0x20 DUP1 SWAP2 DIV MUL PUSH1 0x20 ADD PUSH1 0x40 MLOAD SWAP1 DUP2 ADD PUSH1 0x40 MSTORE DUP1 SWAP3 SWAP2 SWAP1 DUP2 DUP2 MSTORE PUSH1 0x20 ADD DUP3 DUP1 SLOAD PUSH2 0x1033 SWAP1 PUSH2 0x3A0E JUMP JUMPDEST DUP1 ISZERO PUSH2 0x1080 JUMPI DUP1 PUSH1 0x1F LT PUSH2 0x1055 JUMPI PUSH2 0x100 DUP1 DUP4 SLOAD DIV MUL DUP4 MSTORE SWAP2 PUSH1 0x20 ADD SWAP2 PUSH2 0x1080 JUMP JUMPDEST DUP3 ADD SWAP2 SWAP1 PUSH1 0x0 MSTORE PUSH1 0x20 PUSH1 0x0 KECCAK256 SWAP1 JUMPDEST DUP2 SLOAD DUP2 MSTORE SWAP1 PUSH1 0x1 ADD SWAP1 PUSH1 0x20 ADD DUP1 DUP4 GT PUSH2 0x1063 JUMPI DUP3 SWAP1 SUB PUSH1 0x1F AND DUP3 ADD SWAP2 JUMPDEST POP POP POP POP POP DUP2 JUMP JUMPDEST PUSH2 0x1090 PUSH2 0x1D58 JUMP JUMPDEST PUSH1 0x0 DUP2 GT PUSH2 0x10D3 JUMPI PUSH1 0x40 MLOAD PUSH32 0x8C379A000000000000000000000000000000000000000000000000000000000 DUP2 MSTORE PUSH1 0x4 ADD PUSH2 0x10CA SWAP1 PUSH2 0x3AB1 JUMP JUMPDEST PUSH1 0x40 MLOAD DUP1 SWAP2 SUB SWAP1 REVERT JUMPDEST PUSH1 0xB PUSH1 0x0 SWAP1 SLOAD SWAP1 PUSH2 0x100 EXP SWAP1 DIV PUSH1 0xFF AND PUSH2 0x1122 JUMPI PUSH1 0x40 MLOAD PUSH32 0x8C379A000000000000000000000000000000000000000000000000000000000 DUP2 MSTORE PUSH1 0x4 ADD PUSH2 0x1119 SWAP1 PUSH2 0x418A JUMP JUMPDEST PUSH1 0x40 MLOAD DUP1 SWAP2 SUB SWAP1 REVERT JUMPDEST PUSH1 0xA DUP2 PUSH1 0xA PUSH1 0x0 DUP6 DUP2 MSTORE PUSH1 0x20 ADD SWAP1 DUP2 MSTORE PUSH1 0x20 ADD PUSH1 0x0 KECCAK256 SLOAD PUSH2 0x1143 SWAP2 SWAP1 PUSH2 0x3B00 JUMP JUMPDEST GT ISZERO PUSH2 0x1184 JUMPI PUSH1 0x40 MLOAD PUSH32 0x8C379A000000000000000000000000000000000000000000000000000000000 DUP2 MSTORE PUSH1 0x4 ADD PUSH2 0x117B SWAP1 PUSH2 0x3B80 JUMP JUMPDEST PUSH1 0x40 MLOAD DUP1 SWAP2 SUB SWAP1 REVERT JUMPDEST PUSH1 0x0 DUP2 PUSH1 0x7 SLOAD PUSH2 0x1194 SWAP2 SWAP1 PUSH2 0x3BA0 JUMP JUMPDEST SWAP1 POP PUSH1 0xD PUSH1 0x0 SWAP1 SLOAD SWAP1 PUSH2 0x100 EXP SWAP1 DIV PUSH20 0xFFFFFFFFFFFFFFFFFFFFFFFFFFFFFFFFFFFFFFFF AND PUSH20 0xFFFFFFFFFFFFFFFFFFFFFFFFFFFFFFFFFFFFFFFF AND PUSH4 0x23B872DD CALLER ADDRESS DUP5 PUSH1 0x40 MLOAD DUP5 PUSH4 0xFFFFFFFF AND PUSH1 0xE0 SHL DUP2 MSTORE PUSH1 0x4 ADD PUSH2 0x11F5 SWAP4 SWAP3 SWAP2 SWAP1 PUSH2 0x3BE2 JUMP JUMPDEST PUSH1 0x20 PUSH1 0x40 MLOAD DUP1 DUP4 SUB DUP2 PUSH1 0x0 DUP8 GAS CALL ISZERO DUP1 ISZERO PUSH2 0x1214 JUMPI RETURNDATASIZE PUSH1 0x0 DUP1 RETURNDATACOPY RETURNDATASIZE PUSH1 0x0 REVERT JUMPDEST POP POP POP POP PUSH1 0x40 MLOAD RETURNDATASIZE PUSH1 0x1F NOT PUSH1 0x1F DUP3 ADD AND DUP3 ADD DUP1 PUSH1 0x40 MSTORE POP DUP2 ADD SWAP1 PUSH2 0x1238 SWAP2 SWAP1 PUSH2 0x3C2E JUMP JUMPDEST PUSH2 0x1277 JUMPI PUSH1 0x40 MLOAD PUSH32 0x8C379A000000000000000000000000000000000000000000000000000000000 DUP2 MSTORE PUSH1 0x4 ADD PUSH2 0x126E SWAP1 PUSH2 0x41F6 JUMP JUMPDEST PUSH1 0x40 MLOAD DUP1 SWAP2 SUB SWAP1 REVERT JUMPDEST DUP2 PUSH1 0xA PUSH1 0x0 DUP6 DUP2 MSTORE PUSH1 0x20 ADD SWAP1 DUP2 MSTORE PUSH1 0x20 ADD PUSH1 0x0 KECCAK256 PUSH1 0x0 DUP3 DUP3 SLOAD PUSH2 0x129A SWAP2 SWAP1 PUSH2 0x3B00 JUMP JUMPDEST SWAP3 POP POP DUP2 SWAP1 SSTORE POP PUSH2 0x12BC CALLER DUP5 DUP5 PUSH1 0x40 MLOAD DUP1 PUSH1 0x20 ADD PUSH1 0x40 MSTORE DUP1 PUSH1 0x0 DUP2 MSTORE POP PUSH2 0x1D9E JUMP JUMPDEST PUSH1 0x0 DUP1 JUMPDEST PUSH1 0x9 PUSH1 0x0 DUP7 DUP2 MSTORE PUSH1 0x20 ADD SWAP1 DUP2 MSTORE PUSH1 0x20 ADD PUSH1 0x0 KECCAK256 DUP1 SLOAD SWAP1 POP DUP2 LT ISZERO PUSH2 0x13D0 JUMPI CALLER PUSH20 0xFFFFFFFFFFFFFFFFFFFFFFFFFFFFFFFFFFFFFFFF AND PUSH1 0x9 PUSH1 0x0 DUP8 DUP2 MSTORE PUSH1 0x20 ADD SWAP1 DUP2 MSTORE PUSH1 0x20 ADD PUSH1 0x0 KECCAK256 DUP3 DUP2 SLOAD DUP2 LT PUSH2 0x131A JUMPI PUSH2 0x1319 PUSH2 0x3CC7 JUMP JUMPDEST JUMPDEST SWAP1 PUSH1 0x0 MSTORE PUSH1 0x20 PUSH1 0x0 KECCAK256 SWAP1 PUSH1 0x3 MUL ADD PUSH1 0x0 ADD PUSH1 0x0 SWAP1 SLOAD SWAP1 PUSH2 0x100 EXP SWAP1 DIV PUSH20 0xFFFFFFFFFFFFFFFFFFFFFFFFFFFFFFFFFFFFFFFF AND PUSH20 0xFFFFFFFFFFFFFFFFFFFFFFFFFFFFFFFFFFFFFFFF AND SUB PUSH2 0x13BD JUMPI DUP4 PUSH1 0x9 PUSH1 0x0 DUP8 DUP2 MSTORE PUSH1 0x20 ADD SWAP1 DUP2 MSTORE PUSH1 0x20 ADD PUSH1 0x0 KECCAK256 DUP3 DUP2 SLOAD DUP2 LT PUSH2 0x138D JUMPI PUSH2 0x138C PUSH2 0x3CC7 JUMP JUMPDEST JUMPDEST SWAP1 PUSH1 0x0 MSTORE PUSH1 0x20 PUSH1 0x0 KECCAK256 SWAP1 PUSH1 0x3 MUL ADD PUSH1 0x1 ADD PUSH1 0x0 DUP3 DUP3 SLOAD PUSH2 0x13AD SWAP2 SWAP1 PUSH2 0x3B00 JUMP JUMPDEST SWAP3 POP POP DUP2 SWAP1 SSTORE POP PUSH1 0x1 SWAP2 POP PUSH2 0x13D0 JUMP JUMPDEST DUP1 DUP1 PUSH2 0x13C8 SWAP1 PUSH2 0x3CF6 JUMP JUMPDEST SWAP2 POP POP PUSH2 0x12C0 JUMP JUMPDEST POP DUP1 PUSH2 0x14E2 JUMPI PUSH1 0x9 PUSH1 0x0 DUP6 DUP2 MSTORE PUSH1 0x20 ADD SWAP1 DUP2 MSTORE PUSH1 0x20 ADD PUSH1 0x0 KECCAK256 PUSH1 0x40 MLOAD DUP1 PUSH1 0x60 ADD PUSH1 0x40 MSTORE DUP1 CALLER PUSH20 0xFFFFFFFFFFFFFFFFFFFFFFFFFFFFFFFFFFFFFFFF AND DUP2 MSTORE PUSH1 0x20 ADD DUP6 DUP2 MSTORE PUSH1 0x20 ADD PUSH1 0x40 MLOAD DUP1 PUSH1 0x40 ADD PUSH1 0x40 MSTORE DUP1 PUSH1 0x4 DUP2 MSTORE PUSH1 0x20 ADD PUSH32 0x5553445400000000000000000000000000000000000000000000000000000000 DUP2 MSTORE POP DUP2 MSTORE POP SWAP1 DUP1 PUSH1 0x1 DUP2 SLOAD ADD DUP1 DUP3 SSTORE DUP1 SWAP2 POP POP PUSH1 0x1 SWAP1 SUB SWAP1 PUSH1 0x0 MSTORE PUSH1 0x20 PUSH1 0x0 KECCAK256 SWAP1 PUSH1 0x3 MUL ADD PUSH1 0x0 SWAP1 SWAP2 SWAP1 SWAP2 SWAP1 SWAP2 POP PUSH1 0x0 DUP3 ADD MLOAD DUP2 PUSH1 0x0 ADD PUSH1 0x0 PUSH2 0x100 EXP DUP2 SLOAD DUP2 PUSH20 0xFFFFFFFFFFFFFFFFFFFFFFFFFFFFFFFFFFFFFFFF MUL NOT AND SWAP1 DUP4 PUSH20 0xFFFFFFFFFFFFFFFFFFFFFFFFFFFFFFFFFFFFFFFF AND MUL OR SWAP1 SSTORE POP PUSH1 0x20 DUP3 ADD MLOAD DUP2 PUSH1 0x1 ADD SSTORE PUSH1 0x40 DUP3 ADD MLOAD DUP2 PUSH1 0x2 ADD SWAP1 DUP2 PUSH2 0x14DE SWAP2 SWAP1 PUSH2 0x3EE0 JUMP JUMPDEST POP POP POP JUMPDEST CALLER PUSH20 0xFFFFFFFFFFFFFFFFFFFFFFFFFFFFFFFFFFFFFFFF AND PUSH32 0xD115E474DF7F346023269013B65C20889A9C10F5C2CC073E6A0F36E386C9BD44 DUP6 DUP6 PUSH1 0x40 MLOAD PUSH2 0x152A SWAP3 SWAP2 SWAP1 PUSH2 0x3FB2 JUMP JUMPDEST PUSH1 0x40 MLOAD DUP1 SWAP2 SUB SWAP1 LOG2 POP POP PUSH2 0x153C PUSH2 0x1E37 JUMP JUMPDEST POP POP JUMP JUMPDEST PUSH2 0x1552 PUSH2 0x154B PUSH2 0x1F0F JUMP JUMPDEST DUP4 DUP4 PUSH2 0x20FD JUMP JUMPDEST POP POP JUMP JUMPDEST PUSH1 0xA PUSH1 0x20 MSTORE DUP1 PUSH1 0x0 MSTORE PUSH1 0x40 PUSH1 0x0 KECCAK256 PUSH1 0x0 SWAP2 POP SWAP1 POP SLOAD DUP2 JUMP JUMPDEST PUSH1 0xD PUSH1 0x0 SWAP1 SLOAD SWAP1 PUSH2 0x100 EXP SWAP1 DIV PUSH20 0xFFFFFFFFFFFFFFFFFFFFFFFFFFFFFFFFFFFFFFFF AND DUP2 JUMP JUMPDEST PUSH2 0x159C PUSH2 0x1C67 JUMP JUMPDEST PUSH1 0x0 DUP2 PUSH2 0x1644 JUMPI PUSH1 0xE PUSH1 0x0 SWAP1 SLOAD SWAP1 PUSH2 0x100 EXP SWAP1 DIV PUSH20 0xFFFFFFFFFFFFFFFFFFFFFFFFFFFFFFFFFFFFFFFF AND PUSH20 0xFFFFFFFFFFFFFFFFFFFFFFFFFFFFFFFFFFFFFFFF AND PUSH4 0x70A08231 ADDRESS PUSH1 0x40 MLOAD DUP3 PUSH4 0xFFFFFFFF AND PUSH1 0xE0 SHL DUP2 MSTORE PUSH1 0x4 ADD PUSH2 0x15FE SWAP2 SWAP1 PUSH2 0x37EF JUMP JUMPDEST PUSH1 0x20 PUSH1 0x40 MLOAD DUP1 DUP4 SUB DUP2 DUP7 GAS STATICCALL ISZERO DUP1 ISZERO PUSH2 0x161B JUMPI RETURNDATASIZE PUSH1 0x0 DUP1 RETURNDATACOPY RETURNDATASIZE PUSH1 0x0 REVERT JUMPDEST POP POP POP POP PUSH1 0x40 MLOAD RETURNDATASIZE PUSH1 0x1F NOT PUSH1 0x1F DUP3 ADD AND DUP3 ADD DUP1 PUSH1 0x40 MSTORE POP DUP2 ADD SWAP1 PUSH2 0x163F SWAP2 SWAP1 PUSH2 0x422B JUMP JUMPDEST PUSH2 0x16E1 JUMP JUMPDEST PUSH1 0xD PUSH1 0x0 SWAP1 SLOAD SWAP1 PUSH2 0x100 EXP SWAP1 DIV PUSH20 0xFFFFFFFFFFFFFFFFFFFFFFFFFFFFFFFFFFFFFFFF AND PUSH20 0xFFFFFFFFFFFFFFFFFFFFFFFFFFFFFFFFFFFFFFFF AND PUSH4 0x70A08231 ADDRESS PUSH1 0x40 MLOAD DUP3 PUSH4 0xFFFFFFFF AND PUSH1 0xE0 SHL DUP2 MSTORE PUSH1 0x4 ADD PUSH2 0x169F SWAP2 SWAP1 PUSH2 0x37EF JUMP JUMPDEST PUSH1 0x20 PUSH1 0x40 MLOAD DUP1 DUP4 SUB DUP2 DUP7 GAS STATICCALL ISZERO DUP1 ISZERO PUSH2 0x16BC JUMPI RETURNDATASIZE PUSH1 0x0 DUP1 RETURNDATACOPY RETURNDATASIZE PUSH1 0x0 REVERT JUMPDEST POP POP POP POP PUSH1 0x40 MLOAD RETURNDATASIZE PUSH1 0x1F NOT PUSH1 0x1F DUP3 ADD AND DUP3 ADD DUP1 PUSH1 0x40 MSTORE POP DUP2 ADD SWAP1 PUSH2 0x16E0 SWAP2 SWAP1 PUSH2 0x422B JUMP JUMPDEST JUMPDEST SWAP1 POP DUP1 DUP4 GT ISZERO PUSH2 0x1726 JUMPI PUSH1 0x40 MLOAD PUSH32 0x8C379A000000000000000000000000000000000000000000000000000000000 DUP2 MSTORE PUSH1 0x4 ADD PUSH2 0x171D SWAP1 PUSH2 0x42CA JUMP JUMPDEST PUSH1 0x40 MLOAD DUP1 SWAP2 SUB SWAP1 REVERT JUMPDEST DUP2 ISZERO PUSH2 0x1861 JUMPI PUSH1 0xD PUSH1 0x0 SWAP1 SLOAD SWAP1 PUSH2 0x100 EXP SWAP1 DIV PUSH20 0xFFFFFFFFFFFFFFFFFFFFFFFFFFFFFFFFFFFFFFFF AND PUSH20 0xFFFFFFFFFFFFFFFFFFFFFFFFFFFFFFFFFFFFFFFF AND PUSH4 0xA9059CBB DUP6 DUP6 PUSH1 0x40 MLOAD DUP4 PUSH4 0xFFFFFFFF AND PUSH1 0xE0 SHL DUP2 MSTORE PUSH1 0x4 ADD PUSH2 0x1789 SWAP3 SWAP2 SWAP1 PUSH2 0x42EA JUMP JUMPDEST PUSH1 0x20 PUSH1 0x40 MLOAD DUP1 DUP4 SUB DUP2 PUSH1 0x0 DUP8 GAS CALL ISZERO DUP1 ISZERO PUSH2 0x17A8 JUMPI RETURNDATASIZE PUSH1 0x0 DUP1 RETURNDATACOPY RETURNDATASIZE PUSH1 0x0 REVERT JUMPDEST POP POP POP POP PUSH1 0x40 MLOAD RETURNDATASIZE PUSH1 0x1F NOT PUSH1 0x1F DUP3 ADD AND DUP3 ADD DUP1 PUSH1 0x40 MSTORE POP DUP2 ADD SWAP1 PUSH2 0x17CC SWAP2 SWAP1 PUSH2 0x3C2E JUMP JUMPDEST PUSH2 0x180B JUMPI PUSH1 0x40 MLOAD PUSH32 0x8C379A000000000000000000000000000000000000000000000000000000000 DUP2 MSTORE PUSH1 0x4 ADD PUSH2 0x1802 SWAP1 PUSH2 0x435F JUMP JUMPDEST PUSH1 0x40 MLOAD DUP1 SWAP2 SUB SWAP1 REVERT JUMPDEST CALLER PUSH20 0xFFFFFFFFFFFFFFFFFFFFFFFFFFFFFFFFFFFFFFFF AND PUSH32 0xA995A272DF1BB18670C48272B0035C51CB0074B02B60DED72745A68E1CACFB30 DUP5 PUSH1 0x1 PUSH1 0x40 MLOAD PUSH2 0x1854 SWAP3 SWAP2 SWAP1 PUSH2 0x437F JUMP JUMPDEST PUSH1 0x40 MLOAD DUP1 SWAP2 SUB SWAP1 LOG2 PUSH2 0x1992 JUMP JUMPDEST PUSH1 0xE PUSH1 0x0 SWAP1 SLOAD SWAP1 PUSH2 0x100 EXP SWAP1 DIV PUSH20 0xFFFFFFFFFFFFFFFFFFFFFFFFFFFFFFFFFFFFFFFF AND PUSH20 0xFFFFFFFFFFFFFFFFFFFFFFFFFFFFFFFFFFFFFFFF AND PUSH4 0xA9059CBB DUP6 DUP6 PUSH1 0x40 MLOAD DUP4 PUSH4 0xFFFFFFFF AND PUSH1 0xE0 SHL DUP2 MSTORE PUSH1 0x4 ADD PUSH2 0x18BE SWAP3 SWAP2 SWAP1 PUSH2 0x42EA JUMP JUMPDEST PUSH1 0x20 PUSH1 0x40 MLOAD DUP1 DUP4 SUB DUP2 PUSH1 0x0 DUP8 GAS CALL ISZERO DUP1 ISZERO PUSH2 0x18DD JUMPI RETURNDATASIZE PUSH1 0x0 DUP1 RETURNDATACOPY RETURNDATASIZE PUSH1 0x0 REVERT JUMPDEST POP POP POP POP PUSH1 0x40 MLOAD RETURNDATASIZE PUSH1 0x1F NOT PUSH1 0x1F DUP3 ADD AND DUP3 ADD DUP1 PUSH1 0x40 MSTORE POP DUP2 ADD SWAP1 PUSH2 0x1901 SWAP2 SWAP1 PUSH2 0x3C2E JUMP JUMPDEST PUSH2 0x1940 JUMPI PUSH1 0x40 MLOAD PUSH32 0x8C379A000000000000000000000000000000000000000000000000000000000 DUP2 MSTORE PUSH1 0x4 ADD PUSH2 0x1937 SWAP1 PUSH2 0x435F JUMP JUMPDEST PUSH1 0x40 MLOAD DUP1 SWAP2 SUB SWAP1 REVERT JUMPDEST CALLER PUSH20 0xFFFFFFFFFFFFFFFFFFFFFFFFFFFFFFFFFFFFFFFF AND PUSH32 0xA995A272DF1BB18670C48272B0035C51CB0074B02B60DED72745A68E1CACFB30 DUP5 PUSH1 0x0 PUSH1 0x40 MLOAD PUSH2 0x1989 SWAP3 SWAP2 SWAP1 PUSH2 0x437F JUMP JUMPDEST PUSH1 0x40 MLOAD DUP1 SWAP2 SUB SWAP1 LOG2 JUMPDEST POP POP POP POP JUMP JUMPDEST PUSH1 0x9 PUSH1 0x20 MSTORE DUP2 PUSH1 0x0 MSTORE PUSH1 0x40 PUSH1 0x0 KECCAK256 DUP2 DUP2 SLOAD DUP2 LT PUSH2 0x19B4 JUMPI PUSH1 0x0 DUP1 REVERT JUMPDEST SWAP1 PUSH1 0x0 MSTORE PUSH1 0x20 PUSH1 0x0 KECCAK256 SWAP1 PUSH1 0x3 MUL ADD PUSH1 0x0 SWAP2 POP SWAP2 POP POP DUP1 PUSH1 0x0 ADD PUSH1 0x0 SWAP1 SLOAD SWAP1 PUSH2 0x100 EXP SWAP1 DIV PUSH20 0xFFFFFFFFFFFFFFFFFFFFFFFFFFFFFFFFFFFFFFFF AND SWAP1 DUP1 PUSH1 0x1 ADD SLOAD SWAP1 DUP1 PUSH1 0x2 ADD DUP1 SLOAD PUSH2 0x1A04 SWAP1 PUSH2 0x3A0E JUMP JUMPDEST DUP1 PUSH1 0x1F ADD PUSH1 0x20 DUP1 SWAP2 DIV MUL PUSH1 0x20 ADD PUSH1 0x40 MLOAD SWAP1 DUP2 ADD PUSH1 0x40 MSTORE DUP1 SWAP3 SWAP2 SWAP1 DUP2 DUP2 MSTORE PUSH1 0x20 ADD DUP3 DUP1 SLOAD PUSH2 0x1A30 SWAP1 PUSH2 0x3A0E JUMP JUMPDEST DUP1 ISZERO PUSH2 0x1A7D JUMPI DUP1 PUSH1 0x1F LT PUSH2 0x1A52 JUMPI PUSH2 0x100 DUP1 DUP4 SLOAD DIV MUL DUP4 MSTORE SWAP2 PUSH1 0x20 ADD SWAP2 PUSH2 0x1A7D JUMP JUMPDEST DUP3 ADD SWAP2 SWAP1 PUSH1 0x0 MSTORE PUSH1 0x20 PUSH1 0x0 KECCAK256 SWAP1 JUMPDEST DUP2 SLOAD DUP2 MSTORE SWAP1 PUSH1 0x1 ADD SWAP1 PUSH1 0x20 ADD DUP1 DUP4 GT PUSH2 0x1A60 JUMPI DUP3 SWAP1 SUB PUSH1 0x1F AND DUP3 ADD SWAP2 JUMPDEST POP POP POP POP POP SWAP1 POP DUP4 JUMP JUMPDEST PUSH1 0x7 SLOAD DUP2 JUMP JUMPDEST PUSH1 0x0 PUSH1 0x1 PUSH1 0x0 DUP5 PUSH20 0xFFFFFFFFFFFFFFFFFFFFFFFFFFFFFFFFFFFFFFFF AND PUSH20 0xFFFFFFFFFFFFFFFFFFFFFFFFFFFFFFFFFFFFFFFF AND DUP2 MSTORE PUSH1 0x20 ADD SWAP1 DUP2 MSTORE PUSH1 0x20 ADD PUSH1 0x0 KECCAK256 PUSH1 0x0 DUP4 PUSH20 0xFFFFFFFFFFFFFFFFFFFFFFFFFFFFFFFFFFFFFFFF AND PUSH20 0xFFFFFFFFFFFFFFFFFFFFFFFFFFFFFFFFFFFFFFFF AND DUP2 MSTORE PUSH1 0x20 ADD SWAP1 DUP2 MSTORE PUSH1 0x20 ADD PUSH1 0x0 KECCAK256 PUSH1 0x0 SWAP1 SLOAD SWAP1 PUSH2 0x100 EXP SWAP1 DIV PUSH1 0xFF AND SWAP1 POP SWAP3 SWAP2 POP POP JUMP JUMPDEST PUSH1 0x8 SLOAD DUP2 JUMP JUMPDEST PUSH1 0x0 PUSH2 0x1B31 PUSH2 0x1F0F JUMP JUMPDEST SWAP1 POP DUP1 PUSH20 0xFFFFFFFFFFFFFFFFFFFFFFFFFFFFFFFFFFFFFFFF AND DUP7 PUSH20 0xFFFFFFFFFFFFFFFFFFFFFFFFFFFFFFFFFFFFFFFF AND EQ ISZERO DUP1 ISZERO PUSH2 0x1B76 JUMPI POP PUSH2 0x1B74 DUP7 DUP3 PUSH2 0x1A8D JUMP JUMPDEST ISZERO JUMPDEST ISZERO PUSH2 0x1BBA JUMPI DUP1 DUP7 PUSH1 0x40 MLOAD PUSH32 0xE237D92200000000000000000000000000000000000000000000000000000000 DUP2 MSTORE PUSH1 0x4 ADD PUSH2 0x1BB1 SWAP3 SWAP2 SWAP1 PUSH2 0x4115 JUMP JUMPDEST PUSH1 0x40 MLOAD DUP1 SWAP2 SUB SWAP1 REVERT JUMPDEST PUSH2 0x1BC7 DUP7 DUP7 DUP7 DUP7 DUP7 PUSH2 0x226D JUMP JUMPDEST POP POP POP POP POP POP JUMP JUMPDEST PUSH2 0x1BD7 PUSH2 0x1C67 JUMP JUMPDEST DUP1 PUSH1 0x8 DUP2 SWAP1 SSTORE POP POP JUMP JUMPDEST PUSH2 0x1BE9 PUSH2 0x1C67 JUMP JUMPDEST PUSH1 0x0 PUSH20 0xFFFFFFFFFFFFFFFFFFFFFFFFFFFFFFFFFFFFFFFF AND DUP2 PUSH20 0xFFFFFFFFFFFFFFFFFFFFFFFFFFFFFFFFFFFFFFFF AND SUB PUSH2 0x1C5B JUMPI PUSH1 0x0 PUSH1 0x40 MLOAD PUSH32 0x1E4FBDF700000000000000000000000000000000000000000000000000000000 DUP2 MSTORE PUSH1 0x4 ADD PUSH2 0x1C52 SWAP2 SWAP1 PUSH2 0x37EF JUMP JUMPDEST PUSH1 0x40 MLOAD DUP1 SWAP2 SUB SWAP1 REVERT JUMPDEST PUSH2 0x1C64 DUP2 PUSH2 0x2037 JUMP JUMPDEST POP JUMP JUMPDEST PUSH2 0x1C6F PUSH2 0x1F0F JUMP JUMPDEST PUSH20 0xFFFFFFFFFFFFFFFFFFFFFFFFFFFFFFFFFFFFFFFF AND PUSH2 0x1C8D PUSH2 0xFD0 JUMP JUMPDEST PUSH20 0xFFFFFFFFFFFFFFFFFFFFFFFFFFFFFFFFFFFFFFFF AND EQ PUSH2 0x1CEC JUMPI PUSH2 0x1CB0 PUSH2 0x1F0F JUMP JUMPDEST PUSH1 0x40 MLOAD PUSH32 0x118CDAA700000000000000000000000000000000000000000000000000000000 DUP2 MSTORE PUSH1 0x4 ADD PUSH2 0x1CE3 SWAP2 SWAP1 PUSH2 0x37EF JUMP JUMPDEST PUSH1 0x40 MLOAD DUP1 SWAP2 SUB SWAP1 REVERT JUMPDEST JUMP JUMPDEST PUSH1 0x0 PUSH32 0x1FFC9A700000000000000000000000000000000000000000000000000000000 PUSH28 0xFFFFFFFFFFFFFFFFFFFFFFFFFFFFFFFFFFFFFFFFFFFFFFFFFFFFFFFF NOT AND DUP3 PUSH28 0xFFFFFFFFFFFFFFFFFFFFFFFFFFFFFFFFFFFFFFFFFFFFFFFFFFFFFFFF NOT AND EQ SWAP1 POP SWAP2 SWAP1 POP JUMP JUMPDEST PUSH1 0x2 PUSH1 0x4 SLOAD SUB PUSH2 0x1D94 JUMPI PUSH1 0x40 MLOAD PUSH32 0x3EE5AEB500000000000000000000000000000000000000000000000000000000 DUP2 MSTORE PUSH1 0x4 ADD PUSH1 0x40 MLOAD DUP1 SWAP2 SUB SWAP1 REVERT JUMPDEST PUSH1 0x2 PUSH1 0x4 DUP2 SWAP1 SSTORE POP JUMP JUMPDEST PUSH1 0x0 PUSH20 0xFFFFFFFFFFFFFFFFFFFFFFFFFFFFFFFFFFFFFFFF AND DUP5 PUSH20 0xFFFFFFFFFFFFFFFFFFFFFFFFFFFFFFFFFFFFFFFF AND SUB PUSH2 0x1E10 JUMPI PUSH1 0x0 PUSH1 0x40 MLOAD PUSH32 0x57F447CE00000000000000000000000000000000000000000000000000000000 DUP2 MSTORE PUSH1 0x4 ADD PUSH2 0x1E07 SWAP2 SWAP1 PUSH2 0x37EF JUMP JUMPDEST PUSH1 0x40 MLOAD DUP1 SWAP2 SUB SWAP1 REVERT JUMPDEST PUSH1 0x0 DUP1 PUSH2 0x1E1D DUP6 DUP6 PUSH2 0x2378 JUMP JUMPDEST SWAP2 POP SWAP2 POP PUSH2 0x1E2F PUSH1 0x0 DUP8 DUP5 DUP5 DUP8 PUSH2 0x23A8 JUMP JUMPDEST POP POP POP POP POP POP JUMP JUMPDEST PUSH1 0x1 PUSH1 0x4 DUP2 SWAP1 SSTORE POP JUMP JUMPDEST PUSH1 0x60 PUSH1 0x0 PUSH1 0x1 PUSH2 0x1E50 DUP5 PUSH2 0x245A JUMP JUMPDEST ADD SWAP1 POP PUSH1 0x0 DUP2 PUSH8 0xFFFFFFFFFFFFFFFF DUP2 GT ISZERO PUSH2 0x1E6F JUMPI PUSH2 0x1E6E PUSH2 0x31A9 JUMP JUMPDEST JUMPDEST PUSH1 0x40 MLOAD SWAP1 DUP1 DUP3 MSTORE DUP1 PUSH1 0x1F ADD PUSH1 0x1F NOT AND PUSH1 0x20 ADD DUP3 ADD PUSH1 0x40 MSTORE DUP1 ISZERO PUSH2 0x1EA1 JUMPI DUP2 PUSH1 0x20 ADD PUSH1 0x1 DUP3 MUL DUP1 CALLDATASIZE DUP4 CALLDATACOPY DUP1 DUP3 ADD SWAP2 POP POP SWAP1 POP JUMPDEST POP SWAP1 POP PUSH1 0x0 DUP3 PUSH1 0x20 ADD DUP3 ADD SWAP1 POP JUMPDEST PUSH1 0x1 ISZERO PUSH2 0x1F04 JUMPI DUP1 DUP1 PUSH1 0x1 SWAP1 SUB SWAP2 POP POP PUSH32 0x3031323334353637383961626364656600000000000000000000000000000000 PUSH1 0xA DUP7 MOD BYTE DUP2 MSTORE8 PUSH1 0xA DUP6 DUP2 PUSH2 0x1EF8 JUMPI PUSH2 0x1EF7 PUSH2 0x43A8 JUMP JUMPDEST JUMPDEST DIV SWAP5 POP PUSH1 0x0 DUP6 SUB PUSH2 0x1EAF JUMPI JUMPDEST DUP2 SWAP4 POP POP POP POP SWAP2 SWAP1 POP JUMP JUMPDEST PUSH1 0x0 CALLER SWAP1 POP SWAP1 JUMP JUMPDEST PUSH1 0x0 PUSH20 0xFFFFFFFFFFFFFFFFFFFFFFFFFFFFFFFFFFFFFFFF AND DUP5 PUSH20 0xFFFFFFFFFFFFFFFFFFFFFFFFFFFFFFFFFFFFFFFF AND SUB PUSH2 0x1F89 JUMPI PUSH1 0x0 PUSH1 0x40 MLOAD PUSH32 0x57F447CE00000000000000000000000000000000000000000000000000000000 DUP2 MSTORE PUSH1 0x4 ADD PUSH2 0x1F80 SWAP2 SWAP1 PUSH2 0x37EF JUMP JUMPDEST PUSH1 0x40 MLOAD DUP1 SWAP2 SUB SWAP1 REVERT JUMPDEST PUSH1 0x0 PUSH20 0xFFFFFFFFFFFFFFFFFFFFFFFFFFFFFFFFFFFFFFFF AND DUP6 PUSH20 0xFFFFFFFFFFFFFFFFFFFFFFFFFFFFFFFFFFFFFFFF AND SUB PUSH2 0x1FFB JUMPI PUSH1 0x0 PUSH1 0x40 MLOAD PUSH32 0x1A8351400000000000000000000000000000000000000000000000000000000 DUP2 MSTORE PUSH1 0x4 ADD PUSH2 0x1FF2 SWAP2 SWAP1 PUSH2 0x37EF JUMP JUMPDEST PUSH1 0x40 MLOAD DUP1 SWAP2 SUB SWAP1 REVERT JUMPDEST PUSH2 0x2008 DUP6 DUP6 DUP6 DUP6 DUP6 PUSH2 0x23A8 JUMP JUMPDEST POP POP POP POP POP JUMP JUMPDEST PUSH1 0x0 PUSH1 0x20 DUP3 MUL PUSH1 0x20 DUP5 ADD ADD MLOAD SWAP1 POP SWAP3 SWAP2 POP POP JUMP JUMPDEST PUSH1 0x0 PUSH1 0x20 DUP3 MUL PUSH1 0x20 DUP5 ADD ADD MLOAD SWAP1 POP SWAP3 SWAP2 POP POP JUMP JUMPDEST PUSH1 0x0 PUSH1 0x3 PUSH1 0x0 SWAP1 SLOAD SWAP1 PUSH2 0x100 EXP SWAP1 DIV PUSH20 0xFFFFFFFFFFFFFFFFFFFFFFFFFFFFFFFFFFFFFFFF AND SWAP1 POP DUP2 PUSH1 0x3 PUSH1 0x0 PUSH2 0x100 EXP DUP2 SLOAD DUP2 PUSH20 0xFFFFFFFFFFFFFFFFFFFFFFFFFFFFFFFFFFFFFFFF MUL NOT AND SWAP1 DUP4 PUSH20 0xFFFFFFFFFFFFFFFFFFFFFFFFFFFFFFFFFFFFFFFF AND MUL OR SWAP1 SSTORE POP DUP2 PUSH20 0xFFFFFFFFFFFFFFFFFFFFFFFFFFFFFFFFFFFFFFFF AND DUP2 PUSH20 0xFFFFFFFFFFFFFFFFFFFFFFFFFFFFFFFFFFFFFFFF AND PUSH32 0x8BE0079C531659141344CD1FD0A4F28419497F9722A3DAAFE3B4186F6B6457E0 PUSH1 0x40 MLOAD PUSH1 0x40 MLOAD DUP1 SWAP2 SUB SWAP1 LOG3 POP POP JUMP JUMPDEST PUSH1 0x0 PUSH20 0xFFFFFFFFFFFFFFFFFFFFFFFFFFFFFFFFFFFFFFFF AND DUP3 PUSH20 0xFFFFFFFFFFFFFFFFFFFFFFFFFFFFFFFFFFFFFFFF AND SUB PUSH2 0x216F JUMPI PUSH1 0x0 PUSH1 0x40 MLOAD PUSH32 0xCED3E10000000000000000000000000000000000000000000000000000000000 DUP2 MSTORE PUSH1 0x4 ADD PUSH2 0x2166 SWAP2 SWAP1 PUSH2 0x37EF JUMP JUMPDEST PUSH1 0x40 MLOAD DUP1 SWAP2 SUB SWAP1 REVERT JUMPDEST DUP1 PUSH1 0x1 PUSH1 0x0 DUP6 PUSH20 0xFFFFFFFFFFFFFFFFFFFFFFFFFFFFFFFFFFFFFFFF AND PUSH20 0xFFFFFFFFFFFFFFFFFFFFFFFFFFFFFFFFFFFFFFFF AND DUP2 MSTORE PUSH1 0x20 ADD SWAP1 DUP2 MSTORE PUSH1 0x20 ADD PUSH1 0x0 KECCAK256 PUSH1 0x0 DUP5 PUSH20 0xFFFFFFFFFFFFFFFFFFFFFFFFFFFFFFFFFFFFFFFF AND PUSH20 0xFFFFFFFFFFFFFFFFFFFFFFFFFFFFFFFFFFFFFFFF AND DUP2 MSTORE PUSH1 0x20 ADD SWAP1 DUP2 MSTORE PUSH1 0x20 ADD PUSH1 0x0 KECCAK256 PUSH1 0x0 PUSH2 0x100 EXP DUP2 SLOAD DUP2 PUSH1 0xFF MUL NOT AND SWAP1 DUP4 ISZERO ISZERO MUL OR SWAP1 SSTORE POP DUP2 PUSH20 0xFFFFFFFFFFFFFFFFFFFFFFFFFFFFFFFFFFFFFFFF AND DUP4 PUSH20 0xFFFFFFFFFFFFFFFFFFFFFFFFFFFFFFFFFFFFFFFF AND PUSH32 0x17307EAB39AB6107E8899845AD3D59BD9653F200F220920489CA2B5937696C31 DUP4 PUSH1 0x40 MLOAD PUSH2 0x2260 SWAP2 SWAP1 PUSH2 0x2ECE JUMP JUMPDEST PUSH1 0x40 MLOAD DUP1 SWAP2 SUB SWAP1 LOG3 POP POP POP JUMP JUMPDEST PUSH1 0x0 PUSH20 0xFFFFFFFFFFFFFFFFFFFFFFFFFFFFFFFFFFFFFFFF AND DUP5 PUSH20 0xFFFFFFFFFFFFFFFFFFFFFFFFFFFFFFFFFFFFFFFF AND SUB PUSH2 0x22DF JUMPI PUSH1 0x0 PUSH1 0x40 MLOAD PUSH32 0x57F447CE00000000000000000000000000000000000000000000000000000000 DUP2 MSTORE PUSH1 0x4 ADD PUSH2 0x22D6 SWAP2 SWAP1 PUSH2 0x37EF JUMP JUMPDEST PUSH1 0x40 MLOAD DUP1 SWAP2 SUB SWAP1 REVERT JUMPDEST PUSH1 0x0 PUSH20 0xFFFFFFFFFFFFFFFFFFFFFFFFFFFFFFFFFFFFFFFF AND DUP6 PUSH20 0xFFFFFFFFFFFFFFFFFFFFFFFFFFFFFFFFFFFFFFFF AND SUB PUSH2 0x2351 JUMPI PUSH1 0x0 PUSH1 0x40 MLOAD PUSH32 0x1A8351400000000000000000000000000000000000000000000000000000000 DUP2 MSTORE PUSH1 0x4 ADD PUSH2 0x2348 SWAP2 SWAP1 PUSH2 0x37EF JUMP JUMPDEST PUSH1 0x40 MLOAD DUP1 SWAP2 SUB SWAP1 REVERT JUMPDEST PUSH1 0x0 DUP1 PUSH2 0x235E DUP6 DUP6 PUSH2 0x2378 JUMP JUMPDEST SWAP2 POP SWAP2 POP PUSH2 0x236F DUP8 DUP8 DUP5 DUP5 DUP8 PUSH2 0x23A8 JUMP JUMPDEST POP POP POP POP POP POP POP JUMP JUMPDEST PUSH1 0x60 DUP1 PUSH1 0x40 MLOAD SWAP2 POP PUSH1 0x1 DUP3 MSTORE DUP4 PUSH1 0x20 DUP4 ADD MSTORE PUSH1 0x40 DUP3 ADD SWAP1 POP PUSH1 0x1 DUP2 MSTORE DUP3 PUSH1 0x20 DUP3 ADD MSTORE PUSH1 0x40 DUP2 ADD PUSH1 0x40 MSTORE SWAP3 POP SWAP3 SWAP1 POP JUMP JUMPDEST PUSH2 0x23B4 DUP6 DUP6 DUP6 DUP6 PUSH2 0x25AD JUMP JUMPDEST PUSH1 0x0 PUSH20 0xFFFFFFFFFFFFFFFFFFFFFFFFFFFFFFFFFFFFFFFF AND DUP5 PUSH20 0xFFFFFFFFFFFFFFFFFFFFFFFFFFFFFFFFFFFFFFFF AND EQ PUSH2 0x2453 JUMPI PUSH1 0x0 PUSH2 0x23F2 PUSH2 0x1F0F JUMP JUMPDEST SWAP1 POP PUSH1 0x1 DUP5 MLOAD SUB PUSH2 0x2442 JUMPI PUSH1 0x0 PUSH2 0x2413 PUSH1 0x0 DUP7 PUSH2 0x2023 SWAP1 SWAP2 SWAP1 PUSH4 0xFFFFFFFF AND JUMP JUMPDEST SWAP1 POP PUSH1 0x0 PUSH2 0x242B PUSH1 0x0 DUP7 PUSH2 0x2023 SWAP1 SWAP2 SWAP1 PUSH4 0xFFFFFFFF AND JUMP JUMPDEST SWAP1 POP PUSH2 0x243B DUP4 DUP10 DUP10 DUP6 DUP6 DUP10 PUSH2 0x295B JUMP JUMPDEST POP POP PUSH2 0x2451 JUMP JUMPDEST PUSH2 0x2450 DUP2 DUP8 DUP8 DUP8 DUP8 DUP8 PUSH2 0x2B0F JUMP JUMPDEST JUMPDEST POP JUMPDEST POP POP POP POP POP JUMP JUMPDEST PUSH1 0x0 DUP1 PUSH1 0x0 SWAP1 POP PUSH27 0x184F03E93FF9F4DAA797ED6E38ED64BF6A1F010000000000000000 DUP4 LT PUSH2 0x24B8 JUMPI PUSH27 0x184F03E93FF9F4DAA797ED6E38ED64BF6A1F010000000000000000 DUP4 DUP2 PUSH2 0x24AE JUMPI PUSH2 0x24AD PUSH2 0x43A8 JUMP JUMPDEST JUMPDEST DIV SWAP3 POP PUSH1 0x40 DUP2 ADD SWAP1 POP JUMPDEST PUSH14 0x4EE2D6D415B85ACEF8100000000 DUP4 LT PUSH2 0x24F5 JUMPI PUSH14 0x4EE2D6D415B85ACEF8100000000 DUP4 DUP2 PUSH2 0x24EB JUMPI PUSH2 0x24EA PUSH2 0x43A8 JUMP JUMPDEST JUMPDEST DIV SWAP3 POP PUSH1 0x20 DUP2 ADD SWAP1 POP JUMPDEST PUSH7 0x2386F26FC10000 DUP4 LT PUSH2 0x2524 JUMPI PUSH7 0x2386F26FC10000 DUP4 DUP2 PUSH2 0x251A JUMPI PUSH2 0x2519 PUSH2 0x43A8 JUMP JUMPDEST JUMPDEST DIV SWAP3 POP PUSH1 0x10 DUP2 ADD SWAP1 POP JUMPDEST PUSH4 0x5F5E100 DUP4 LT PUSH2 0x254D JUMPI PUSH4 0x5F5E100 DUP4 DUP2 PUSH2 0x2543 JUMPI PUSH2 0x2542 PUSH2 0x43A8 JUMP JUMPDEST JUMPDEST DIV SWAP3 POP PUSH1 0x8 DUP2 ADD SWAP1 POP JUMPDEST PUSH2 0x2710 DUP4 LT PUSH2 0x2572 JUMPI PUSH2 0x2710 DUP4 DUP2 PUSH2 0x2568 JUMPI PUSH2 0x2567 PUSH2 0x43A8 JUMP JUMPDEST JUMPDEST DIV SWAP3 POP PUSH1 0x4 DUP2 ADD SWAP1 POP JUMPDEST PUSH1 0x64 DUP4 LT PUSH2 0x2595 JUMPI PUSH1 0x64 DUP4 DUP2 PUSH2 0x258B JUMPI PUSH2 0x258A PUSH2 0x43A8 JUMP JUMPDEST JUMPDEST DIV SWAP3 POP PUSH1 0x2 DUP2 ADD SWAP1 POP JUMPDEST PUSH1 0xA DUP4 LT PUSH2 0x25A4 JUMPI PUSH1 0x1 DUP2 ADD SWAP1 POP JUMPDEST DUP1 SWAP2 POP POP SWAP2 SWAP1 POP JUMP JUMPDEST DUP1 MLOAD DUP3 MLOAD EQ PUSH2 0x25F7 JUMPI DUP2 MLOAD DUP2 MLOAD PUSH1 0x40 MLOAD PUSH32 0x5B05999100000000000000000000000000000000000000000000000000000000 DUP2 MSTORE PUSH1 0x4 ADD PUSH2 0x25EE SWAP3 SWAP2 SWAP1 PUSH2 0x3FB2 JUMP JUMPDEST PUSH1 0x40 MLOAD DUP1 SWAP2 SUB SWAP1 REVERT JUMPDEST PUSH1 0x0 PUSH2 0x2601 PUSH2 0x1F0F JUMP JUMPDEST SWAP1 POP PUSH1 0x0 JUMPDEST DUP4 MLOAD DUP2 LT ISZERO PUSH2 0x2816 JUMPI PUSH1 0x0 PUSH2 0x2624 DUP3 DUP7 PUSH2 0x2023 SWAP1 SWAP2 SWAP1 PUSH4 0xFFFFFFFF AND JUMP JUMPDEST SWAP1 POP PUSH1 0x0 PUSH2 0x263B DUP4 DUP7 PUSH2 0x2023 SWAP1 SWAP2 SWAP1 PUSH4 0xFFFFFFFF AND JUMP JUMPDEST SWAP1 POP PUSH1 0x0 PUSH20 0xFFFFFFFFFFFFFFFFFFFFFFFFFFFFFFFFFFFFFFFF AND DUP9 PUSH20 0xFFFFFFFFFFFFFFFFFFFFFFFFFFFFFFFFFFFFFFFF AND EQ PUSH2 0x2768 JUMPI PUSH1 0x0 DUP1 PUSH1 0x0 DUP5 DUP2 MSTORE PUSH1 0x20 ADD SWAP1 DUP2 MSTORE PUSH1 0x20 ADD PUSH1 0x0 KECCAK256 PUSH1 0x0 DUP11 PUSH20 0xFFFFFFFFFFFFFFFFFFFFFFFFFFFFFFFFFFFFFFFF AND PUSH20 0xFFFFFFFFFFFFFFFFFFFFFFFFFFFFFFFFFFFFFFFF AND DUP2 MSTORE PUSH1 0x20 ADD SWAP1 DUP2 MSTORE PUSH1 0x20 ADD PUSH1 0x0 KECCAK256 SLOAD SWAP1 POP DUP2 DUP2 LT ISZERO PUSH2 0x2710 JUMPI DUP9 DUP2 DUP4 DUP6 PUSH1 0x40 MLOAD PUSH32 0x3DEE4C500000000000000000000000000000000000000000000000000000000 DUP2 MSTORE PUSH1 0x4 ADD PUSH2 0x2707 SWAP5 SWAP4 SWAP3 SWAP2 SWAP1 PUSH2 0x43D7 JUMP JUMPDEST PUSH1 0x40 MLOAD DUP1 SWAP2 SUB SWAP1 REVERT JUMPDEST DUP2 DUP2 SUB PUSH1 0x0 DUP1 DUP6 DUP2 MSTORE PUSH1 0x20 ADD SWAP1 DUP2 MSTORE PUSH1 0x20 ADD PUSH1 0x0 KECCAK256 PUSH1 0x0 DUP12 PUSH20 0xFFFFFFFFFFFFFFFFFFFFFFFFFFFFFFFFFFFFFFFF AND PUSH20 0xFFFFFFFFFFFFFFFFFFFFFFFFFFFFFFFFFFFFFFFF AND DUP2 MSTORE PUSH1 0x20 ADD SWAP1 DUP2 MSTORE PUSH1 0x20 ADD PUSH1 0x0 KECCAK256 DUP2 SWAP1 SSTORE POP POP JUMPDEST PUSH1 0x0 PUSH20 0xFFFFFFFFFFFFFFFFFFFFFFFFFFFFFFFFFFFFFFFF AND DUP8 PUSH20 0xFFFFFFFFFFFFFFFFFFFFFFFFFFFFFFFFFFFFFFFF AND EQ PUSH2 0x2803 JUMPI DUP1 PUSH1 0x0 DUP1 DUP5 DUP2 MSTORE PUSH1 0x20 ADD SWAP1 DUP2 MSTORE PUSH1 0x20 ADD PUSH1 0x0 KECCAK256 PUSH1 0x0 DUP10 PUSH20 0xFFFFFFFFFFFFFFFFFFFFFFFFFFFFFFFFFFFFFFFF AND PUSH20 0xFFFFFFFFFFFFFFFFFFFFFFFFFFFFFFFFFFFFFFFF AND DUP2 MSTORE PUSH1 0x20 ADD SWAP1 DUP2 MSTORE PUSH1 0x20 ADD PUSH1 0x0 KECCAK256 PUSH1 0x0 DUP3 DUP3 SLOAD PUSH2 0x27FB SWAP2 SWAP1 PUSH2 0x3B00 JUMP JUMPDEST SWAP3 POP POP DUP2 SWAP1 SSTORE POP JUMPDEST POP POP DUP1 PUSH2 0x280F SWAP1 PUSH2 0x3CF6 JUMP JUMPDEST SWAP1 POP PUSH2 0x2606 JUMP JUMPDEST POP PUSH1 0x1 DUP4 MLOAD SUB PUSH2 0x28D5 JUMPI PUSH1 0x0 PUSH2 0x2836 PUSH1 0x0 DUP6 PUSH2 0x2023 SWAP1 SWAP2 SWAP1 PUSH4 0xFFFFFFFF AND JUMP JUMPDEST SWAP1 POP PUSH1 0x0 PUSH2 0x284E PUSH1 0x0 DUP6 PUSH2 0x2023 SWAP1 SWAP2 SWAP1 PUSH4 0xFFFFFFFF AND JUMP JUMPDEST SWAP1 POP DUP6 PUSH20 0xFFFFFFFFFFFFFFFFFFFFFFFFFFFFFFFFFFFFFFFF AND DUP8 PUSH20 0xFFFFFFFFFFFFFFFFFFFFFFFFFFFFFFFFFFFFFFFF AND DUP5 PUSH20 0xFFFFFFFFFFFFFFFFFFFFFFFFFFFFFFFFFFFFFFFF AND PUSH32 0xC3D58168C5AE7397731D063D5BBF3D657854427343F4C083240F7AACAA2D0F62 DUP6 DUP6 PUSH1 0x40 MLOAD PUSH2 0x28C6 SWAP3 SWAP2 SWAP1 PUSH2 0x3FB2 JUMP JUMPDEST PUSH1 0x40 MLOAD DUP1 SWAP2 SUB SWAP1 LOG4 POP POP PUSH2 0x2954 JUMP JUMPDEST DUP4 PUSH20 0xFFFFFFFFFFFFFFFFFFFFFFFFFFFFFFFFFFFFFFFF AND DUP6 PUSH20 0xFFFFFFFFFFFFFFFFFFFFFFFFFFFFFFFFFFFFFFFF AND DUP3 PUSH20 0xFFFFFFFFFFFFFFFFFFFFFFFFFFFFFFFFFFFFFFFF AND PUSH32 0x4A39DC06D4C0DBC64B70AF90FD698A233A518AA5D07E595D983B8C0526C8F7FB DUP7 DUP7 PUSH1 0x40 MLOAD PUSH2 0x294B SWAP3 SWAP2 SWAP1 PUSH2 0x441C JUMP JUMPDEST PUSH1 0x40 MLOAD DUP1 SWAP2 SUB SWAP1 LOG4 JUMPDEST POP POP POP POP POP JUMP JUMPDEST PUSH1 0x0 DUP5 PUSH20 0xFFFFFFFFFFFFFFFFFFFFFFFFFFFFFFFFFFFFFFFF AND EXTCODESIZE GT ISZERO PUSH2 0x2B07 JUMPI DUP4 PUSH20 0xFFFFFFFFFFFFFFFFFFFFFFFFFFFFFFFFFFFFFFFF AND PUSH4 0xF23A6E61 DUP8 DUP8 DUP7 DUP7 DUP7 PUSH1 0x40 MLOAD DUP7 PUSH4 0xFFFFFFFF AND PUSH1 0xE0 SHL DUP2 MSTORE PUSH1 0x4 ADD PUSH2 0x29BC SWAP6 SWAP5 SWAP4 SWAP3 SWAP2 SWAP1 PUSH2 0x44A8 JUMP JUMPDEST PUSH1 0x20 PUSH1 0x40 MLOAD DUP1 DUP4 SUB DUP2 PUSH1 0x0 DUP8 GAS CALL SWAP3 POP POP POP DUP1 ISZERO PUSH2 0x29F8 JUMPI POP PUSH1 0x40 MLOAD RETURNDATASIZE PUSH1 0x1F NOT PUSH1 0x1F DUP3 ADD AND DUP3 ADD DUP1 PUSH1 0x40 MSTORE POP DUP2 ADD SWAP1 PUSH2 0x29F5 SWAP2 SWAP1 PUSH2 0x4517 JUMP JUMPDEST PUSH1 0x1 JUMPDEST PUSH2 0x2A7C JUMPI RETURNDATASIZE DUP1 PUSH1 0x0 DUP2 EQ PUSH2 0x2A28 JUMPI PUSH1 0x40 MLOAD SWAP2 POP PUSH1 0x1F NOT PUSH1 0x3F RETURNDATASIZE ADD AND DUP3 ADD PUSH1 0x40 MSTORE RETURNDATASIZE DUP3 MSTORE RETURNDATASIZE PUSH1 0x0 PUSH1 0x20 DUP5 ADD RETURNDATACOPY PUSH2 0x2A2D JUMP JUMPDEST PUSH1 0x60 SWAP2 POP JUMPDEST POP PUSH1 0x0 DUP2 MLOAD SUB PUSH2 0x2A74 JUMPI DUP5 PUSH1 0x40 MLOAD PUSH32 0x57F447CE00000000000000000000000000000000000000000000000000000000 DUP2 MSTORE PUSH1 0x4 ADD PUSH2 0x2A6B SWAP2 SWAP1 PUSH2 0x37EF JUMP JUMPDEST PUSH1 0x40 MLOAD DUP1 SWAP2 SUB SWAP1 REVERT JUMPDEST DUP1 MLOAD DUP2 PUSH1 0x20 ADD REVERT JUMPDEST PUSH4 0xF23A6E61 PUSH1 0xE0 SHL PUSH28 0xFFFFFFFFFFFFFFFFFFFFFFFFFFFFFFFFFFFFFFFFFFFFFFFFFFFFFFFF NOT AND DUP2 PUSH28 0xFFFFFFFFFFFFFFFFFFFFFFFFFFFFFFFFFFFFFFFFFFFFFFFFFFFFFFFF NOT AND EQ PUSH2 0x2B05 JUMPI DUP5 PUSH1 0x40 MLOAD PUSH32 0x57F447CE00000000000000000000000000000000000000000000000000000000 DUP2 MSTORE PUSH1 0x4 ADD PUSH2 0x2AFC SWAP2 SWAP1 PUSH2 0x37EF JUMP JUMPDEST PUSH1 0x40 MLOAD DUP1 SWAP2 SUB SWAP1 REVERT JUMPDEST POP JUMPDEST POP POP POP POP POP POP JUMP JUMPDEST PUSH1 0x0 DUP5 PUSH20 0xFFFFFFFFFFFFFFFFFFFFFFFFFFFFFFFFFFFFFFFF AND EXTCODESIZE GT ISZERO PUSH2 0x2CBB JUMPI DUP4 PUSH20 0xFFFFFFFFFFFFFFFFFFFFFFFFFFFFFFFFFFFFFFFF AND PUSH4 0xBC197C81 DUP8 DUP8 DUP7 DUP7 DUP7 PUSH1 0x40 MLOAD DUP7 PUSH4 0xFFFFFFFF AND PUSH1 0xE0 SHL DUP2 MSTORE PUSH1 0x4 ADD PUSH2 0x2B70 SWAP6 SWAP5 SWAP4 SWAP3 SWAP2 SWAP1 PUSH2 0x4544 JUMP JUMPDEST PUSH1 0x20 PUSH1 0x40 MLOAD DUP1 DUP4 SUB DUP2 PUSH1 0x0 DUP8 GAS CALL SWAP3 POP POP POP DUP1 ISZERO PUSH2 0x2BAC JUMPI POP PUSH1 0x40 MLOAD RETURNDATASIZE PUSH1 0x1F NOT PUSH1 0x1F DUP3 ADD AND DUP3 ADD DUP1 PUSH1 0x40 MSTORE POP DUP2 ADD SWAP1 PUSH2 0x2BA9 SWAP2 SWAP1 PUSH2 0x4517 JUMP JUMPDEST PUSH1 0x1 JUMPDEST PUSH2 0x2C30 JUMPI RETURNDATASIZE DUP1 PUSH1 0x0 DUP2 EQ PUSH2 0x2BDC JUMPI PUSH1 0x40 MLOAD SWAP2 POP PUSH1 0x1F NOT PUSH1 0x3F RETURNDATASIZE ADD AND DUP3 ADD PUSH1 0x40 MSTORE RETURNDATASIZE DUP3 MSTORE RETURNDATASIZE PUSH1 0x0 PUSH1 0x20 DUP5 ADD RETURNDATACOPY PUSH2 0x2BE1 JUMP JUMPDEST PUSH1 0x60 SWAP2 POP JUMPDEST POP PUSH1 0x0 DUP2 MLOAD SUB PUSH2 0x2C28 JUMPI DUP5 PUSH1 0x40 MLOAD PUSH32 0x57F447CE00000000000000000000000000000000000000000000000000000000 DUP2 MSTORE PUSH1 0x4 ADD PUSH2 0x2C1F SWAP2 SWAP1 PUSH2 0x37EF JUMP JUMPDEST PUSH1 0x40 MLOAD DUP1 SWAP2 SUB SWAP1 REVERT JUMPDEST DUP1 MLOAD DUP2 PUSH1 0x20 ADD REVERT JUMPDEST PUSH4 0xBC197C81 PUSH1 0xE0 SHL PUSH28 0xFFFFFFFFFFFFFFFFFFFFFFFFFFFFFFFFFFFFFFFFFFFFFFFFFFFFFFFF NOT AND DUP2 PUSH28 0xFFFFFFFFFFFFFFFFFFFFFFFFFFFFFFFFFFFFFFFFFFFFFFFFFFFFFFFF NOT AND EQ PUSH2 0x2CB9 JUMPI DUP5 PUSH1 0x40 MLOAD PUSH32 0x57F447CE00000000000000000000000000000000000000000000000000000000 DUP2 MSTORE PUSH1 0x4 ADD PUSH2 0x2CB0 SWAP2 SWAP1 PUSH2 0x37EF JUMP JUMPDEST PUSH1 0x40 MLOAD DUP1 SWAP2 SUB SWAP1 REVERT JUMPDEST POP JUMPDEST POP POP POP POP POP POP JUMP JUMPDEST PUSH1 0x0 PUSH1 0x40 MLOAD SWAP1 POP SWAP1 JUMP JUMPDEST PUSH1 0x0 DUP1 REVERT JUMPDEST PUSH1 0x0 DUP1 REVERT JUMPDEST PUSH1 0x0 PUSH20 0xFFFFFFFFFFFFFFFFFFFFFFFFFFFFFFFFFFFFFFFF DUP3 AND SWAP1 POP SWAP2 SWAP1 POP JUMP JUMPDEST PUSH1 0x0 PUSH2 0x2D02 DUP3 PUSH2 0x2CD7 JUMP JUMPDEST SWAP1 POP SWAP2 SWAP1 POP JUMP JUMPDEST PUSH2 0x2D12 DUP2 PUSH2 0x2CF7 JUMP JUMPDEST DUP2 EQ PUSH2 0x2D1D JUMPI PUSH1 0x0 DUP1 REVERT JUMPDEST POP JUMP JUMPDEST PUSH1 0x0 DUP2 CALLDATALOAD SWAP1 POP PUSH2 0x2D2F DUP2 PUSH2 0x2D09 JUMP JUMPDEST SWAP3 SWAP2 POP POP JUMP JUMPDEST PUSH1 0x0 DUP2 SWAP1 POP SWAP2 SWAP1 POP JUMP JUMPDEST PUSH2 0x2D48 DUP2 PUSH2 0x2D35 JUMP JUMPDEST DUP2 EQ PUSH2 0x2D53 JUMPI PUSH1 0x0 DUP1 REVERT JUMPDEST POP JUMP JUMPDEST PUSH1 0x0 DUP2 CALLDATALOAD SWAP1 POP PUSH2 0x2D65 DUP2 PUSH2 0x2D3F JUMP JUMPDEST SWAP3 SWAP2 POP POP JUMP JUMPDEST PUSH1 0x0 DUP1 PUSH1 0x40 DUP4 DUP6 SUB SLT ISZERO PUSH2 0x2D82 JUMPI PUSH2 0x2D81 PUSH2 0x2CCD JUMP JUMPDEST JUMPDEST PUSH1 0x0 PUSH2 0x2D90 DUP6 DUP3 DUP7 ADD PUSH2 0x2D20 JUMP JUMPDEST SWAP3 POP POP PUSH1 0x20 PUSH2 0x2DA1 DUP6 DUP3 DUP7 ADD PUSH2 0x2D56 JUMP JUMPDEST SWAP2 POP POP SWAP3 POP SWAP3 SWAP1 POP JUMP JUMPDEST PUSH2 0x2DB4 DUP2 PUSH2 0x2D35 JUMP JUMPDEST DUP3 MSTORE POP POP JUMP JUMPDEST PUSH1 0x0 PUSH1 0x20 DUP3 ADD SWAP1 POP PUSH2 0x2DCF PUSH1 0x0 DUP4 ADD DUP5 PUSH2 0x2DAB JUMP JUMPDEST SWAP3 SWAP2 POP POP JUMP JUMPDEST PUSH1 0x0 DUP2 ISZERO ISZERO SWAP1 POP SWAP2 SWAP1 POP JUMP JUMPDEST PUSH2 0x2DEA DUP2 PUSH2 0x2DD5 JUMP JUMPDEST DUP2 EQ PUSH2 0x2DF5 JUMPI PUSH1 0x0 DUP1 REVERT JUMPDEST POP JUMP JUMPDEST PUSH1 0x0 DUP2 CALLDATALOAD SWAP1 POP PUSH2 0x2E07 DUP2 PUSH2 0x2DE1 JUMP JUMPDEST SWAP3 SWAP2 POP POP JUMP JUMPDEST PUSH1 0x0 PUSH1 0x20 DUP3 DUP5 SUB SLT ISZERO PUSH2 0x2E23 JUMPI PUSH2 0x2E22 PUSH2 0x2CCD JUMP JUMPDEST JUMPDEST PUSH1 0x0 PUSH2 0x2E31 DUP5 DUP3 DUP6 ADD PUSH2 0x2DF8 JUMP JUMPDEST SWAP2 POP POP SWAP3 SWAP2 POP POP JUMP JUMPDEST PUSH1 0x0 PUSH32 0xFFFFFFFF00000000000000000000000000000000000000000000000000000000 DUP3 AND SWAP1 POP SWAP2 SWAP1 POP JUMP JUMPDEST PUSH2 0x2E6F DUP2 PUSH2 0x2E3A JUMP JUMPDEST DUP2 EQ PUSH2 0x2E7A JUMPI PUSH1 0x0 DUP1 REVERT JUMPDEST POP JUMP JUMPDEST PUSH1 0x0 DUP2 CALLDATALOAD SWAP1 POP PUSH2 0x2E8C DUP2 PUSH2 0x2E66 JUMP JUMPDEST SWAP3 SWAP2 POP POP JUMP JUMPDEST PUSH1 0x0 PUSH1 0x20 DUP3 DUP5 SUB SLT ISZERO PUSH2 0x2EA8 JUMPI PUSH2 0x2EA7 PUSH2 0x2CCD JUMP JUMPDEST JUMPDEST PUSH1 0x0 PUSH2 0x2EB6 DUP5 DUP3 DUP6 ADD PUSH2 0x2E7D JUMP JUMPDEST SWAP2 POP POP SWAP3 SWAP2 POP POP JUMP JUMPDEST PUSH2 0x2EC8 DUP2 PUSH2 0x2DD5 JUMP JUMPDEST DUP3 MSTORE POP POP JUMP JUMPDEST PUSH1 0x0 PUSH1 0x20 DUP3 ADD SWAP1 POP PUSH2 0x2EE3 PUSH1 0x0 DUP4 ADD DUP5 PUSH2 0x2EBF JUMP JUMPDEST SWAP3 SWAP2 POP POP JUMP JUMPDEST PUSH1 0x0 DUP2 MLOAD SWAP1 POP SWAP2 SWAP1 POP JUMP JUMPDEST PUSH1 0x0 DUP3 DUP3 MSTORE PUSH1 0x20 DUP3 ADD SWAP1 POP SWAP3 SWAP2 POP POP JUMP JUMPDEST PUSH1 0x0 JUMPDEST DUP4 DUP2 LT ISZERO PUSH2 0x2F23 JUMPI DUP1 DUP3 ADD MLOAD DUP2 DUP5 ADD MSTORE PUSH1 0x20 DUP2 ADD SWAP1 POP PUSH2 0x2F08 JUMP JUMPDEST PUSH1 0x0 DUP5 DUP5 ADD MSTORE POP POP POP POP JUMP JUMPDEST PUSH1 0x0 PUSH1 0x1F NOT PUSH1 0x1F DUP4 ADD AND SWAP1 POP SWAP2 SWAP1 POP JUMP JUMPDEST PUSH1 0x0 PUSH2 0x2F4B DUP3 PUSH2 0x2EE9 JUMP JUMPDEST PUSH2 0x2F55 DUP2 DUP6 PUSH2 0x2EF4 JUMP JUMPDEST SWAP4 POP PUSH2 0x2F65 DUP2 DUP6 PUSH1 0x20 DUP7 ADD PUSH2 0x2F05 JUMP JUMPDEST PUSH2 0x2F6E DUP2 PUSH2 0x2F2F JUMP JUMPDEST DUP5 ADD SWAP2 POP POP SWAP3 SWAP2 POP POP JUMP JUMPDEST PUSH1 0x0 PUSH1 0x20 DUP3 ADD SWAP1 POP DUP2 DUP2 SUB PUSH1 0x0 DUP4 ADD MSTORE PUSH2 0x2F93 DUP2 DUP5 PUSH2 0x2F40 JUMP JUMPDEST SWAP1 POP SWAP3 SWAP2 POP POP JUMP JUMPDEST PUSH1 0x0 DUP1 PUSH1 0x40 DUP4 DUP6 SUB SLT ISZERO PUSH2 0x2FB2 JUMPI PUSH2 0x2FB1 PUSH2 0x2CCD JUMP JUMPDEST JUMPDEST PUSH1 0x0 PUSH2 0x2FC0 DUP6 DUP3 DUP7 ADD PUSH2 0x2D56 JUMP JUMPDEST SWAP3 POP POP PUSH1 0x20 PUSH2 0x2FD1 DUP6 DUP3 DUP7 ADD PUSH2 0x2D56 JUMP JUMPDEST SWAP2 POP POP SWAP3 POP SWAP3 SWAP1 POP JUMP JUMPDEST PUSH1 0x0 PUSH1 0x20 DUP3 DUP5 SUB SLT ISZERO PUSH2 0x2FF1 JUMPI PUSH2 0x2FF0 PUSH2 0x2CCD JUMP JUMPDEST JUMPDEST PUSH1 0x0 PUSH2 0x2FFF DUP5 DUP3 DUP6 ADD PUSH2 0x2D56 JUMP JUMPDEST SWAP2 POP POP SWAP3 SWAP2 POP POP JUMP JUMPDEST PUSH1 0x0 DUP2 MLOAD SWAP1 POP SWAP2 SWAP1 POP JUMP JUMPDEST PUSH1 0x0 DUP3 DUP3 MSTORE PUSH1 0x20 DUP3 ADD SWAP1 POP SWAP3 SWAP2 POP POP JUMP JUMPDEST PUSH1 0x0 DUP2 SWAP1 POP PUSH1 0x20 DUP3 ADD SWAP1 POP SWAP2 SWAP1 POP JUMP JUMPDEST PUSH2 0x303D DUP2 PUSH2 0x2CF7 JUMP JUMPDEST DUP3 MSTORE POP POP JUMP JUMPDEST PUSH2 0x304C DUP2 PUSH2 0x2D35 JUMP JUMPDEST DUP3 MSTORE POP POP JUMP JUMPDEST PUSH1 0x0 DUP3 DUP3 MSTORE PUSH1 0x20 DUP3 ADD SWAP1 POP SWAP3 SWAP2 POP POP JUMP JUMPDEST PUSH1 0x0 PUSH2 0x306E DUP3 PUSH2 0x2EE9 JUMP JUMPDEST PUSH2 0x3078 DUP2 DUP6 PUSH2 0x3052 JUMP JUMPDEST SWAP4 POP PUSH2 0x3088 DUP2 DUP6 PUSH1 0x20 DUP7 ADD PUSH2 0x2F05 JUMP JUMPDEST PUSH2 0x3091 DUP2 PUSH2 0x2F2F JUMP JUMPDEST DUP5 ADD SWAP2 POP POP SWAP3 SWAP2 POP POP JUMP JUMPDEST PUSH1 0x0 PUSH1 0x60 DUP4 ADD PUSH1 0x0 DUP4 ADD MLOAD PUSH2 0x30B4 PUSH1 0x0 DUP7 ADD DUP3 PUSH2 0x3034 JUMP JUMPDEST POP PUSH1 0x20 DUP4 ADD MLOAD PUSH2 0x30C7 PUSH1 0x20 DUP7 ADD DUP3 PUSH2 0x3043 JUMP JUMPDEST POP PUSH1 0x40 DUP4 ADD MLOAD DUP5 DUP3 SUB PUSH1 0x40 DUP7 ADD MSTORE PUSH2 0x30DF DUP3 DUP3 PUSH2 0x3063 JUMP JUMPDEST SWAP2 POP POP DUP1 SWAP2 POP POP SWAP3 SWAP2 POP POP JUMP JUMPDEST PUSH1 0x0 PUSH2 0x30F8 DUP4 DUP4 PUSH2 0x309C JUMP JUMPDEST SWAP1 POP SWAP3 SWAP2 POP POP JUMP JUMPDEST PUSH1 0x0 PUSH1 0x20 DUP3 ADD SWAP1 POP SWAP2 SWAP1 POP JUMP JUMPDEST PUSH1 0x0 PUSH2 0x3118 DUP3 PUSH2 0x3008 JUMP JUMPDEST PUSH2 0x3122 DUP2 DUP6 PUSH2 0x3013 JUMP JUMPDEST SWAP4 POP DUP4 PUSH1 0x20 DUP3 MUL DUP6 ADD PUSH2 0x3134 DUP6 PUSH2 0x3024 JUMP JUMPDEST DUP1 PUSH1 0x0 JUMPDEST DUP6 DUP2 LT ISZERO PUSH2 0x3170 JUMPI DUP5 DUP5 SUB DUP10 MSTORE DUP2 MLOAD PUSH2 0x3151 DUP6 DUP3 PUSH2 0x30EC JUMP JUMPDEST SWAP5 POP PUSH2 0x315C DUP4 PUSH2 0x3100 JUMP JUMPDEST SWAP3 POP PUSH1 0x20 DUP11 ADD SWAP10 POP POP PUSH1 0x1 DUP2 ADD SWAP1 POP PUSH2 0x3138 JUMP JUMPDEST POP DUP3 SWAP8 POP DUP8 SWAP6 POP POP POP POP POP POP SWAP3 SWAP2 POP POP JUMP JUMPDEST PUSH1 0x0 PUSH1 0x20 DUP3 ADD SWAP1 POP DUP2 DUP2 SUB PUSH1 0x0 DUP4 ADD MSTORE PUSH2 0x319C DUP2 DUP5 PUSH2 0x310D JUMP JUMPDEST SWAP1 POP SWAP3 SWAP2 POP POP JUMP JUMPDEST PUSH1 0x0 DUP1 REVERT JUMPDEST PUSH32 0x4E487B7100000000000000000000000000000000000000000000000000000000 PUSH1 0x0 MSTORE PUSH1 0x41 PUSH1 0x4 MSTORE PUSH1 0x24 PUSH1 0x0 REVERT JUMPDEST PUSH2 0x31E1 DUP3 PUSH2 0x2F2F JUMP JUMPDEST DUP2 ADD DUP2 DUP2 LT PUSH8 0xFFFFFFFFFFFFFFFF DUP3 GT OR ISZERO PUSH2 0x3200 JUMPI PUSH2 0x31FF PUSH2 0x31A9 JUMP JUMPDEST JUMPDEST DUP1 PUSH1 0x40 MSTORE POP POP POP JUMP JUMPDEST PUSH1 0x0 PUSH2 0x3213 PUSH2 0x2CC3 JUMP JUMPDEST SWAP1 POP PUSH2 0x321F DUP3 DUP3 PUSH2 0x31D8 JUMP JUMPDEST SWAP2 SWAP1 POP JUMP JUMPDEST PUSH1 0x0 PUSH8 0xFFFFFFFFFFFFFFFF DUP3 GT ISZERO PUSH2 0x323F JUMPI PUSH2 0x323E PUSH2 0x31A9 JUMP JUMPDEST JUMPDEST PUSH1 0x20 DUP3 MUL SWAP1 POP PUSH1 0x20 DUP2 ADD SWAP1 POP SWAP2 SWAP1 POP JUMP JUMPDEST PUSH1 0x0 DUP1 REVERT JUMPDEST PUSH1 0x0 PUSH2 0x3268 PUSH2 0x3263 DUP5 PUSH2 0x3224 JUMP JUMPDEST PUSH2 0x3209 JUMP JUMPDEST SWAP1 POP DUP1 DUP4 DUP3 MSTORE PUSH1 0x20 DUP3 ADD SWAP1 POP PUSH1 0x20 DUP5 MUL DUP4 ADD DUP6 DUP2 GT ISZERO PUSH2 0x328B JUMPI PUSH2 0x328A PUSH2 0x3250 JUMP JUMPDEST JUMPDEST DUP4 JUMPDEST DUP2 DUP2 LT ISZERO PUSH2 0x32B4 JUMPI DUP1 PUSH2 0x32A0 DUP9 DUP3 PUSH2 0x2D56 JUMP JUMPDEST DUP5 MSTORE PUSH1 0x20 DUP5 ADD SWAP4 POP POP PUSH1 0x20 DUP2 ADD SWAP1 POP PUSH2 0x328D JUMP JUMPDEST POP POP POP SWAP4 SWAP3 POP POP POP JUMP JUMPDEST PUSH1 0x0 DUP3 PUSH1 0x1F DUP4 ADD SLT PUSH2 0x32D3 JUMPI PUSH2 0x32D2 PUSH2 0x31A4 JUMP JUMPDEST JUMPDEST DUP2 CALLDATALOAD PUSH2 0x32E3 DUP5 DUP3 PUSH1 0x20 DUP7 ADD PUSH2 0x3255 JUMP JUMPDEST SWAP2 POP POP SWAP3 SWAP2 POP POP JUMP JUMPDEST PUSH1 0x0 DUP1 REVERT JUMPDEST PUSH1 0x0 PUSH8 0xFFFFFFFFFFFFFFFF DUP3 GT ISZERO PUSH2 0x330C JUMPI PUSH2 0x330B PUSH2 0x31A9 JUMP JUMPDEST JUMPDEST PUSH2 0x3315 DUP3 PUSH2 0x2F2F JUMP JUMPDEST SWAP1 POP PUSH1 0x20 DUP2 ADD SWAP1 POP SWAP2 SWAP1 POP JUMP JUMPDEST DUP3 DUP2 DUP4 CALLDATACOPY PUSH1 0x0 DUP4 DUP4 ADD MSTORE POP POP POP JUMP JUMPDEST PUSH1 0x0 PUSH2 0x3344 PUSH2 0x333F DUP5 PUSH2 0x32F1 JUMP JUMPDEST PUSH2 0x3209 JUMP JUMPDEST SWAP1 POP DUP3 DUP2 MSTORE PUSH1 0x20 DUP2 ADD DUP5 DUP5 DUP5 ADD GT ISZERO PUSH2 0x3360 JUMPI PUSH2 0x335F PUSH2 0x32EC JUMP JUMPDEST JUMPDEST PUSH2 0x336B DUP5 DUP3 DUP6 PUSH2 0x3322 JUMP JUMPDEST POP SWAP4 SWAP3 POP POP POP JUMP JUMPDEST PUSH1 0x0 DUP3 PUSH1 0x1F DUP4 ADD SLT PUSH2 0x3388 JUMPI PUSH2 0x3387 PUSH2 0x31A4 JUMP JUMPDEST JUMPDEST DUP2 CALLDATALOAD PUSH2 0x3398 DUP5 DUP3 PUSH1 0x20 DUP7 ADD PUSH2 0x3331 JUMP JUMPDEST SWAP2 POP POP SWAP3 SWAP2 POP POP JUMP JUMPDEST PUSH1 0x0 DUP1 PUSH1 0x0 DUP1 PUSH1 0x0 PUSH1 0xA0 DUP7 DUP9 SUB SLT ISZERO PUSH2 0x33BD JUMPI PUSH2 0x33BC PUSH2 0x2CCD JUMP JUMPDEST JUMPDEST PUSH1 0x0 PUSH2 0x33CB DUP9 DUP3 DUP10 ADD PUSH2 0x2D20 JUMP JUMPDEST SWAP6 POP POP PUSH1 0x20 PUSH2 0x33DC DUP9 DUP3 DUP10 ADD PUSH2 0x2D20 JUMP JUMPDEST SWAP5 POP POP PUSH1 0x40 DUP7 ADD CALLDATALOAD PUSH8 0xFFFFFFFFFFFFFFFF DUP2 GT ISZERO PUSH2 0x33FD JUMPI PUSH2 0x33FC PUSH2 0x2CD2 JUMP JUMPDEST JUMPDEST PUSH2 0x3409 DUP9 DUP3 DUP10 ADD PUSH2 0x32BE JUMP JUMPDEST SWAP4 POP POP PUSH1 0x60 DUP7 ADD CALLDATALOAD PUSH8 0xFFFFFFFFFFFFFFFF DUP2 GT ISZERO PUSH2 0x342A JUMPI PUSH2 0x3429 PUSH2 0x2CD2 JUMP JUMPDEST JUMPDEST PUSH2 0x3436 DUP9 DUP3 DUP10 ADD PUSH2 0x32BE JUMP JUMPDEST SWAP3 POP POP PUSH1 0x80 DUP7 ADD CALLDATALOAD PUSH8 0xFFFFFFFFFFFFFFFF DUP2 GT ISZERO PUSH2 0x3457 JUMPI PUSH2 0x3456 PUSH2 0x2CD2 JUMP JUMPDEST JUMPDEST PUSH2 0x3463 DUP9 DUP3 DUP10 ADD PUSH2 0x3373 JUMP JUMPDEST SWAP2 POP POP SWAP3 SWAP6 POP SWAP3 SWAP6 SWAP1 SWAP4 POP JUMP JUMPDEST PUSH1 0x0 PUSH8 0xFFFFFFFFFFFFFFFF DUP3 GT ISZERO PUSH2 0x348B JUMPI PUSH2 0x348A PUSH2 0x31A9 JUMP JUMPDEST JUMPDEST PUSH1 0x20 DUP3 MUL SWAP1 POP PUSH1 0x20 DUP2 ADD SWAP1 POP SWAP2 SWAP1 POP JUMP JUMPDEST PUSH1 0x0 PUSH2 0x34AF PUSH2 0x34AA DUP5 PUSH2 0x3470 JUMP JUMPDEST PUSH2 0x3209 JUMP JUMPDEST SWAP1 POP DUP1 DUP4 DUP3 MSTORE PUSH1 0x20 DUP3 ADD SWAP1 POP PUSH1 0x20 DUP5 MUL DUP4 ADD DUP6 DUP2 GT ISZERO PUSH2 0x34D2 JUMPI PUSH2 0x34D1 PUSH2 0x3250 JUMP JUMPDEST JUMPDEST DUP4 JUMPDEST DUP2 DUP2 LT ISZERO PUSH2 0x34FB JUMPI DUP1 PUSH2 0x34E7 DUP9 DUP3 PUSH2 0x2D20 JUMP JUMPDEST DUP5 MSTORE PUSH1 0x20 DUP5 ADD SWAP4 POP POP PUSH1 0x20 DUP2 ADD SWAP1 POP PUSH2 0x34D4 JUMP JUMPDEST POP POP POP SWAP4 SWAP3 POP POP POP JUMP JUMPDEST PUSH1 0x0 DUP3 PUSH1 0x1F DUP4 ADD SLT PUSH2 0x351A JUMPI PUSH2 0x3519 PUSH2 0x31A4 JUMP JUMPDEST JUMPDEST DUP2 CALLDATALOAD PUSH2 0x352A DUP5 DUP3 PUSH1 0x20 DUP7 ADD PUSH2 0x349C JUMP JUMPDEST SWAP2 POP POP SWAP3 SWAP2 POP POP JUMP JUMPDEST PUSH1 0x0 DUP1 PUSH1 0x40 DUP4 DUP6 SUB SLT ISZERO PUSH2 0x354A JUMPI PUSH2 0x3549 PUSH2 0x2CCD JUMP JUMPDEST JUMPDEST PUSH1 0x0 DUP4 ADD CALLDATALOAD PUSH8 0xFFFFFFFFFFFFFFFF DUP2 GT ISZERO PUSH2 0x3568 JUMPI PUSH2 0x3567 PUSH2 0x2CD2 JUMP JUMPDEST JUMPDEST PUSH2 0x3574 DUP6 DUP3 DUP7 ADD PUSH2 0x3505 JUMP JUMPDEST SWAP3 POP POP PUSH1 0x20 DUP4 ADD CALLDATALOAD PUSH8 0xFFFFFFFFFFFFFFFF DUP2 GT ISZERO PUSH2 0x3595 JUMPI PUSH2 0x3594 PUSH2 0x2CD2 JUMP JUMPDEST JUMPDEST PUSH2 0x35A1 DUP6 DUP3 DUP7 ADD PUSH2 0x32BE JUMP JUMPDEST SWAP2 POP POP SWAP3 POP SWAP3 SWAP1 POP JUMP JUMPDEST PUSH1 0x0 DUP2 MLOAD SWAP1 POP SWAP2 SWAP1 POP JUMP JUMPDEST PUSH1 0x0 DUP3 DUP3 MSTORE PUSH1 0x20 DUP3 ADD SWAP1 POP SWAP3 SWAP2 POP POP JUMP JUMPDEST PUSH1 0x0 DUP2 SWAP1 POP PUSH1 0x20 DUP3 ADD SWAP1 POP SWAP2 SWAP1 POP JUMP JUMPDEST PUSH1 0x0 PUSH2 0x35E3 DUP4 DUP4 PUSH2 0x3043 JUMP JUMPDEST PUSH1 0x20 DUP4 ADD SWAP1 POP SWAP3 SWAP2 POP POP JUMP JUMPDEST PUSH1 0x0 PUSH1 0x20 DUP3 ADD SWAP1 POP SWAP2 SWAP1 POP JUMP JUMPDEST PUSH1 0x0 PUSH2 0x3607 DUP3 PUSH2 0x35AB JUMP JUMPDEST PUSH2 0x3611 DUP2 DUP6 PUSH2 0x35B6 JUMP JUMPDEST SWAP4 POP PUSH2 0x361C DUP4 PUSH2 0x35C7 JUMP JUMPDEST DUP1 PUSH1 0x0 JUMPDEST DUP4 DUP2 LT ISZERO PUSH2 0x364D JUMPI DUP2 MLOAD PUSH2 0x3634 DUP9 DUP3 PUSH2 0x35D7 JUMP JUMPDEST SWAP8 POP PUSH2 0x363F DUP4 PUSH2 0x35EF JUMP JUMPDEST SWAP3 POP POP PUSH1 0x1 DUP2 ADD SWAP1 POP PUSH2 0x3620 JUMP JUMPDEST POP DUP6 SWAP4 POP POP POP POP SWAP3 SWAP2 POP POP JUMP JUMPDEST PUSH1 0x0 PUSH1 0x20 DUP3 ADD SWAP1 POP DUP2 DUP2 SUB PUSH1 0x0 DUP4 ADD MSTORE PUSH2 0x3674 DUP2 DUP5 PUSH2 0x35FC JUMP JUMPDEST SWAP1 POP SWAP3 SWAP2 POP POP JUMP JUMPDEST PUSH1 0x0 DUP2 SWAP1 POP SWAP2 SWAP1 POP JUMP JUMPDEST PUSH1 0x0 PUSH2 0x36A1 PUSH2 0x369C PUSH2 0x3697 DUP5 PUSH2 0x2CD7 JUMP JUMPDEST PUSH2 0x367C JUMP JUMPDEST PUSH2 0x2CD7 JUMP JUMPDEST SWAP1 POP SWAP2 SWAP1 POP JUMP JUMPDEST PUSH1 0x0 PUSH2 0x36B3 DUP3 PUSH2 0x3686 JUMP JUMPDEST SWAP1 POP SWAP2 SWAP1 POP JUMP JUMPDEST PUSH1 0x0 PUSH2 0x36C5 DUP3 PUSH2 0x36A8 JUMP JUMPDEST SWAP1 POP SWAP2 SWAP1 POP JUMP JUMPDEST PUSH2 0x36D5 DUP2 PUSH2 0x36BA JUMP JUMPDEST DUP3 MSTORE POP POP JUMP JUMPDEST PUSH1 0x0 PUSH1 0x20 DUP3 ADD SWAP1 POP PUSH2 0x36F0 PUSH1 0x0 DUP4 ADD DUP5 PUSH2 0x36CC JUMP JUMPDEST SWAP3 SWAP2 POP POP JUMP JUMPDEST PUSH1 0x0 PUSH8 0xFFFFFFFFFFFFFFFF DUP3 GT ISZERO PUSH2 0x3711 JUMPI PUSH2 0x3710 PUSH2 0x31A9 JUMP JUMPDEST JUMPDEST PUSH2 0x371A DUP3 PUSH2 0x2F2F JUMP JUMPDEST SWAP1 POP PUSH1 0x20 DUP2 ADD SWAP1 POP SWAP2 SWAP1 POP JUMP JUMPDEST PUSH1 0x0 PUSH2 0x373A PUSH2 0x3735 DUP5 PUSH2 0x36F6 JUMP JUMPDEST PUSH2 0x3209 JUMP JUMPDEST SWAP1 POP DUP3 DUP2 MSTORE PUSH1 0x20 DUP2 ADD DUP5 DUP5 DUP5 ADD GT ISZERO PUSH2 0x3756 JUMPI PUSH2 0x3755 PUSH2 0x32EC JUMP JUMPDEST JUMPDEST PUSH2 0x3761 DUP5 DUP3 DUP6 PUSH2 0x3322 JUMP JUMPDEST POP SWAP4 SWAP3 POP POP POP JUMP JUMPDEST PUSH1 0x0 DUP3 PUSH1 0x1F DUP4 ADD SLT PUSH2 0x377E JUMPI PUSH2 0x377D PUSH2 0x31A4 JUMP JUMPDEST JUMPDEST DUP2 CALLDATALOAD PUSH2 0x378E DUP5 DUP3 PUSH1 0x20 DUP7 ADD PUSH2 0x3727 JUMP JUMPDEST SWAP2 POP POP SWAP3 SWAP2 POP POP JUMP JUMPDEST PUSH1 0x0 PUSH1 0x20 DUP3 DUP5 SUB SLT ISZERO PUSH2 0x37AD JUMPI PUSH2 0x37AC PUSH2 0x2CCD JUMP JUMPDEST JUMPDEST PUSH1 0x0 DUP3 ADD CALLDATALOAD PUSH8 0xFFFFFFFFFFFFFFFF DUP2 GT ISZERO PUSH2 0x37CB JUMPI PUSH2 0x37CA PUSH2 0x2CD2 JUMP JUMPDEST JUMPDEST PUSH2 0x37D7 DUP5 DUP3 DUP6 ADD PUSH2 0x3769 JUMP JUMPDEST SWAP2 POP POP SWAP3 SWAP2 POP POP JUMP JUMPDEST PUSH2 0x37E9 DUP2 PUSH2 0x2CF7 JUMP JUMPDEST DUP3 MSTORE POP POP JUMP JUMPDEST PUSH1 0x0 PUSH1 0x20 DUP3 ADD SWAP1 POP PUSH2 0x3804 PUSH1 0x0 DUP4 ADD DUP5 PUSH2 0x37E0 JUMP JUMPDEST SWAP3 SWAP2 POP POP JUMP JUMPDEST PUSH1 0x0 DUP1 PUSH1 0x40 DUP4 DUP6 SUB SLT ISZERO PUSH2 0x3821 JUMPI PUSH2 0x3820 PUSH2 0x2CCD JUMP JUMPDEST JUMPDEST PUSH1 0x0 PUSH2 0x382F DUP6 DUP3 DUP7 ADD PUSH2 0x2D20 JUMP JUMPDEST SWAP3 POP POP PUSH1 0x20 PUSH2 0x3840 DUP6 DUP3 DUP7 ADD PUSH2 0x2DF8 JUMP JUMPDEST SWAP2 POP POP SWAP3 POP SWAP3 SWAP1 POP JUMP JUMPDEST PUSH1 0x0 DUP1 PUSH1 0x0 PUSH1 0x60 DUP5 DUP7 SUB SLT ISZERO PUSH2 0x3863 JUMPI PUSH2 0x3862 PUSH2 0x2CCD JUMP JUMPDEST JUMPDEST PUSH1 0x0 PUSH2 0x3871 DUP7 DUP3 DUP8 ADD PUSH2 0x2D20 JUMP JUMPDEST SWAP4 POP POP PUSH1 0x20 PUSH2 0x3882 DUP7 DUP3 DUP8 ADD PUSH2 0x2D56 JUMP JUMPDEST SWAP3 POP POP PUSH1 0x40 PUSH2 0x3893 DUP7 DUP3 DUP8 ADD PUSH2 0x2DF8 JUMP JUMPDEST SWAP2 POP POP SWAP3 POP SWAP3 POP SWAP3 JUMP JUMPDEST PUSH1 0x0 PUSH1 0x60 DUP3 ADD SWAP1 POP PUSH2 0x38B2 PUSH1 0x0 DUP4 ADD DUP7 PUSH2 0x37E0 JUMP JUMPDEST PUSH2 0x38BF PUSH1 0x20 DUP4 ADD DUP6 PUSH2 0x2DAB JUMP JUMPDEST DUP2 DUP2 SUB PUSH1 0x40 DUP4 ADD MSTORE PUSH2 0x38D1 DUP2 DUP5 PUSH2 0x2F40 JUMP JUMPDEST SWAP1 POP SWAP5 SWAP4 POP POP POP POP JUMP JUMPDEST PUSH1 0x0 DUP1 PUSH1 0x40 DUP4 DUP6 SUB SLT ISZERO PUSH2 0x38F2 JUMPI PUSH2 0x38F1 PUSH2 0x2CCD JUMP JUMPDEST JUMPDEST PUSH1 0x0 PUSH2 0x3900 DUP6 DUP3 DUP7 ADD PUSH2 0x2D20 JUMP JUMPDEST SWAP3 POP POP PUSH1 0x20 PUSH2 0x3911 DUP6 DUP3 DUP7 ADD PUSH2 0x2D20 JUMP JUMPDEST SWAP2 POP POP SWAP3 POP SWAP3 SWAP1 POP JUMP JUMPDEST PUSH1 0x0 DUP1 PUSH1 0x0 DUP1 PUSH1 0x0 PUSH1 0xA0 DUP7 DUP9 SUB SLT ISZERO PUSH2 0x3937 JUMPI PUSH2 0x3936 PUSH2 0x2CCD JUMP JUMPDEST JUMPDEST PUSH1 0x0 PUSH2 0x3945 DUP9 DUP3 DUP10 ADD PUSH2 0x2D20 JUMP JUMPDEST SWAP6 POP POP PUSH1 0x20 PUSH2 0x3956 DUP9 DUP3 DUP10 ADD PUSH2 0x2D20 JUMP JUMPDEST SWAP5 POP POP PUSH1 0x40 PUSH2 0x3967 DUP9 DUP3 DUP10 ADD PUSH2 0x2D56 JUMP JUMPDEST SWAP4 POP POP PUSH1 0x60 PUSH2 0x3978 DUP9 DUP3 DUP10 ADD PUSH2 0x2D56 JUMP JUMPDEST SWAP3 POP POP PUSH1 0x80 DUP7 ADD CALLDATALOAD PUSH8 0xFFFFFFFFFFFFFFFF DUP2 GT ISZERO PUSH2 0x3999 JUMPI PUSH2 0x3998 PUSH2 0x2CD2 JUMP JUMPDEST JUMPDEST PUSH2 0x39A5 DUP9 DUP3 DUP10 ADD PUSH2 0x3373 JUMP JUMPDEST SWAP2 POP POP SWAP3 SWAP6 POP SWAP3 SWAP6 SWAP1 SWAP4 POP JUMP JUMPDEST PUSH1 0x0 PUSH1 0x20 DUP3 DUP5 SUB SLT ISZERO PUSH2 0x39C8 JUMPI PUSH2 0x39C7 PUSH2 0x2CCD JUMP JUMPDEST JUMPDEST PUSH1 0x0 PUSH2 0x39D6 DUP5 DUP3 DUP6 ADD PUSH2 0x2D20 JUMP JUMPDEST SWAP2 POP POP SWAP3 SWAP2 POP POP JUMP JUMPDEST PUSH32 0x4E487B7100000000000000000000000000000000000000000000000000000000 PUSH1 0x0 MSTORE PUSH1 0x22 PUSH1 0x4 MSTORE PUSH1 0x24 PUSH1 0x0 REVERT JUMPDEST PUSH1 0x0 PUSH1 0x2 DUP3 DIV SWAP1 POP PUSH1 0x1 DUP3 AND DUP1 PUSH2 0x3A26 JUMPI PUSH1 0x7F DUP3 AND SWAP2 POP JUMPDEST PUSH1 0x20 DUP3 LT DUP2 SUB PUSH2 0x3A39 JUMPI PUSH2 0x3A38 PUSH2 0x39DF JUMP JUMPDEST JUMPDEST POP SWAP2 SWAP1 POP JUMP JUMPDEST PUSH32 0x5175616E74697479206D7573742062652067726561746572207468616E207A65 PUSH1 0x0 DUP3 ADD MSTORE PUSH32 0x726F000000000000000000000000000000000000000000000000000000000000 PUSH1 0x20 DUP3 ADD MSTORE POP JUMP JUMPDEST PUSH1 0x0 PUSH2 0x3A9B PUSH1 0x22 DUP4 PUSH2 0x2EF4 JUMP JUMPDEST SWAP2 POP PUSH2 0x3AA6 DUP3 PUSH2 0x3A3F JUMP JUMPDEST PUSH1 0x40 DUP3 ADD SWAP1 POP SWAP2 SWAP1 POP JUMP JUMPDEST PUSH1 0x0 PUSH1 0x20 DUP3 ADD SWAP1 POP DUP2 DUP2 SUB PUSH1 0x0 DUP4 ADD MSTORE PUSH2 0x3ACA DUP2 PUSH2 0x3A8E JUMP JUMPDEST SWAP1 POP SWAP2 SWAP1 POP JUMP JUMPDEST PUSH32 0x4E487B7100000000000000000000000000000000000000000000000000000000 PUSH1 0x0 MSTORE PUSH1 0x11 PUSH1 0x4 MSTORE PUSH1 0x24 PUSH1 0x0 REVERT JUMPDEST PUSH1 0x0 PUSH2 0x3B0B DUP3 PUSH2 0x2D35 JUMP JUMPDEST SWAP2 POP PUSH2 0x3B16 DUP4 PUSH2 0x2D35 JUMP JUMPDEST SWAP3 POP DUP3 DUP3 ADD SWAP1 POP DUP1 DUP3 GT ISZERO PUSH2 0x3B2E JUMPI PUSH2 0x3B2D PUSH2 0x3AD1 JUMP JUMPDEST JUMPDEST SWAP3 SWAP2 POP POP JUMP JUMPDEST PUSH32 0x45786365656473206D6178696D756D20737570706C7900000000000000000000 PUSH1 0x0 DUP3 ADD MSTORE POP JUMP JUMPDEST PUSH1 0x0 PUSH2 0x3B6A PUSH1 0x16 DUP4 PUSH2 0x2EF4 JUMP JUMPDEST SWAP2 POP PUSH2 0x3B75 DUP3 PUSH2 0x3B34 JUMP JUMPDEST PUSH1 0x20 DUP3 ADD SWAP1 POP SWAP2 SWAP1 POP JUMP JUMPDEST PUSH1 0x0 PUSH1 0x20 DUP3 ADD SWAP1 POP DUP2 DUP2 SUB PUSH1 0x0 DUP4 ADD MSTORE PUSH2 0x3B99 DUP2 PUSH2 0x3B5D JUMP JUMPDEST SWAP1 POP SWAP2 SWAP1 POP JUMP JUMPDEST PUSH1 0x0 PUSH2 0x3BAB DUP3 PUSH2 0x2D35 JUMP JUMPDEST SWAP2 POP PUSH2 0x3BB6 DUP4 PUSH2 0x2D35 JUMP JUMPDEST SWAP3 POP DUP3 DUP3 MUL PUSH2 0x3BC4 DUP2 PUSH2 0x2D35 JUMP JUMPDEST SWAP2 POP DUP3 DUP3 DIV DUP5 EQ DUP4 ISZERO OR PUSH2 0x3BDB JUMPI PUSH2 0x3BDA PUSH2 0x3AD1 JUMP JUMPDEST JUMPDEST POP SWAP3 SWAP2 POP POP JUMP JUMPDEST PUSH1 0x0 PUSH1 0x60 DUP3 ADD SWAP1 POP PUSH2 0x3BF7 PUSH1 0x0 DUP4 ADD DUP7 PUSH2 0x37E0 JUMP JUMPDEST PUSH2 0x3C04 PUSH1 0x20 DUP4 ADD DUP6 PUSH2 0x37E0 JUMP JUMPDEST PUSH2 0x3C11 PUSH1 0x40 DUP4 ADD DUP5 PUSH2 0x2DAB JUMP JUMPDEST SWAP5 SWAP4 POP POP POP POP JUMP JUMPDEST PUSH1 0x0 DUP2 MLOAD SWAP1 POP PUSH2 0x3C28 DUP2 PUSH2 0x2DE1 JUMP JUMPDEST SWAP3 SWAP2 POP POP JUMP JUMPDEST PUSH1 0x0 PUSH1 0x20 DUP3 DUP5 SUB SLT ISZERO PUSH2 0x3C44 JUMPI PUSH2 0x3C43 PUSH2 0x2CCD JUMP JUMPDEST JUMPDEST PUSH1 0x0 PUSH2 0x3C52 DUP5 DUP3 DUP6 ADD PUSH2 0x3C19 JUMP JUMPDEST SWAP2 POP POP SWAP3 SWAP2 POP POP JUMP JUMPDEST PUSH32 0x4552433230207472616E73666572206661696C65640000000000000000000000 PUSH1 0x0 DUP3 ADD MSTORE POP JUMP JUMPDEST PUSH1 0x0 PUSH2 0x3C91 PUSH1 0x15 DUP4 PUSH2 0x2EF4 JUMP JUMPDEST SWAP2 POP PUSH2 0x3C9C DUP3 PUSH2 0x3C5B JUMP JUMPDEST PUSH1 0x20 DUP3 ADD SWAP1 POP SWAP2 SWAP1 POP JUMP JUMPDEST PUSH1 0x0 PUSH1 0x20 DUP3 ADD SWAP1 POP DUP2 DUP2 SUB PUSH1 0x0 DUP4 ADD MSTORE PUSH2 0x3CC0 DUP2 PUSH2 0x3C84 JUMP JUMPDEST SWAP1 POP SWAP2 SWAP1 POP JUMP JUMPDEST PUSH32 0x4E487B7100000000000000000000000000000000000000000000000000000000 PUSH1 0x0 MSTORE PUSH1 0x32 PUSH1 0x4 MSTORE PUSH1 0x24 PUSH1 0x0 REVERT JUMPDEST PUSH1 0x0 PUSH2 0x3D01 DUP3 PUSH2 0x2D35 JUMP JUMPDEST SWAP2 POP PUSH32 0xFFFFFFFFFFFFFFFFFFFFFFFFFFFFFFFFFFFFFFFFFFFFFFFFFFFFFFFFFFFFFFFF DUP3 SUB PUSH2 0x3D33 JUMPI PUSH2 0x3D32 PUSH2 0x3AD1 JUMP JUMPDEST JUMPDEST PUSH1 0x1 DUP3 ADD SWAP1 POP SWAP2 SWAP1 POP JUMP JUMPDEST PUSH1 0x0 DUP2 SWAP1 POP DUP2 PUSH1 0x0 MSTORE PUSH1 0x20 PUSH1 0x0 KECCAK256 SWAP1 POP SWAP2 SWAP1 POP JUMP JUMPDEST PUSH1 0x0 PUSH1 0x20 PUSH1 0x1F DUP4 ADD DIV SWAP1 POP SWAP2 SWAP1 POP JUMP JUMPDEST PUSH1 0x0 DUP3 DUP3 SHL SWAP1 POP SWAP3 SWAP2 POP POP JUMP JUMPDEST PUSH1 0x0 PUSH1 0x8 DUP4 MUL PUSH2 0x3DA0 PUSH32 0xFFFFFFFFFFFFFFFFFFFFFFFFFFFFFFFFFFFFFFFFFFFFFFFFFFFFFFFFFFFFFFFF DUP3 PUSH2 0x3D63 JUMP JUMPDEST PUSH2 0x3DAA DUP7 DUP4 PUSH2 0x3D63 JUMP JUMPDEST SWAP6 POP DUP1 NOT DUP5 AND SWAP4 POP DUP1 DUP7 AND DUP5 OR SWAP3 POP POP POP SWAP4 SWAP3 POP POP POP JUMP JUMPDEST PUSH1 0x0 PUSH2 0x3DDD PUSH2 0x3DD8 PUSH2 0x3DD3 DUP5 PUSH2 0x2D35 JUMP JUMPDEST PUSH2 0x367C JUMP JUMPDEST PUSH2 0x2D35 JUMP JUMPDEST SWAP1 POP SWAP2 SWAP1 POP JUMP JUMPDEST PUSH1 0x0 DUP2 SWAP1 POP SWAP2 SWAP1 POP JUMP JUMPDEST PUSH2 0x3DF7 DUP4 PUSH2 0x3DC2 JUMP JUMPDEST PUSH2 0x3E0B PUSH2 0x3E03 DUP3 PUSH2 0x3DE4 JUMP JUMPDEST DUP5 DUP5 SLOAD PUSH2 0x3D70 JUMP JUMPDEST DUP3 SSTORE POP POP POP POP JUMP JUMPDEST PUSH1 0x0 SWAP1 JUMP JUMPDEST PUSH2 0x3E20 PUSH2 0x3E13 JUMP JUMPDEST PUSH2 0x3E2B DUP2 DUP5 DUP5 PUSH2 0x3DEE JUMP JUMPDEST POP POP POP JUMP JUMPDEST JUMPDEST DUP2 DUP2 LT ISZERO PUSH2 0x3E4F JUMPI PUSH2 0x3E44 PUSH1 0x0 DUP3 PUSH2 0x3E18 JUMP JUMPDEST PUSH1 0x1 DUP2 ADD SWAP1 POP PUSH2 0x3E31 JUMP JUMPDEST POP POP JUMP JUMPDEST PUSH1 0x1F DUP3 GT ISZERO PUSH2 0x3E94 JUMPI PUSH2 0x3E65 DUP2 PUSH2 0x3D3E JUMP JUMPDEST PUSH2 0x3E6E DUP5 PUSH2 0x3D53 JUMP JUMPDEST DUP2 ADD PUSH1 0x20 DUP6 LT ISZERO PUSH2 0x3E7D JUMPI DUP2 SWAP1 POP JUMPDEST PUSH2 0x3E91 PUSH2 0x3E89 DUP6 PUSH2 0x3D53 JUMP JUMPDEST DUP4 ADD DUP3 PUSH2 0x3E30 JUMP JUMPDEST POP POP JUMPDEST POP POP POP JUMP JUMPDEST PUSH1 0x0 DUP3 DUP3 SHR SWAP1 POP SWAP3 SWAP2 POP POP JUMP JUMPDEST PUSH1 0x0 PUSH2 0x3EB7 PUSH1 0x0 NOT DUP5 PUSH1 0x8 MUL PUSH2 0x3E99 JUMP JUMPDEST NOT DUP1 DUP4 AND SWAP2 POP POP SWAP3 SWAP2 POP POP JUMP JUMPDEST PUSH1 0x0 PUSH2 0x3ED0 DUP4 DUP4 PUSH2 0x3EA6 JUMP JUMPDEST SWAP2 POP DUP3 PUSH1 0x2 MUL DUP3 OR SWAP1 POP SWAP3 SWAP2 POP POP JUMP JUMPDEST PUSH2 0x3EE9 DUP3 PUSH2 0x2EE9 JUMP JUMPDEST PUSH8 0xFFFFFFFFFFFFFFFF DUP2 GT ISZERO PUSH2 0x3F02 JUMPI PUSH2 0x3F01 PUSH2 0x31A9 JUMP JUMPDEST JUMPDEST PUSH2 0x3F0C DUP3 SLOAD PUSH2 0x3A0E JUMP JUMPDEST PUSH2 0x3F17 DUP3 DUP3 DUP6 PUSH2 0x3E53 JUMP JUMPDEST PUSH1 0x0 PUSH1 0x20 SWAP1 POP PUSH1 0x1F DUP4 GT PUSH1 0x1 DUP2 EQ PUSH2 0x3F4A JUMPI PUSH1 0x0 DUP5 ISZERO PUSH2 0x3F38 JUMPI DUP3 DUP8 ADD MLOAD SWAP1 POP JUMPDEST PUSH2 0x3F42 DUP6 DUP3 PUSH2 0x3EC4 JUMP JUMPDEST DUP7 SSTORE POP PUSH2 0x3FAA JUMP JUMPDEST PUSH1 0x1F NOT DUP5 AND PUSH2 0x3F58 DUP7 PUSH2 0x3D3E JUMP JUMPDEST PUSH1 0x0 JUMPDEST DUP3 DUP2 LT ISZERO PUSH2 0x3F80 JUMPI DUP5 DUP10 ADD MLOAD DUP3 SSTORE PUSH1 0x1 DUP3 ADD SWAP2 POP PUSH1 0x20 DUP6 ADD SWAP5 POP PUSH1 0x20 DUP2 ADD SWAP1 POP PUSH2 0x3F5B JUMP JUMPDEST DUP7 DUP4 LT ISZERO PUSH2 0x3F9D JUMPI DUP5 DUP10 ADD MLOAD PUSH2 0x3F99 PUSH1 0x1F DUP10 AND DUP3 PUSH2 0x3EA6 JUMP JUMPDEST DUP4 SSTORE POP JUMPDEST PUSH1 0x1 PUSH1 0x2 DUP9 MUL ADD DUP9 SSTORE POP POP POP JUMPDEST POP POP POP POP POP POP JUMP JUMPDEST PUSH1 0x0 PUSH1 0x40 DUP3 ADD SWAP1 POP PUSH2 0x3FC7 PUSH1 0x0 DUP4 ADD DUP6 PUSH2 0x2DAB JUMP JUMPDEST PUSH2 0x3FD4 PUSH1 0x20 DUP4 ADD DUP5 PUSH2 0x2DAB JUMP JUMPDEST SWAP4 SWAP3 POP POP POP JUMP JUMPDEST PUSH1 0x0 DUP2 SWAP1 POP SWAP3 SWAP2 POP POP JUMP JUMPDEST PUSH1 0x0 DUP2 SLOAD PUSH2 0x3FF3 DUP2 PUSH2 0x3A0E JUMP JUMPDEST PUSH2 0x3FFD DUP2 DUP7 PUSH2 0x3FDB JUMP JUMPDEST SWAP5 POP PUSH1 0x1 DUP3 AND PUSH1 0x0 DUP2 EQ PUSH2 0x4018 JUMPI PUSH1 0x1 DUP2 EQ PUSH2 0x402D JUMPI PUSH2 0x4060 JUMP JUMPDEST PUSH1 0xFF NOT DUP4 AND DUP7 MSTORE DUP2 ISZERO ISZERO DUP3 MUL DUP7 ADD SWAP4 POP PUSH2 0x4060 JUMP JUMPDEST PUSH2 0x4036 DUP6 PUSH2 0x3D3E JUMP JUMPDEST PUSH1 0x0 JUMPDEST DUP4 DUP2 LT ISZERO PUSH2 0x4058 JUMPI DUP2 SLOAD DUP2 DUP10 ADD MSTORE PUSH1 0x1 DUP3 ADD SWAP2 POP PUSH1 0x20 DUP2 ADD SWAP1 POP PUSH2 0x4039 JUMP JUMPDEST DUP4 DUP9 ADD SWAP6 POP POP POP JUMPDEST POP POP POP SWAP3 SWAP2 POP POP JUMP JUMPDEST PUSH1 0x0 PUSH2 0x4074 DUP3 PUSH2 0x2EE9 JUMP JUMPDEST PUSH2 0x407E DUP2 DUP6 PUSH2 0x3FDB JUMP JUMPDEST SWAP4 POP PUSH2 0x408E DUP2 DUP6 PUSH1 0x20 DUP7 ADD PUSH2 0x2F05 JUMP JUMPDEST DUP1 DUP5 ADD SWAP2 POP POP SWAP3 SWAP2 POP POP JUMP JUMPDEST PUSH32 0x2E6A736F6E000000000000000000000000000000000000000000000000000000 PUSH1 0x0 DUP3 ADD MSTORE POP JUMP JUMPDEST PUSH1 0x0 PUSH2 0x40D0 PUSH1 0x5 DUP4 PUSH2 0x3FDB JUMP JUMPDEST SWAP2 POP PUSH2 0x40DB DUP3 PUSH2 0x409A JUMP JUMPDEST PUSH1 0x5 DUP3 ADD SWAP1 POP SWAP2 SWAP1 POP JUMP JUMPDEST PUSH1 0x0 PUSH2 0x40F2 DUP3 DUP6 PUSH2 0x3FE6 JUMP JUMPDEST SWAP2 POP PUSH2 0x40FE DUP3 DUP5 PUSH2 0x4069 JUMP JUMPDEST SWAP2 POP PUSH2 0x4109 DUP3 PUSH2 0x40C3 JUMP JUMPDEST SWAP2 POP DUP2 SWAP1 POP SWAP4 SWAP3 POP POP POP JUMP JUMPDEST PUSH1 0x0 PUSH1 0x40 DUP3 ADD SWAP1 POP PUSH2 0x412A PUSH1 0x0 DUP4 ADD DUP6 PUSH2 0x37E0 JUMP JUMPDEST PUSH2 0x4137 PUSH1 0x20 DUP4 ADD DUP5 PUSH2 0x37E0 JUMP JUMPDEST SWAP4 SWAP3 POP POP POP JUMP JUMPDEST PUSH32 0x5553445420707572636861736573206172652064697361626C65640000000000 PUSH1 0x0 DUP3 ADD MSTORE POP JUMP JUMPDEST PUSH1 0x0 PUSH2 0x4174 PUSH1 0x1B DUP4 PUSH2 0x2EF4 JUMP JUMPDEST SWAP2 POP PUSH2 0x417F DUP3 PUSH2 0x413E JUMP JUMPDEST PUSH1 0x20 DUP3 ADD SWAP1 POP SWAP2 SWAP1 POP JUMP JUMPDEST PUSH1 0x0 PUSH1 0x20 DUP3 ADD SWAP1 POP DUP2 DUP2 SUB PUSH1 0x0 DUP4 ADD MSTORE PUSH2 0x41A3 DUP2 PUSH2 0x4167 JUMP JUMPDEST SWAP1 POP SWAP2 SWAP1 POP JUMP JUMPDEST PUSH32 0x55534454207472616E73666572206661696C6564000000000000000000000000 PUSH1 0x0 DUP3 ADD MSTORE POP JUMP JUMPDEST PUSH1 0x0 PUSH2 0x41E0 PUSH1 0x14 DUP4 PUSH2 0x2EF4 JUMP JUMPDEST SWAP2 POP PUSH2 0x41EB DUP3 PUSH2 0x41AA JUMP JUMPDEST PUSH1 0x20 DUP3 ADD SWAP1 POP SWAP2 SWAP1 POP JUMP JUMPDEST PUSH1 0x0 PUSH1 0x20 DUP3 ADD SWAP1 POP DUP2 DUP2 SUB PUSH1 0x0 DUP4 ADD MSTORE PUSH2 0x420F DUP2 PUSH2 0x41D3 JUMP JUMPDEST SWAP1 POP SWAP2 SWAP1 POP JUMP JUMPDEST PUSH1 0x0 DUP2 MLOAD SWAP1 POP PUSH2 0x4225 DUP2 PUSH2 0x2D3F JUMP JUMPDEST SWAP3 SWAP2 POP POP JUMP JUMPDEST PUSH1 0x0 PUSH1 0x20 DUP3 DUP5 SUB SLT ISZERO PUSH2 0x4241 JUMPI PUSH2 0x4240 PUSH2 0x2CCD JUMP JUMPDEST JUMPDEST PUSH1 0x0 PUSH2 0x424F DUP5 DUP3 DUP6 ADD PUSH2 0x4216 JUMP JUMPDEST SWAP2 POP POP SWAP3 SWAP2 POP POP JUMP JUMPDEST PUSH32 0x496E73756666696369656E742062616C616E636520666F722077697468647261 PUSH1 0x0 DUP3 ADD MSTORE PUSH32 0x77616C0000000000000000000000000000000000000000000000000000000000 PUSH1 0x20 DUP3 ADD MSTORE POP JUMP JUMPDEST PUSH1 0x0 PUSH2 0x42B4 PUSH1 0x23 DUP4 PUSH2 0x2EF4 JUMP JUMPDEST SWAP2 POP PUSH2 0x42BF DUP3 PUSH2 0x4258 JUMP JUMPDEST PUSH1 0x40 DUP3 ADD SWAP1 POP SWAP2 SWAP1 POP JUMP JUMPDEST PUSH1 0x0 PUSH1 0x20 DUP3 ADD SWAP1 POP DUP2 DUP2 SUB PUSH1 0x0 DUP4 ADD MSTORE PUSH2 0x42E3 DUP2 PUSH2 0x42A7 JUMP JUMPDEST SWAP1 POP SWAP2 SWAP1 POP JUMP JUMPDEST PUSH1 0x0 PUSH1 0x40 DUP3 ADD SWAP1 POP PUSH2 0x42FF PUSH1 0x0 DUP4 ADD DUP6 PUSH2 0x37E0 JUMP JUMPDEST PUSH2 0x430C PUSH1 0x20 DUP4 ADD DUP5 PUSH2 0x2DAB JUMP JUMPDEST SWAP4 SWAP3 POP POP POP JUMP JUMPDEST PUSH32 0x5769746864726177616C206661696C6564000000000000000000000000000000 PUSH1 0x0 DUP3 ADD MSTORE POP JUMP JUMPDEST PUSH1 0x0 PUSH2 0x4349 PUSH1 0x11 DUP4 PUSH2 0x2EF4 JUMP JUMPDEST SWAP2 POP PUSH2 0x4354 DUP3 PUSH2 0x4313 JUMP JUMPDEST PUSH1 0x20 DUP3 ADD SWAP1 POP SWAP2 SWAP1 POP JUMP JUMPDEST PUSH1 0x0 PUSH1 0x20 DUP3 ADD SWAP1 POP DUP2 DUP2 SUB PUSH1 0x0 DUP4 ADD MSTORE PUSH2 0x4378 DUP2 PUSH2 0x433C JUMP JUMPDEST SWAP1 POP SWAP2 SWAP1 POP JUMP JUMPDEST PUSH1 0x0 PUSH1 0x40 DUP3 ADD SWAP1 POP PUSH2 0x4394 PUSH1 0x0 DUP4 ADD DUP6 PUSH2 0x2DAB JUMP JUMPDEST PUSH2 0x43A1 PUSH1 0x20 DUP4 ADD DUP5 PUSH2 0x2EBF JUMP JUMPDEST SWAP4 SWAP3 POP POP POP JUMP JUMPDEST PUSH32 0x4E487B7100000000000000000000000000000000000000000000000000000000 PUSH1 0x0 MSTORE PUSH1 0x12 PUSH1 0x4 MSTORE PUSH1 0x24 PUSH1 0x0 REVERT JUMPDEST PUSH1 0x0 PUSH1 0x80 DUP3 ADD SWAP1 POP PUSH2 0x43EC PUSH1 0x0 DUP4 ADD DUP8 PUSH2 0x37E0 JUMP JUMPDEST PUSH2 0x43F9 PUSH1 0x20 DUP4 ADD DUP7 PUSH2 0x2DAB JUMP JUMPDEST PUSH2 0x4406 PUSH1 0x40 DUP4 ADD DUP6 PUSH2 0x2DAB JUMP JUMPDEST PUSH2 0x4413 PUSH1 0x60 DUP4 ADD DUP5 PUSH2 0x2DAB JUMP JUMPDEST SWAP6 SWAP5 POP POP POP POP POP JUMP JUMPDEST PUSH1 0x0 PUSH1 0x40 DUP3 ADD SWAP1 POP DUP2 DUP2 SUB PUSH1 0x0 DUP4 ADD MSTORE PUSH2 0x4436 DUP2 DUP6 PUSH2 0x35FC JUMP JUMPDEST SWAP1 POP DUP2 DUP2 SUB PUSH1 0x20 DUP4 ADD MSTORE PUSH2 0x444A DUP2 DUP5 PUSH2 0x35FC JUMP JUMPDEST SWAP1 POP SWAP4 SWAP3 POP POP POP JUMP JUMPDEST PUSH1 0x0 DUP2 MLOAD SWAP1 POP SWAP2 SWAP1 POP JUMP JUMPDEST PUSH1 0x0 DUP3 DUP3 MSTORE PUSH1 0x20 DUP3 ADD SWAP1 POP SWAP3 SWAP2 POP POP JUMP JUMPDEST PUSH1 0x0 PUSH2 0x447A DUP3 PUSH2 0x4453 JUMP JUMPDEST PUSH2 0x4484 DUP2 DUP6 PUSH2 0x445E JUMP JUMPDEST SWAP4 POP PUSH2 0x4494 DUP2 DUP6 PUSH1 0x20 DUP7 ADD PUSH2 0x2F05 JUMP JUMPDEST PUSH2 0x449D DUP2 PUSH2 0x2F2F JUMP JUMPDEST DUP5 ADD SWAP2 POP POP SWAP3 SWAP2 POP POP JUMP JUMPDEST PUSH1 0x0 PUSH1 0xA0 DUP3 ADD SWAP1 POP PUSH2 0x44BD PUSH1 0x0 DUP4 ADD DUP9 PUSH2 0x37E0 JUMP JUMPDEST PUSH2 0x44CA PUSH1 0x20 DUP4 ADD DUP8 PUSH2 0x37E0 JUMP JUMPDEST PUSH2 0x44D7 PUSH1 0x40 DUP4 ADD DUP7 PUSH2 0x2DAB JUMP JUMPDEST PUSH2 0x44E4 PUSH1 0x60 DUP4 ADD DUP6 PUSH2 0x2DAB JUMP JUMPDEST DUP2 DUP2 SUB PUSH1 0x80 DUP4 ADD MSTORE PUSH2 0x44F6 DUP2 DUP5 PUSH2 0x446F JUMP JUMPDEST SWAP1 POP SWAP7 SWAP6 POP POP POP POP POP POP JUMP JUMPDEST PUSH1 0x0 DUP2 MLOAD SWAP1 POP PUSH2 0x4511 DUP2 PUSH2 0x2E66 JUMP JUMPDEST SWAP3 SWAP2 POP POP JUMP JUMPDEST PUSH1 0x0 PUSH1 0x20 DUP3 DUP5 SUB SLT ISZERO PUSH2 0x452D JUMPI PUSH2 0x452C PUSH2 0x2CCD JUMP JUMPDEST JUMPDEST PUSH1 0x0 PUSH2 0x453B DUP5 DUP3 DUP6 ADD PUSH2 0x4502 JUMP JUMPDEST SWAP2 POP POP SWAP3 SWAP2 POP POP JUMP JUMPDEST PUSH1 0x0 PUSH1 0xA0 DUP3 ADD SWAP1 POP PUSH2 0x4559 PUSH1 0x0 DUP4 ADD DUP9 PUSH2 0x37E0 JUMP JUMPDEST PUSH2 0x4566 PUSH1 0x20 DUP4 ADD DUP8 PUSH2 0x37E0 JUMP JUMPDEST DUP2 DUP2 SUB PUSH1 0x40 DUP4 ADD MSTORE PUSH2 0x4578 DUP2 DUP7 PUSH2 0x35FC JUMP JUMPDEST SWAP1 POP DUP2 DUP2 SUB PUSH1 0x60 DUP4 ADD MSTORE PUSH2 0x458C DUP2 DUP6 PUSH2 0x35FC JUMP JUMPDEST SWAP1 POP DUP2 DUP2 SUB PUSH1 0x80 DUP4 ADD MSTORE PUSH2 0x45A0 DUP2 DUP5 PUSH2 0x446F JUMP JUMPDEST SWAP1 POP SWAP7 SWAP6 POP POP POP POP POP POP JUMP INVALID LOG2 PUSH5 0x6970667358 0x22 SLT KECCAK256 SLOAD DUP1 SMOD SWAP5 0xCC SWAP2 0xC7 0x1F DUP10 0xD5 PUSH31 0xB5229388B0F9882FB6657706BBD53455E85EC2591164736F6C634300081400 CALLER "},"methodIdentifiers":{"balanceOf(address,uint256)":"00fdd58e","balanceOfBatch(address[],uint256[])":"4e1273f4","communityOwners(uint256,uint256)":"b92c6784","getCommunityOwners(uint256)":"2644cd5c","isApprovedForAll(address,address)":"e985e9c5","lastMintedItemId(uint256)":"a37dafb3","mintWithMX(uint256,uint256)":"091271c3","mintWithUSDT(uint256,uint256)":"98fcca60","mxPrice()":"e9fecdd2","mxToken()":"52a51262","name()":"06fdde03","owner()":"8da5cb5b","renounceOwnership()":"715018a6","safeBatchTransferFrom(address,address,uint256[],uint256[],bytes)":"2eb2c2d6","safeTransferFrom(address,address,uint256,uint256,bytes)":"f242432a","setApprovalForAll(address,bool)":"a22cb465","setBaseURI(string)":"55f804b3","setMXPrice(uint256)":"f2909555","setUsdtPrice(uint256)":"0ef31451","supportsInterface(bytes4)":"01ffc9a7","symbol()":"95d89b41","toggleUsdtPurchases(bool)":"01dc2627","transferOwnership(address)":"f2fde38b","uri(uint256)":"0e89341c","usdtEnabled()":"6edd4506","usdtPrice()":"e136f65f","usdtToken()":"a98ad46c","withdrawTokens(address,uint256,bool)":"ac4013be"}}}}}