{
  "_format": "hh-sol-artifact-1",
  "contractName": "MarsxCommunity",
  "sourceName": "contracts/MarsxCommunity.sol",
  "abi": [
    {
      "inputs": [
        {
          "internalType": "address",
          "name": "_usdtAddress",
          "type": "address"
        },
        {
          "internalType": "address",
          "name": "_erc20Address",
          "type": "address"
        },
        {
          "internalType": "string",
          "name": "_baseURI",
          "type": "string"
        },
        {
          "internalType": "uint256",
          "name": "_mxPrice",
          "type": "uint256"
        },
        {
          "internalType": "uint256",
          "name": "_usdtprice",
          "type": "uint256"
        },
        {
          "internalType": "address",
          "name": "_authorizedSigner",
          "type": "address"
        }
      ],
      "stateMutability": "nonpayable",
      "type": "constructor"
    },
    {
      "inputs": [],
      "name": "ECDSAInvalidSignature",
      "type": "error"
    },
    {
      "inputs": [
        {
          "internalType": "uint256",
          "name": "length",
          "type": "uint256"
        }
      ],
      "name": "ECDSAInvalidSignatureLength",
      "type": "error"
    },
    {
      "inputs": [
        {
          "internalType": "bytes32",
          "name": "s",
          "type": "bytes32"
        }
      ],
      "name": "ECDSAInvalidSignatureS",
      "type": "error"
    },
    {
      "inputs": [
        {
          "internalType": "address",
          "name": "sender",
          "type": "address"
        },
        {
          "internalType": "uint256",
          "name": "balance",
          "type": "uint256"
        },
        {
          "internalType": "uint256",
          "name": "needed",
          "type": "uint256"
        },
        {
          "internalType": "uint256",
          "name": "tokenId",
          "type": "uint256"
        }
      ],
      "name": "ERC1155InsufficientBalance",
      "type": "error"
    },
    {
      "inputs": [
        {
          "internalType": "address",
          "name": "approver",
          "type": "address"
        }
      ],
      "name": "ERC1155InvalidApprover",
      "type": "error"
    },
    {
      "inputs": [
        {
          "internalType": "uint256",
          "name": "idsLength",
          "type": "uint256"
        },
        {
          "internalType": "uint256",
          "name": "valuesLength",
          "type": "uint256"
        }
      ],
      "name": "ERC1155InvalidArrayLength",
      "type": "error"
    },
    {
      "inputs": [
        {
          "internalType": "address",
          "name": "operator",
          "type": "address"
        }
      ],
      "name": "ERC1155InvalidOperator",
      "type": "error"
    },
    {
      "inputs": [
        {
          "internalType": "address",
          "name": "receiver",
          "type": "address"
        }
      ],
      "name": "ERC1155InvalidReceiver",
      "type": "error"
    },
    {
      "inputs": [
        {
          "internalType": "address",
          "name": "sender",
          "type": "address"
        }
      ],
      "name": "ERC1155InvalidSender",
      "type": "error"
    },
    {
      "inputs": [
        {
          "internalType": "address",
          "name": "operator",
          "type": "address"
        },
        {
          "internalType": "address",
          "name": "owner",
          "type": "address"
        }
      ],
      "name": "ERC1155MissingApprovalForAll",
      "type": "error"
    },
    {
      "inputs": [
        {
          "internalType": "address",
          "name": "owner",
          "type": "address"
        }
      ],
      "name": "OwnableInvalidOwner",
      "type": "error"
    },
    {
      "inputs": [
        {
          "internalType": "address",
          "name": "account",
          "type": "address"
        }
      ],
      "name": "OwnableUnauthorizedAccount",
      "type": "error"
    },
    {
      "inputs": [],
      "name": "ReentrancyGuardReentrantCall",
      "type": "error"
    },
    {
      "anonymous": false,
      "inputs": [
        {
          "indexed": true,
          "internalType": "address",
          "name": "account",
          "type": "address"
        },
        {
          "indexed": true,
          "internalType": "address",
          "name": "operator",
          "type": "address"
        },
        {
          "indexed": false,
          "internalType": "bool",
          "name": "approved",
          "type": "bool"
        }
      ],
      "name": "ApprovalForAll",
      "type": "event"
    },
    {
      "anonymous": false,
      "inputs": [
        {
          "indexed": false,
          "internalType": "string",
          "name": "newBaseURI",
          "type": "string"
        }
      ],
      "name": "BaseURISet",
      "type": "event"
    },
    {
      "anonymous": false,
      "inputs": [
        {
          "indexed": true,
          "internalType": "uint256",
          "name": "communityId",
          "type": "uint256"
        },
        {
          "indexed": false,
          "internalType": "bool",
          "name": "isPublished",
          "type": "bool"
        }
      ],
      "name": "CommunityPublished",
      "type": "event"
    },
    {
      "anonymous": false,
      "inputs": [
        {
          "indexed": true,
          "internalType": "address",
          "name": "buyer",
          "type": "address"
        },
        {
          "indexed": false,
          "internalType": "uint256",
          "name": "communityId",
          "type": "uint256"
        },
        {
          "indexed": false,
          "internalType": "uint256",
          "name": "quantity",
          "type": "uint256"
        }
      ],
      "name": "MintedWithMX",
      "type": "event"
    },
    {
      "anonymous": false,
      "inputs": [
        {
          "indexed": true,
          "internalType": "address",
          "name": "buyer",
          "type": "address"
        },
        {
          "indexed": false,
          "internalType": "uint256",
          "name": "communityId",
          "type": "uint256"
        },
        {
          "indexed": false,
          "internalType": "uint256",
          "name": "quantity",
          "type": "uint256"
        }
      ],
      "name": "MintedWithUSDT",
      "type": "event"
    },
    {
      "anonymous": false,
      "inputs": [
        {
          "indexed": true,
          "internalType": "address",
          "name": "previousOwner",
          "type": "address"
        },
        {
          "indexed": true,
          "internalType": "address",
          "name": "newOwner",
          "type": "address"
        }
      ],
      "name": "OwnershipTransferred",
      "type": "event"
    },
    {
      "anonymous": false,
      "inputs": [
        {
          "indexed": true,
          "internalType": "address",
          "name": "to",
          "type": "address"
        },
        {
          "indexed": false,
          "internalType": "uint256",
          "name": "amount",
          "type": "uint256"
        },
        {
          "indexed": false,
          "internalType": "bool",
          "name": "isUSDT",
          "type": "bool"
        }
      ],
      "name": "TokensWithdrawn",
      "type": "event"
    },
    {
      "anonymous": false,
      "inputs": [
        {
          "indexed": true,
          "internalType": "address",
          "name": "operator",
          "type": "address"
        },
        {
          "indexed": true,
          "internalType": "address",
          "name": "from",
          "type": "address"
        },
        {
          "indexed": true,
          "internalType": "address",
          "name": "to",
          "type": "address"
        },
        {
          "indexed": false,
          "internalType": "uint256[]",
          "name": "ids",
          "type": "uint256[]"
        },
        {
          "indexed": false,
          "internalType": "uint256[]",
          "name": "values",
          "type": "uint256[]"
        }
      ],
      "name": "TransferBatch",
      "type": "event"
    },
    {
      "anonymous": false,
      "inputs": [
        {
          "indexed": true,
          "internalType": "address",
          "name": "operator",
          "type": "address"
        },
        {
          "indexed": true,
          "internalType": "address",
          "name": "from",
          "type": "address"
        },
        {
          "indexed": true,
          "internalType": "address",
          "name": "to",
          "type": "address"
        },
        {
          "indexed": false,
          "internalType": "uint256",
          "name": "id",
          "type": "uint256"
        },
        {
          "indexed": false,
          "internalType": "uint256",
          "name": "value",
          "type": "uint256"
        }
      ],
      "name": "TransferSingle",
      "type": "event"
    },
    {
      "anonymous": false,
      "inputs": [
        {
          "indexed": false,
          "internalType": "string",
          "name": "value",
          "type": "string"
        },
        {
          "indexed": true,
          "internalType": "uint256",
          "name": "id",
          "type": "uint256"
        }
      ],
      "name": "URI",
      "type": "event"
    },
    {
      "inputs": [
        {
          "internalType": "uint256",
          "name": "",
          "type": "uint256"
        }
      ],
      "name": "available",
      "outputs": [
        {
          "internalType": "bool",
          "name": "",
          "type": "bool"
        }
      ],
      "stateMutability": "view",
      "type": "function"
    },
    {
      "inputs": [
        {
          "internalType": "address",
          "name": "account",
          "type": "address"
        },
        {
          "internalType": "uint256",
          "name": "id",
          "type": "uint256"
        }
      ],
      "name": "balanceOf",
      "outputs": [
        {
          "internalType": "uint256",
          "name": "",
          "type": "uint256"
        }
      ],
      "stateMutability": "view",
      "type": "function"
    },
    {
      "inputs": [
        {
          "internalType": "address[]",
          "name": "accounts",
          "type": "address[]"
        },
        {
          "internalType": "uint256[]",
          "name": "ids",
          "type": "uint256[]"
        }
      ],
      "name": "balanceOfBatch",
      "outputs": [
        {
          "internalType": "uint256[]",
          "name": "",
          "type": "uint256[]"
        }
      ],
      "stateMutability": "view",
      "type": "function"
    },
    {
      "inputs": [
        {
          "internalType": "uint256",
          "name": "",
          "type": "uint256"
        },
        {
          "internalType": "uint256",
          "name": "",
          "type": "uint256"
        }
      ],
      "name": "communityOwners",
      "outputs": [
        {
          "internalType": "address",
          "name": "ownerAddress",
          "type": "address"
        },
        {
          "internalType": "uint256",
          "name": "quantity",
          "type": "uint256"
        }
      ],
      "stateMutability": "view",
      "type": "function"
    },
    {
      "inputs": [
        {
          "internalType": "uint256",
          "name": "communityId",
          "type": "uint256"
        }
      ],
      "name": "getCommunityOwners",
      "outputs": [
        {
          "components": [
            {
              "internalType": "address",
              "name": "ownerAddress",
              "type": "address"
            },
            {
              "internalType": "uint256",
              "name": "quantity",
              "type": "uint256"
            }
          ],
          "internalType": "struct MarsxCommunity.Owner[]",
          "name": "",
          "type": "tuple[]"
        }
      ],
      "stateMutability": "view",
      "type": "function"
    },
    {
      "inputs": [
        {
          "internalType": "address",
          "name": "account",
          "type": "address"
        },
        {
          "internalType": "address",
          "name": "operator",
          "type": "address"
        }
      ],
      "name": "isApprovedForAll",
      "outputs": [
        {
          "internalType": "bool",
          "name": "",
          "type": "bool"
        }
      ],
      "stateMutability": "view",
      "type": "function"
    },
    {
      "inputs": [
        {
          "internalType": "uint256",
          "name": "",
          "type": "uint256"
        }
      ],
      "name": "lastMintedItemId",
      "outputs": [
        {
          "internalType": "uint256",
          "name": "",
          "type": "uint256"
        }
      ],
      "stateMutability": "view",
      "type": "function"
    },
    {
      "inputs": [
        {
          "internalType": "uint256",
          "name": "communityId",
          "type": "uint256"
        },
        {
          "internalType": "uint256",
          "name": "quantity",
          "type": "uint256"
        },
        {
          "internalType": "uint256",
          "name": "nonce",
          "type": "uint256"
        },
        {
          "internalType": "bytes",
          "name": "signature",
          "type": "bytes"
        }
      ],
      "name": "mintWithMX",
      "outputs": [],
      "stateMutability": "nonpayable",
      "type": "function"
    },
    {
      "inputs": [
        {
          "internalType": "uint256",
          "name": "communityId",
          "type": "uint256"
        },
        {
          "internalType": "uint256",
          "name": "quantity",
          "type": "uint256"
        },
        {
          "internalType": "uint256",
          "name": "nonce",
          "type": "uint256"
        },
        {
          "internalType": "bytes",
          "name": "signature",
          "type": "bytes"
        }
      ],
      "name": "mintWithUSDT",
      "outputs": [],
      "stateMutability": "nonpayable",
      "type": "function"
    },
    {
      "inputs": [],
      "name": "mxPrice",
      "outputs": [
        {
          "internalType": "uint256",
          "name": "",
          "type": "uint256"
        }
      ],
      "stateMutability": "view",
      "type": "function"
    },
    {
      "inputs": [],
      "name": "mxToken",
      "outputs": [
        {
          "internalType": "contract IERC20",
          "name": "",
          "type": "address"
        }
      ],
      "stateMutability": "view",
      "type": "function"
    },
    {
      "inputs": [],
      "name": "name",
      "outputs": [
        {
          "internalType": "string",
          "name": "",
          "type": "string"
        }
      ],
      "stateMutability": "view",
      "type": "function"
    },
    {
      "inputs": [
        {
          "internalType": "address",
          "name": "",
          "type": "address"
        }
      ],
      "name": "nonces",
      "outputs": [
        {
          "internalType": "uint256",
          "name": "",
          "type": "uint256"
        }
      ],
      "stateMutability": "view",
      "type": "function"
    },
    {
      "inputs": [],
      "name": "owner",
      "outputs": [
        {
          "internalType": "address",
          "name": "",
          "type": "address"
        }
      ],
      "stateMutability": "view",
      "type": "function"
    },
    {
      "inputs": [
        {
          "internalType": "uint256",
          "name": "_toBePublished",
          "type": "uint256"
        }
      ],
      "name": "publishCommunties",
      "outputs": [],
      "stateMutability": "nonpayable",
      "type": "function"
    },
    {
      "inputs": [],
      "name": "renounceOwnership",
      "outputs": [],
      "stateMutability": "nonpayable",
      "type": "function"
    },
    {
      "inputs": [
        {
          "internalType": "address",
          "name": "from",
          "type": "address"
        },
        {
          "internalType": "address",
          "name": "to",
          "type": "address"
        },
        {
          "internalType": "uint256[]",
          "name": "ids",
          "type": "uint256[]"
        },
        {
          "internalType": "uint256[]",
          "name": "values",
          "type": "uint256[]"
        },
        {
          "internalType": "bytes",
          "name": "data",
          "type": "bytes"
        }
      ],
      "name": "safeBatchTransferFrom",
      "outputs": [],
      "stateMutability": "nonpayable",
      "type": "function"
    },
    {
      "inputs": [
        {
          "internalType": "address",
          "name": "from",
          "type": "address"
        },
        {
          "internalType": "address",
          "name": "to",
          "type": "address"
        },
        {
          "internalType": "uint256",
          "name": "id",
          "type": "uint256"
        },
        {
          "internalType": "uint256",
          "name": "amount",
          "type": "uint256"
        },
        {
          "internalType": "bytes",
          "name": "data",
          "type": "bytes"
        }
      ],
      "name": "safeTransferFrom",
      "outputs": [],
      "stateMutability": "nonpayable",
      "type": "function"
    },
    {
      "inputs": [
        {
          "internalType": "address",
          "name": "operator",
          "type": "address"
        },
        {
          "internalType": "bool",
          "name": "approved",
          "type": "bool"
        }
      ],
      "name": "setApprovalForAll",
      "outputs": [],
      "stateMutability": "nonpayable",
      "type": "function"
    },
    {
      "inputs": [
        {
          "internalType": "string",
          "name": "newBaseURI",
          "type": "string"
        }
      ],
      "name": "setBaseURI",
      "outputs": [],
      "stateMutability": "nonpayable",
      "type": "function"
    },
    {
      "inputs": [
        {
          "internalType": "uint256",
          "name": "newPrice",
          "type": "uint256"
        }
      ],
      "name": "setMXPrice",
      "outputs": [],
      "stateMutability": "nonpayable",
      "type": "function"
    },
    {
      "inputs": [
        {
          "internalType": "uint256",
          "name": "newPrice",
          "type": "uint256"
        }
      ],
      "name": "setUsdtPrice",
      "outputs": [],
      "stateMutability": "nonpayable",
      "type": "function"
    },
    {
      "inputs": [
        {
          "internalType": "bytes4",
          "name": "interfaceId",
          "type": "bytes4"
        }
      ],
      "name": "supportsInterface",
      "outputs": [
        {
          "internalType": "bool",
          "name": "",
          "type": "bool"
        }
      ],
      "stateMutability": "view",
      "type": "function"
    },
    {
      "inputs": [],
      "name": "symbol",
      "outputs": [
        {
          "internalType": "string",
          "name": "",
          "type": "string"
        }
      ],
      "stateMutability": "view",
      "type": "function"
    },
    {
      "inputs": [
        {
          "internalType": "bool",
          "name": "enabled",
          "type": "bool"
        }
      ],
      "name": "toggleUsdtPurchases",
      "outputs": [],
      "stateMutability": "nonpayable",
      "type": "function"
    },
    {
      "inputs": [],
      "name": "totalPublished",
      "outputs": [
        {
          "internalType": "uint256",
          "name": "",
          "type": "uint256"
        }
      ],
      "stateMutability": "view",
      "type": "function"
    },
    {
      "inputs": [],
      "name": "totalSupply",
      "outputs": [
        {
          "internalType": "uint256",
          "name": "",
          "type": "uint256"
        }
      ],
      "stateMutability": "view",
      "type": "function"
    },
    {
      "inputs": [
        {
          "internalType": "address",
          "name": "newOwner",
          "type": "address"
        }
      ],
      "name": "transferOwnership",
      "outputs": [],
      "stateMutability": "nonpayable",
      "type": "function"
    },
    {
      "inputs": [
        {
          "internalType": "uint256",
          "name": "tokenId",
          "type": "uint256"
        }
      ],
      "name": "uri",
      "outputs": [
        {
          "internalType": "string",
          "name": "",
          "type": "string"
        }
      ],
      "stateMutability": "view",
      "type": "function"
    },
    {
      "inputs": [],
      "name": "usdtEnabled",
      "outputs": [
        {
          "internalType": "bool",
          "name": "",
          "type": "bool"
        }
      ],
      "stateMutability": "view",
      "type": "function"
    },
    {
      "inputs": [],
      "name": "usdtPrice",
      "outputs": [
        {
          "internalType": "uint256",
          "name": "",
          "type": "uint256"
        }
      ],
      "stateMutability": "view",
      "type": "function"
    },
    {
      "inputs": [],
      "name": "usdtToken",
      "outputs": [
        {
          "internalType": "contract IERC20",
          "name": "",
          "type": "address"
        }
      ],
      "stateMutability": "view",
      "type": "function"
    },
    {
      "inputs": [
        {
          "internalType": "address",
          "name": "to",
          "type": "address"
        },
        {
          "internalType": "uint256",
          "name": "amount",
          "type": "uint256"
        },
        {
          "internalType": "bool",
          "name": "isUSDT",
          "type": "bool"
        }
      ],
      "name": "withdrawTokens",
      "outputs": [],
      "stateMutability": "nonpayable",
      "type": "function"
    }
  ],
  "bytecode": "0x60806040526040518060400160405280601081526020017f4d6172732d5820436f6d6d756e6974790000000000000000000000000000000081525060059081610048919061058f565b506040518060400160405280600381526020017f4d584300000000000000000000000000000000000000000000000000000000008152506006908161008d919061058f565b50620186a06009556001600e60006101000a81548160ff0219169083151502179055503480156100bc57600080fd5b50604051615c21380380615c2183398181016040528101906100de9190610831565b33846100ef8161026660201b60201c565b50600073ffffffffffffffffffffffffffffffffffffffff168173ffffffffffffffffffffffffffffffffffffffff16036101625760006040517f1e4fbdf700000000000000000000000000000000000000000000000000000000815260040161015991906108e9565b60405180910390fd5b6101718161027960201b60201c565b50600160048190555085601060006101000a81548173ffffffffffffffffffffffffffffffffffffffff021916908373ffffffffffffffffffffffffffffffffffffffff16021790555084601160006101000a81548173ffffffffffffffffffffffffffffffffffffffff021916908373ffffffffffffffffffffffffffffffffffffffff16021790555083600f908161020b919061058f565b50816007819055508260088190555080601260006101000a81548173ffffffffffffffffffffffffffffffffffffffff021916908373ffffffffffffffffffffffffffffffffffffffff160217905550505050505050610904565b8060029081610275919061058f565b5050565b6000600360009054906101000a900473ffffffffffffffffffffffffffffffffffffffff16905081600360006101000a81548173ffffffffffffffffffffffffffffffffffffffff021916908373ffffffffffffffffffffffffffffffffffffffff1602179055508173ffffffffffffffffffffffffffffffffffffffff168173ffffffffffffffffffffffffffffffffffffffff167f8be0079c531659141344cd1fd0a4f28419497f9722a3daafe3b4186f6b6457e060405160405180910390a35050565b600081519050919050565b7f4e487b7100000000000000000000000000000000000000000000000000000000600052604160045260246000fd5b7f4e487b7100000000000000000000000000000000000000000000000000000000600052602260045260246000fd5b600060028204905060018216806103c057607f821691505b6020821081036103d3576103d2610379565b5b50919050565b60008190508160005260206000209050919050565b60006020601f8301049050919050565b600082821b905092915050565b60006008830261043b7fffffffffffffffffffffffffffffffffffffffffffffffffffffffffffffffff826103fe565b61044586836103fe565b95508019841693508086168417925050509392505050565b6000819050919050565b6000819050919050565b600061048c6104876104828461045d565b610467565b61045d565b9050919050565b6000819050919050565b6104a683610471565b6104ba6104b282610493565b84845461040b565b825550505050565b600090565b6104cf6104c2565b6104da81848461049d565b505050565b5b818110156104fe576104f36000826104c7565b6001810190506104e0565b5050565b601f82111561054357610514816103d9565b61051d846103ee565b8101602085101561052c578190505b610540610538856103ee565b8301826104df565b50505b505050565b600082821c905092915050565b600061056660001984600802610548565b1980831691505092915050565b600061057f8383610555565b9150826002028217905092915050565b6105988261033f565b67ffffffffffffffff8111156105b1576105b061034a565b5b6105bb82546103a8565b6105c6828285610502565b600060209050601f8311600181146105f957600084156105e7578287015190505b6105f18582610573565b865550610659565b601f198416610607866103d9565b60005b8281101561062f5784890151825560018201915060208501945060208101905061060a565b8683101561064c5784890151610648601f891682610555565b8355505b6001600288020188555050505b505050505050565b6000604051905090565b600080fd5b600080fd5b600073ffffffffffffffffffffffffffffffffffffffff82169050919050565b60006106a082610675565b9050919050565b6106b081610695565b81146106bb57600080fd5b50565b6000815190506106cd816106a7565b92915050565b600080fd5b600080fd5b6000601f19601f8301169050919050565b6106f7826106dd565b810181811067ffffffffffffffff821117156107165761071561034a565b5b80604052505050565b6000610729610661565b905061073582826106ee565b919050565b600067ffffffffffffffff8211156107555761075461034a565b5b61075e826106dd565b9050602081019050919050565b60005b8381101561078957808201518184015260208101905061076e565b60008484015250505050565b60006107a86107a38461073a565b61071f565b9050828152602081018484840111156107c4576107c36106d8565b5b6107cf84828561076b565b509392505050565b600082601f8301126107ec576107eb6106d3565b5b81516107fc848260208601610795565b91505092915050565b61080e8161045d565b811461081957600080fd5b50565b60008151905061082b81610805565b92915050565b60008060008060008060c0878903121561084e5761084d61066b565b5b600061085c89828a016106be565b965050602061086d89828a016106be565b955050604087015167ffffffffffffffff81111561088e5761088d610670565b5b61089a89828a016107d7565b94505060606108ab89828a0161081c565b93505060806108bc89828a0161081c565b92505060a06108cd89828a016106be565b9150509295509295509295565b6108e381610695565b82525050565b60006020820190506108fe60008301846108da565b92915050565b61530e806109136000396000f3fe608060405234801561001057600080fd5b50600436106101fa5760003560e01c8063715018a61161011a578063ac4013be116100ad578063e985e9c51161007c578063e985e9c5146105c4578063e9fecdd2146105f4578063f242432a14610612578063f29095551461062e578063f2fde38b1461064a576101fa565b8063ac4013be1461053d578063b92c678414610559578063bfe0126e1461058a578063e136f65f146105a6576101fa565b806396e494e8116100e957806396e494e8146104a3578063a22cb465146104d3578063a37dafb3146104ef578063a98ad46c1461051f576101fa565b8063715018a61461042d5780637ecebe00146104375780638da5cb5b1461046757806395d89b4114610485576101fa565b806318160ddd116101925780634e1273f4116101615780634e1273f4146103a557806352a51262146103d557806355f804b3146103f35780636edd45061461040f576101fa565b806318160ddd1461031f5780632644cd5c1461033d5780632eb2c2d61461036d578063463795d614610389576101fa565b806306fdde03116101ce57806306fdde03146102975780630e89341c146102b55780630ef31451146102e55780631451929814610301576101fa565b8062fdd58e146101ff57806301dc26271461022f57806301ffc9a71461024b57806302ed53921461027b575b600080fd5b610219600480360381019061021491906136d1565b610666565b6040516102269190613720565b60405180910390f35b61024960048036038101906102449190613773565b6106c0565b005b610265600480360381019061026091906137f8565b6106e5565b6040516102729190613834565b60405180910390f35b6102956004803603810190610290919061384f565b6107c7565b005b61029f6108e2565b6040516102ac919061390c565b60405180910390f35b6102cf60048036038101906102ca919061384f565b610970565b6040516102dc919061390c565b60405180910390f35b6102ff60048036038101906102fa919061384f565b6109a4565b005b6103096109b6565b6040516103169190613720565b60405180910390f35b6103276109bc565b6040516103349190613720565b60405180910390f35b6103576004803603810190610352919061384f565b6109c2565b6040516103649190613a2a565b60405180910390f35b61038760048036038101906103829190613c49565b610a94565b005b6103a3600480360381019061039e9190613d73565b610b3c565b005b6103bf60048036038101906103ba9190613ebe565b611054565b6040516103cc9190613fe5565b60405180910390f35b6103dd61115d565b6040516103ea9190614066565b60405180910390f35b61040d60048036038101906104089190614122565b611183565b005b6104176111d5565b6040516104249190613834565b60405180910390f35b6104356111e8565b005b610451600480360381019061044c919061416b565b6111fc565b60405161045e9190613720565b60405180910390f35b61046f611214565b60405161047c91906141a7565b60405180910390f35b61048d61123e565b60405161049a919061390c565b60405180910390f35b6104bd60048036038101906104b8919061384f565b6112cc565b6040516104ca9190613834565b60405180910390f35b6104ed60048036038101906104e891906141c2565b6112ec565b005b6105096004803603810190610504919061384f565b611302565b6040516105169190613720565b60405180910390f35b61052761131a565b6040516105349190614066565b60405180910390f35b61055760048036038101906105529190614202565b611340565b005b610573600480360381019061056e9190614255565b611744565b604051610581929190614295565b60405180910390f35b6105a4600480360381019061059f9190613d73565b6117a5565b005b6105ae611c6e565b6040516105bb9190613720565b60405180910390f35b6105de60048036038101906105d991906142be565b611c74565b6040516105eb9190613834565b60405180910390f35b6105fc611d08565b6040516106099190613720565b60405180910390f35b61062c600480360381019061062791906142fe565b611d0e565b005b6106486004803603810190610643919061384f565b611d2e565b005b610664600480360381019061065f919061416b565b611d40565b005b600080600083815260200190815260200160002060008473ffffffffffffffffffffffffffffffffffffffff1673ffffffffffffffffffffffffffffffffffffffff16815260200190815260200160002054905092915050565b6106c8611dc6565b80600e60006101000a81548160ff02191690831515021790555050565b60007fd9b67a26000000000000000000000000000000000000000000000000000000007bffffffffffffffffffffffffffffffffffffffffffffffffffffffff1916827bffffffffffffffffffffffffffffffffffffffffffffffffffffffff191614806107b057507f0e89341c000000000000000000000000000000000000000000000000000000007bffffffffffffffffffffffffffffffffffffffffffffffffffffffff1916827bffffffffffffffffffffffffffffffffffffffffffffffffffffffff1916145b806107c057506107bf82611e4d565b5b9050919050565b6107cf611dc6565b60095481600a546107e091906143c4565b1115610821576040517f08c379a000000000000000000000000000000000000000000000000000000000815260040161081890614444565b60405180910390fd5b6000600a549050600060018261083791906143c4565b90505b828261084691906143c4565b81116108c4576001600b600083815260200190815260200160002060006101000a81548160ff021916908315150217905550807fa524bba1514e339f1dc23823b0d3942737395fcc7e186d1abf46d1ed7916f08b60016040516108a99190613834565b60405180910390a280806108bc90614464565b91505061083a565b5081600a60008282546108d791906143c4565b925050819055505050565b600580546108ef906144db565b80601f016020809104026020016040519081016040528092919081815260200182805461091b906144db565b80156109685780601f1061093d57610100808354040283529160200191610968565b820191906000526020600020905b81548152906001019060200180831161094b57829003601f168201915b505050505081565b6060600f61097d83611eb7565b60405160200161098e92919061462c565b6040516020818303038152906040529050919050565b6109ac611dc6565b8060078190555050565b600a5481565b60095481565b6060600c6000838152602001908152602001600020805480602002602001604051908101604052809291908181526020016000905b82821015610a8957838290600052602060002090600202016040518060400160405290816000820160009054906101000a900473ffffffffffffffffffffffffffffffffffffffff1673ffffffffffffffffffffffffffffffffffffffff1673ffffffffffffffffffffffffffffffffffffffff168152602001600182015481525050815260200190600101906109f7565b505050509050919050565b6000610a9e611f85565b90508073ffffffffffffffffffffffffffffffffffffffff168673ffffffffffffffffffffffffffffffffffffffff1614158015610ae35750610ae18682611c74565b155b15610b275780866040517fe237d922000000000000000000000000000000000000000000000000000000008152600401610b1e92919061465b565b60405180910390fd5b610b348686868686611f8d565b505050505050565b610b44612085565b60008411610b87576040517f08c379a0000000000000000000000000000000000000000000000000000000008152600401610b7e906146f6565b60405180910390fd5b600e60009054906101000a900460ff16610bd6576040517f08c379a0000000000000000000000000000000000000000000000000000000008152600401610bcd90614762565b60405180910390fd5b600a84600d600088815260200190815260200160002054610bf791906143c4565b1115610c38576040517f08c379a0000000000000000000000000000000000000000000000000000000008152600401610c2f906147ce565b60405180910390fd5b600b600086815260200190815260200160002060009054906101000a900460ff16610c98576040517f08c379a0000000000000000000000000000000000000000000000000000000008152600401610c8f9061483a565b60405180910390fd5b6000601260009054906101000a900473ffffffffffffffffffffffffffffffffffffffff1686868633604051602001610cd59594939291906148c3565b6040516020818303038152906040528051906020012090506000610cf8826120cb565b9050601260009054906101000a900473ffffffffffffffffffffffffffffffffffffffff1673ffffffffffffffffffffffffffffffffffffffff16610d818286868080601f016020809104026020016040519081016040528093929190818152602001838380828437600081840152601f19601f82011690508083019250505050505050612101565b73ffffffffffffffffffffffffffffffffffffffff1614610dd7576040517f08c379a0000000000000000000000000000000000000000000000000000000008152600401610dce9061496e565b60405180910390fd5b601360003373ffffffffffffffffffffffffffffffffffffffff1673ffffffffffffffffffffffffffffffffffffffff168152602001908152602001600020548514610e58576040517f08c379a0000000000000000000000000000000000000000000000000000000008152600401610e4f906149da565b60405180910390fd5b601360003373ffffffffffffffffffffffffffffffffffffffff1673ffffffffffffffffffffffffffffffffffffffff1681526020019081526020016000206000815480929190610ea890614464565b9190505550600086600754610ebd91906149fa565b9050601060009054906101000a900473ffffffffffffffffffffffffffffffffffffffff1673ffffffffffffffffffffffffffffffffffffffff166323b872dd3330846040518463ffffffff1660e01b8152600401610f1e93929190614a3c565b6020604051808303816000875af1158015610f3d573d6000803e3d6000fd5b505050506040513d601f19601f82011682018060405250810190610f619190614a88565b610fa0576040517f08c379a0000000000000000000000000000000000000000000000000000000008152600401610f9790614b01565b60405180910390fd5b86600d60008a81526020019081526020016000206000828254610fc391906143c4565b92505081905550610fe53389896040518060200160405280600081525061212d565b610ff26000338a8a6121c6565b3373ffffffffffffffffffffffffffffffffffffffff167fd115e474df7f346023269013b65c20889a9c10f5c2cc073e6a0f36e386c9bd44898960405161103a929190614b21565b60405180910390a250505061104d612615565b5050505050565b606081518351146110a057815183516040517f5b059991000000000000000000000000000000000000000000000000000000008152600401611097929190614b21565b60405180910390fd5b6000835167ffffffffffffffff8111156110bd576110bc613a51565b5b6040519080825280602002602001820160405280156110eb5781602001602082028036833780820191505090505b50905060005b845181101561115257611128611110828761261f90919063ffffffff16565b611123838761263390919063ffffffff16565b610666565b82828151811061113b5761113a614b4a565b5b6020026020010181815250508060010190506110f1565b508091505092915050565b601160009054906101000a900473ffffffffffffffffffffffffffffffffffffffff1681565b61118b611dc6565b80600f908161119a9190614d06565b507ff9c7803e94e0d3c02900d8a90893a6d5e90dd04d32a4cfe825520f82bf9f32f6816040516111ca919061390c565b60405180910390a150565b600e60009054906101000a900460ff1681565b6111f0611dc6565b6111fa6000612647565b565b60136020528060005260406000206000915090505481565b6000600360009054906101000a900473ffffffffffffffffffffffffffffffffffffffff16905090565b6006805461124b906144db565b80601f0160208091040260200160405190810160405280929190818152602001828054611277906144db565b80156112c45780601f10611299576101008083540402835291602001916112c4565b820191906000526020600020905b8154815290600101906020018083116112a757829003601f168201915b505050505081565b600b6020528060005260406000206000915054906101000a900460ff1681565b6112fe6112f7611f85565b838361270d565b5050565b600d6020528060005260406000206000915090505481565b601060009054906101000a900473ffffffffffffffffffffffffffffffffffffffff1681565b611348611dc6565b6000816113f057601160009054906101000a900473ffffffffffffffffffffffffffffffffffffffff1673ffffffffffffffffffffffffffffffffffffffff166370a08231306040518263ffffffff1660e01b81526004016113aa91906141a7565b602060405180830381865afa1580156113c7573d6000803e3d6000fd5b505050506040513d601f19601f820116820180604052508101906113eb9190614ded565b61148d565b601060009054906101000a900473ffffffffffffffffffffffffffffffffffffffff1673ffffffffffffffffffffffffffffffffffffffff166370a08231306040518263ffffffff1660e01b815260040161144b91906141a7565b602060405180830381865afa158015611468573d6000803e3d6000fd5b505050506040513d601f19601f8201168201806040525081019061148c9190614ded565b5b9050808311156114d2576040517f08c379a00000000000000000000000000000000000000000000000000000000081526004016114c990614e8c565b60405180910390fd5b811561160d57601060009054906101000a900473ffffffffffffffffffffffffffffffffffffffff1673ffffffffffffffffffffffffffffffffffffffff1663a9059cbb85856040518363ffffffff1660e01b8152600401611535929190614295565b6020604051808303816000875af1158015611554573d6000803e3d6000fd5b505050506040513d601f19601f820116820180604052508101906115789190614a88565b6115b7576040517f08c379a00000000000000000000000000000000000000000000000000000000081526004016115ae90614ef8565b60405180910390fd5b3373ffffffffffffffffffffffffffffffffffffffff167fa995a272df1bb18670c48272b0035c51cb0074b02b60ded72745a68e1cacfb30846001604051611600929190614f18565b60405180910390a261173e565b601160009054906101000a900473ffffffffffffffffffffffffffffffffffffffff1673ffffffffffffffffffffffffffffffffffffffff1663a9059cbb85856040518363ffffffff1660e01b815260040161166a929190614295565b6020604051808303816000875af1158015611689573d6000803e3d6000fd5b505050506040513d601f19601f820116820180604052508101906116ad9190614a88565b6116ec576040517f08c379a00000000000000000000000000000000000000000000000000000000081526004016116e390614ef8565b60405180910390fd5b3373ffffffffffffffffffffffffffffffffffffffff167fa995a272df1bb18670c48272b0035c51cb0074b02b60ded72745a68e1cacfb30846000604051611735929190614f18565b60405180910390a25b50505050565b600c602052816000526040600020818154811061176057600080fd5b9060005260206000209060020201600091509150508060000160009054906101000a900473ffffffffffffffffffffffffffffffffffffffff16908060010154905082565b6117ad612085565b600084116117f0576040517f08c379a00000000000000000000000000000000000000000000000000000000081526004016117e7906146f6565b60405180910390fd5b600a84600d60008881526020019081526020016000205461181191906143c4565b1115611852576040517f08c379a0000000000000000000000000000000000000000000000000000000008152600401611849906147ce565b60405180910390fd5b600b600086815260200190815260200160002060009054906101000a900460ff166118b2576040517f08c379a00000000000000000000000000000000000000000000000000000000081526004016118a99061483a565b60405180910390fd5b6000601260009054906101000a900473ffffffffffffffffffffffffffffffffffffffff16868686336040516020016118ef9594939291906148c3565b6040516020818303038152906040528051906020012090506000611912826120cb565b9050601260009054906101000a900473ffffffffffffffffffffffffffffffffffffffff1673ffffffffffffffffffffffffffffffffffffffff1661199b8286868080601f016020809104026020016040519081016040528093929190818152602001838380828437600081840152601f19601f82011690508083019250505050505050612101565b73ffffffffffffffffffffffffffffffffffffffff16146119f1576040517f08c379a00000000000000000000000000000000000000000000000000000000081526004016119e89061496e565b60405180910390fd5b601360003373ffffffffffffffffffffffffffffffffffffffff1673ffffffffffffffffffffffffffffffffffffffff168152602001908152602001600020548514611a72576040517f08c379a0000000000000000000000000000000000000000000000000000000008152600401611a69906149da565b60405180910390fd5b601360003373ffffffffffffffffffffffffffffffffffffffff1673ffffffffffffffffffffffffffffffffffffffff1681526020019081526020016000206000815480929190611ac290614464565b9190505550600086600854611ad791906149fa565b9050601160009054906101000a900473ffffffffffffffffffffffffffffffffffffffff1673ffffffffffffffffffffffffffffffffffffffff166323b872dd3330846040518463ffffffff1660e01b8152600401611b3893929190614a3c565b6020604051808303816000875af1158015611b57573d6000803e3d6000fd5b505050506040513d601f19601f82011682018060405250810190611b7b9190614a88565b611bba576040517f08c379a0000000000000000000000000000000000000000000000000000000008152600401611bb190614f8d565b60405180910390fd5b86600d60008a81526020019081526020016000206000828254611bdd91906143c4565b92505081905550611bff3389896040518060200160405280600081525061212d565b611c0c6000338a8a6121c6565b3373ffffffffffffffffffffffffffffffffffffffff167f4bfa332cff87c82d5eec48e5b72c3d89f341f35ef0c47a72e99b2b5d00191e5d8989604051611c54929190614b21565b60405180910390a2505050611c67612615565b5050505050565b60075481565b6000600160008473ffffffffffffffffffffffffffffffffffffffff1673ffffffffffffffffffffffffffffffffffffffff16815260200190815260200160002060008373ffffffffffffffffffffffffffffffffffffffff1673ffffffffffffffffffffffffffffffffffffffff16815260200190815260200160002060009054906101000a900460ff16905092915050565b60085481565b611d1b858585858561287d565b611d27858585856121c6565b5050505050565b611d36611dc6565b8060088190555050565b611d48611dc6565b600073ffffffffffffffffffffffffffffffffffffffff168173ffffffffffffffffffffffffffffffffffffffff1603611dba5760006040517f1e4fbdf7000000000000000000000000000000000000000000000000000000008152600401611db191906141a7565b60405180910390fd5b611dc381612647565b50565b611dce611f85565b73ffffffffffffffffffffffffffffffffffffffff16611dec611214565b73ffffffffffffffffffffffffffffffffffffffff1614611e4b57611e0f611f85565b6040517f118cdaa7000000000000000000000000000000000000000000000000000000008152600401611e4291906141a7565b60405180910390fd5b565b60007f01ffc9a7000000000000000000000000000000000000000000000000000000007bffffffffffffffffffffffffffffffffffffffffffffffffffffffff1916827bffffffffffffffffffffffffffffffffffffffffffffffffffffffff1916149050919050565b606060006001611ec684612925565b01905060008167ffffffffffffffff811115611ee557611ee4613a51565b5b6040519080825280601f01601f191660200182016040528015611f175781602001600182028036833780820191505090505b509050600082602001820190505b600115611f7a578080600190039150507f3031323334353637383961626364656600000000000000000000000000000000600a86061a8153600a8581611f6e57611f6d614fad565b5b04945060008503611f25575b819350505050919050565b600033905090565b600073ffffffffffffffffffffffffffffffffffffffff168473ffffffffffffffffffffffffffffffffffffffff1603611fff5760006040517f57f447ce000000000000000000000000000000000000000000000000000000008152600401611ff691906141a7565b60405180910390fd5b600073ffffffffffffffffffffffffffffffffffffffff168573ffffffffffffffffffffffffffffffffffffffff16036120715760006040517f01a8351400000000000000000000000000000000000000000000000000000000815260040161206891906141a7565b60405180910390fd5b61207e8585858585612a78565b5050505050565b6002600454036120c1576040517f3ee5aeb500000000000000000000000000000000000000000000000000000000815260040160405180910390fd5b6002600481905550565b60007f19457468657265756d205369676e6564204d6573736167653a0a33320000000060005281601c52603c6000209050919050565b6000806000806121118686612b2a565b9250925092506121218282612b86565b82935050505092915050565b600073ffffffffffffffffffffffffffffffffffffffff168473ffffffffffffffffffffffffffffffffffffffff160361219f5760006040517f57f447ce00000000000000000000000000000000000000000000000000000000815260040161219691906141a7565b60405180910390fd5b6000806121ac8585612cea565b915091506121be600087848487612a78565b505050505050565b6000805b600c60008581526020019081526020016000208054905081101561254d578573ffffffffffffffffffffffffffffffffffffffff16600c6000868152602001908152602001600020828154811061222457612223614b4a565b5b906000526020600020906002020160000160009054906101000a900473ffffffffffffffffffffffffffffffffffffffff1673ffffffffffffffffffffffffffffffffffffffff16036124655782600c6000868152602001908152602001600020828154811061229757612296614b4a565b5b906000526020600020906002020160010160008282546122b79190614fdc565b925050819055506000600c600086815260200190815260200160002082815481106122e5576122e4614b4a565b5b9060005260206000209060020201600101540361246457600c60008581526020019081526020016000206001600c6000878152602001908152602001600020805490506123329190614fdc565b8154811061234357612342614b4a565b5b9060005260206000209060020201600c6000868152602001908152602001600020828154811061237657612375614b4a565b5b90600052602060002090600202016000820160009054906101000a900473ffffffffffffffffffffffffffffffffffffffff168160000160006101000a81548173ffffffffffffffffffffffffffffffffffffffff021916908373ffffffffffffffffffffffffffffffffffffffff16021790555060018201548160010155905050600c600085815260200190815260200160002080548061241b5761241a615010565b5b6001900381819060005260206000209060020201600080820160006101000a81549073ffffffffffffffffffffffffffffffffffffffff02191690556001820160009055505090555b5b8473ffffffffffffffffffffffffffffffffffffffff16600c600086815260200190815260200160002082815481106124a1576124a0614b4a565b5b906000526020600020906002020160000160009054906101000a900473ffffffffffffffffffffffffffffffffffffffff1673ffffffffffffffffffffffffffffffffffffffff16036125405782600c6000868152602001908152602001600020828154811061251457612513614b4a565b5b9060005260206000209060020201600101600082825461253491906143c4565b92505081905550600191505b80806001019150506121ca565b508061260e57600c600084815260200190815260200160002060405180604001604052808673ffffffffffffffffffffffffffffffffffffffff16815260200184815250908060018154018082558091505060019003906000526020600020906002020160009091909190915060008201518160000160006101000a81548173ffffffffffffffffffffffffffffffffffffffff021916908373ffffffffffffffffffffffffffffffffffffffff1602179055506020820151816001015550505b5050505050565b6001600481905550565b600060208202602084010151905092915050565b600060208202602084010151905092915050565b6000600360009054906101000a900473ffffffffffffffffffffffffffffffffffffffff16905081600360006101000a81548173ffffffffffffffffffffffffffffffffffffffff021916908373ffffffffffffffffffffffffffffffffffffffff1602179055508173ffffffffffffffffffffffffffffffffffffffff168173ffffffffffffffffffffffffffffffffffffffff167f8be0079c531659141344cd1fd0a4f28419497f9722a3daafe3b4186f6b6457e060405160405180910390a35050565b600073ffffffffffffffffffffffffffffffffffffffff168273ffffffffffffffffffffffffffffffffffffffff160361277f5760006040517fced3e10000000000000000000000000000000000000000000000000000000000815260040161277691906141a7565b60405180910390fd5b80600160008573ffffffffffffffffffffffffffffffffffffffff1673ffffffffffffffffffffffffffffffffffffffff16815260200190815260200160002060008473ffffffffffffffffffffffffffffffffffffffff1673ffffffffffffffffffffffffffffffffffffffff16815260200190815260200160002060006101000a81548160ff0219169083151502179055508173ffffffffffffffffffffffffffffffffffffffff168373ffffffffffffffffffffffffffffffffffffffff167f17307eab39ab6107e8899845ad3d59bd9653f200f220920489ca2b5937696c31836040516128709190613834565b60405180910390a3505050565b6000612887611f85565b90508073ffffffffffffffffffffffffffffffffffffffff168673ffffffffffffffffffffffffffffffffffffffff16141580156128cc57506128ca8682611c74565b155b156129105780866040517fe237d92200000000000000000000000000000000000000000000000000000000815260040161290792919061465b565b60405180910390fd5b61291d8686868686612d1a565b505050505050565b600080600090507a184f03e93ff9f4daa797ed6e38ed64bf6a1f0100000000000000008310612983577a184f03e93ff9f4daa797ed6e38ed64bf6a1f010000000000000000838161297957612978614fad565b5b0492506040810190505b6d04ee2d6d415b85acef810000000083106129c0576d04ee2d6d415b85acef810000000083816129b6576129b5614fad565b5b0492506020810190505b662386f26fc1000083106129ef57662386f26fc1000083816129e5576129e4614fad565b5b0492506010810190505b6305f5e1008310612a18576305f5e1008381612a0e57612a0d614fad565b5b0492506008810190505b6127108310612a3d576127108381612a3357612a32614fad565b5b0492506004810190505b60648310612a605760648381612a5657612a55614fad565b5b0492506002810190505b600a8310612a6f576001810190505b80915050919050565b612a8485858585612e25565b600073ffffffffffffffffffffffffffffffffffffffff168473ffffffffffffffffffffffffffffffffffffffff1614612b23576000612ac2611f85565b90506001845103612b12576000612ae360008661263390919063ffffffff16565b90506000612afb60008661263390919063ffffffff16565b9050612b0b8389898585896131cd565b5050612b21565b612b20818787878787613381565b5b505b5050505050565b60008060006041845103612b6f5760008060006020870151925060408701519150606087015160001a9050612b6188828585613535565b955095509550505050612b7f565b60006002855160001b9250925092505b9250925092565b60006003811115612b9a57612b9961503f565b5b826003811115612bad57612bac61503f565b5b0315612ce65760016003811115612bc757612bc661503f565b5b826003811115612bda57612bd961503f565b5b03612c11576040517ff645eedf00000000000000000000000000000000000000000000000000000000815260040160405180910390fd5b60026003811115612c2557612c2461503f565b5b826003811115612c3857612c3761503f565b5b03612c7d578060001c6040517ffce698f7000000000000000000000000000000000000000000000000000000008152600401612c749190613720565b60405180910390fd5b600380811115612c9057612c8f61503f565b5b826003811115612ca357612ca261503f565b5b03612ce557806040517fd78bce0c000000000000000000000000000000000000000000000000000000008152600401612cdc9190615087565b60405180910390fd5b5b5050565b60608060405191506001825283602083015260408201905060018152826020820152604081016040529250929050565b600073ffffffffffffffffffffffffffffffffffffffff168473ffffffffffffffffffffffffffffffffffffffff1603612d8c5760006040517f57f447ce000000000000000000000000000000000000000000000000000000008152600401612d8391906141a7565b60405180910390fd5b600073ffffffffffffffffffffffffffffffffffffffff168573ffffffffffffffffffffffffffffffffffffffff1603612dfe5760006040517f01a83514000000000000000000000000000000000000000000000000000000008152600401612df591906141a7565b60405180910390fd5b600080612e0b8585612cea565b91509150612e1c8787848487612a78565b50505050505050565b8051825114612e6f57815181516040517f5b059991000000000000000000000000000000000000000000000000000000008152600401612e66929190614b21565b60405180910390fd5b6000612e79611f85565b905060005b8351811015613088576000612e9c828661263390919063ffffffff16565b90506000612eb3838661263390919063ffffffff16565b9050600073ffffffffffffffffffffffffffffffffffffffff168873ffffffffffffffffffffffffffffffffffffffff1614612fe057600080600084815260200190815260200160002060008a73ffffffffffffffffffffffffffffffffffffffff1673ffffffffffffffffffffffffffffffffffffffff16815260200190815260200160002054905081811015612f8857888183856040517f03dee4c5000000000000000000000000000000000000000000000000000000008152600401612f7f94939291906150a2565b60405180910390fd5b81810360008085815260200190815260200160002060008b73ffffffffffffffffffffffffffffffffffffffff1673ffffffffffffffffffffffffffffffffffffffff16815260200190815260200160002081905550505b600073ffffffffffffffffffffffffffffffffffffffff168773ffffffffffffffffffffffffffffffffffffffff161461307b578060008084815260200190815260200160002060008973ffffffffffffffffffffffffffffffffffffffff1673ffffffffffffffffffffffffffffffffffffffff168152602001908152602001600020600082825461307391906143c4565b925050819055505b5050806001019050612e7e565b5060018351036131475760006130a860008561263390919063ffffffff16565b905060006130c060008561263390919063ffffffff16565b90508573ffffffffffffffffffffffffffffffffffffffff168773ffffffffffffffffffffffffffffffffffffffff168473ffffffffffffffffffffffffffffffffffffffff167fc3d58168c5ae7397731d063d5bbf3d657854427343f4c083240f7aacaa2d0f628585604051613138929190614b21565b60405180910390a450506131c6565b8373ffffffffffffffffffffffffffffffffffffffff168573ffffffffffffffffffffffffffffffffffffffff168273ffffffffffffffffffffffffffffffffffffffff167f4a39dc06d4c0dbc64b70af90fd698a233a518aa5d07e595d983b8c0526c8f7fb86866040516131bd9291906150e7565b60405180910390a45b5050505050565b60008473ffffffffffffffffffffffffffffffffffffffff163b1115613379578373ffffffffffffffffffffffffffffffffffffffff1663f23a6e6187878686866040518663ffffffff1660e01b815260040161322e959493929190615173565b6020604051808303816000875af192505050801561326a57506040513d601f19601f8201168201806040525081019061326791906151e2565b60015b6132ee573d806000811461329a576040519150601f19603f3d011682016040523d82523d6000602084013e61329f565b606091505b5060008151036132e657846040517f57f447ce0000000000000000000000000000000000000000000000000000000081526004016132dd91906141a7565b60405180910390fd5b805181602001fd5b63f23a6e6160e01b7bffffffffffffffffffffffffffffffffffffffffffffffffffffffff1916817bffffffffffffffffffffffffffffffffffffffffffffffffffffffff19161461337757846040517f57f447ce00000000000000000000000000000000000000000000000000000000815260040161336e91906141a7565b60405180910390fd5b505b505050505050565b60008473ffffffffffffffffffffffffffffffffffffffff163b111561352d578373ffffffffffffffffffffffffffffffffffffffff1663bc197c8187878686866040518663ffffffff1660e01b81526004016133e295949392919061520f565b6020604051808303816000875af192505050801561341e57506040513d601f19601f8201168201806040525081019061341b91906151e2565b60015b6134a2573d806000811461344e576040519150601f19603f3d011682016040523d82523d6000602084013e613453565b606091505b50600081510361349a57846040517f57f447ce00000000000000000000000000000000000000000000000000000000815260040161349191906141a7565b60405180910390fd5b805181602001fd5b63bc197c8160e01b7bffffffffffffffffffffffffffffffffffffffffffffffffffffffff1916817bffffffffffffffffffffffffffffffffffffffffffffffffffffffff19161461352b57846040517f57f447ce00000000000000000000000000000000000000000000000000000000815260040161352291906141a7565b60405180910390fd5b505b505050505050565b60008060007f7fffffffffffffffffffffffffffffff5d576e7357a4501ddfe92f46681b20a08460001c111561357557600060038592509250925061361f565b60006001888888886040516000815260200160405260405161359a9493929190615293565b6020604051602081039080840390855afa1580156135bc573d6000803e3d6000fd5b505050602060405103519050600073ffffffffffffffffffffffffffffffffffffffff168173ffffffffffffffffffffffffffffffffffffffff160361361057600060016000801b9350935093505061361f565b8060008060001b935093509350505b9450945094915050565b6000604051905090565b600080fd5b600080fd5b600073ffffffffffffffffffffffffffffffffffffffff82169050919050565b60006136688261363d565b9050919050565b6136788161365d565b811461368357600080fd5b50565b6000813590506136958161366f565b92915050565b6000819050919050565b6136ae8161369b565b81146136b957600080fd5b50565b6000813590506136cb816136a5565b92915050565b600080604083850312156136e8576136e7613633565b5b60006136f685828601613686565b9250506020613707858286016136bc565b9150509250929050565b61371a8161369b565b82525050565b60006020820190506137356000830184613711565b92915050565b60008115159050919050565b6137508161373b565b811461375b57600080fd5b50565b60008135905061376d81613747565b92915050565b60006020828403121561378957613788613633565b5b60006137978482850161375e565b91505092915050565b60007fffffffff0000000000000000000000000000000000000000000000000000000082169050919050565b6137d5816137a0565b81146137e057600080fd5b50565b6000813590506137f2816137cc565b92915050565b60006020828403121561380e5761380d613633565b5b600061381c848285016137e3565b91505092915050565b61382e8161373b565b82525050565b60006020820190506138496000830184613825565b92915050565b60006020828403121561386557613864613633565b5b6000613873848285016136bc565b91505092915050565b600081519050919050565b600082825260208201905092915050565b60005b838110156138b657808201518184015260208101905061389b565b60008484015250505050565b6000601f19601f8301169050919050565b60006138de8261387c565b6138e88185613887565b93506138f8818560208601613898565b613901816138c2565b840191505092915050565b6000602082019050818103600083015261392681846138d3565b905092915050565b600081519050919050565b600082825260208201905092915050565b6000819050602082019050919050565b6139638161365d565b82525050565b6139728161369b565b82525050565b60408201600082015161398e600085018261395a565b5060208201516139a16020850182613969565b50505050565b60006139b38383613978565b60408301905092915050565b6000602082019050919050565b60006139d78261392e565b6139e18185613939565b93506139ec8361394a565b8060005b83811015613a1d578151613a0488826139a7565b9750613a0f836139bf565b9250506001810190506139f0565b5085935050505092915050565b60006020820190508181036000830152613a4481846139cc565b905092915050565b600080fd5b7f4e487b7100000000000000000000000000000000000000000000000000000000600052604160045260246000fd5b613a89826138c2565b810181811067ffffffffffffffff82111715613aa857613aa7613a51565b5b80604052505050565b6000613abb613629565b9050613ac78282613a80565b919050565b600067ffffffffffffffff821115613ae757613ae6613a51565b5b602082029050602081019050919050565b600080fd5b6000613b10613b0b84613acc565b613ab1565b90508083825260208201905060208402830185811115613b3357613b32613af8565b5b835b81811015613b5c5780613b4888826136bc565b845260208401935050602081019050613b35565b5050509392505050565b600082601f830112613b7b57613b7a613a4c565b5b8135613b8b848260208601613afd565b91505092915050565b600080fd5b600067ffffffffffffffff821115613bb457613bb3613a51565b5b613bbd826138c2565b9050602081019050919050565b82818337600083830152505050565b6000613bec613be784613b99565b613ab1565b905082815260208101848484011115613c0857613c07613b94565b5b613c13848285613bca565b509392505050565b600082601f830112613c3057613c2f613a4c565b5b8135613c40848260208601613bd9565b91505092915050565b600080600080600060a08688031215613c6557613c64613633565b5b6000613c7388828901613686565b9550506020613c8488828901613686565b945050604086013567ffffffffffffffff811115613ca557613ca4613638565b5b613cb188828901613b66565b935050606086013567ffffffffffffffff811115613cd257613cd1613638565b5b613cde88828901613b66565b925050608086013567ffffffffffffffff811115613cff57613cfe613638565b5b613d0b88828901613c1b565b9150509295509295909350565b600080fd5b60008083601f840112613d3357613d32613a4c565b5b8235905067ffffffffffffffff811115613d5057613d4f613d18565b5b602083019150836001820283011115613d6c57613d6b613af8565b5b9250929050565b600080600080600060808688031215613d8f57613d8e613633565b5b6000613d9d888289016136bc565b9550506020613dae888289016136bc565b9450506040613dbf888289016136bc565b935050606086013567ffffffffffffffff811115613de057613ddf613638565b5b613dec88828901613d1d565b92509250509295509295909350565b600067ffffffffffffffff821115613e1657613e15613a51565b5b602082029050602081019050919050565b6000613e3a613e3584613dfb565b613ab1565b90508083825260208201905060208402830185811115613e5d57613e5c613af8565b5b835b81811015613e865780613e728882613686565b845260208401935050602081019050613e5f565b5050509392505050565b600082601f830112613ea557613ea4613a4c565b5b8135613eb5848260208601613e27565b91505092915050565b60008060408385031215613ed557613ed4613633565b5b600083013567ffffffffffffffff811115613ef357613ef2613638565b5b613eff85828601613e90565b925050602083013567ffffffffffffffff811115613f2057613f1f613638565b5b613f2c85828601613b66565b9150509250929050565b600081519050919050565b600082825260208201905092915050565b6000819050602082019050919050565b6000613f6e8383613969565b60208301905092915050565b6000602082019050919050565b6000613f9282613f36565b613f9c8185613f41565b9350613fa783613f52565b8060005b83811015613fd8578151613fbf8882613f62565b9750613fca83613f7a565b925050600181019050613fab565b5085935050505092915050565b60006020820190508181036000830152613fff8184613f87565b905092915050565b6000819050919050565b600061402c6140276140228461363d565b614007565b61363d565b9050919050565b600061403e82614011565b9050919050565b600061405082614033565b9050919050565b61406081614045565b82525050565b600060208201905061407b6000830184614057565b92915050565b600067ffffffffffffffff82111561409c5761409b613a51565b5b6140a5826138c2565b9050602081019050919050565b60006140c56140c084614081565b613ab1565b9050828152602081018484840111156140e1576140e0613b94565b5b6140ec848285613bca565b509392505050565b600082601f83011261410957614108613a4c565b5b81356141198482602086016140b2565b91505092915050565b60006020828403121561413857614137613633565b5b600082013567ffffffffffffffff81111561415657614155613638565b5b614162848285016140f4565b91505092915050565b60006020828403121561418157614180613633565b5b600061418f84828501613686565b91505092915050565b6141a18161365d565b82525050565b60006020820190506141bc6000830184614198565b92915050565b600080604083850312156141d9576141d8613633565b5b60006141e785828601613686565b92505060206141f88582860161375e565b9150509250929050565b60008060006060848603121561421b5761421a613633565b5b600061422986828701613686565b935050602061423a868287016136bc565b925050604061424b8682870161375e565b9150509250925092565b6000806040838503121561426c5761426b613633565b5b600061427a858286016136bc565b925050602061428b858286016136bc565b9150509250929050565b60006040820190506142aa6000830185614198565b6142b76020830184613711565b9392505050565b600080604083850312156142d5576142d4613633565b5b60006142e385828601613686565b92505060206142f485828601613686565b9150509250929050565b600080600080600060a0868803121561431a57614319613633565b5b600061432888828901613686565b955050602061433988828901613686565b945050604061434a888289016136bc565b935050606061435b888289016136bc565b925050608086013567ffffffffffffffff81111561437c5761437b613638565b5b61438888828901613c1b565b9150509295509295909350565b7f4e487b7100000000000000000000000000000000000000000000000000000000600052601160045260246000fd5b60006143cf8261369b565b91506143da8361369b565b92508282019050808211156143f2576143f1614395565b5b92915050565b7f4578636565647320746f74616c20737570706c79000000000000000000000000600082015250565b600061442e601483613887565b9150614439826143f8565b602082019050919050565b6000602082019050818103600083015261445d81614421565b9050919050565b600061446f8261369b565b91507fffffffffffffffffffffffffffffffffffffffffffffffffffffffffffffffff82036144a1576144a0614395565b5b600182019050919050565b7f4e487b7100000000000000000000000000000000000000000000000000000000600052602260045260246000fd5b600060028204905060018216806144f357607f821691505b602082108103614506576145056144ac565b5b50919050565b600081905092915050565b60008190508160005260206000209050919050565b60008154614539816144db565b614543818661450c565b9450600182166000811461455e5760018114614573576145a6565b60ff19831686528115158202860193506145a6565b61457c85614517565b60005b8381101561459e5781548189015260018201915060208101905061457f565b838801955050505b50505092915050565b60006145ba8261387c565b6145c4818561450c565b93506145d4818560208601613898565b80840191505092915050565b7f2e6a736f6e000000000000000000000000000000000000000000000000000000600082015250565b600061461660058361450c565b9150614621826145e0565b600582019050919050565b6000614638828561452c565b915061464482846145af565b915061464f82614609565b91508190509392505050565b60006040820190506146706000830185614198565b61467d6020830184614198565b9392505050565b7f5175616e74697479206d7573742062652067726561746572207468616e207a6560008201527f726f000000000000000000000000000000000000000000000000000000000000602082015250565b60006146e0602283613887565b91506146eb82614684565b604082019050919050565b6000602082019050818103600083015261470f816146d3565b9050919050565b7f5553445420707572636861736573206172652064697361626c65640000000000600082015250565b600061474c601b83613887565b915061475782614716565b602082019050919050565b6000602082019050818103600083015261477b8161473f565b9050919050565b7f45786365656473206d6178696d756d20737570706c7900000000000000000000600082015250565b60006147b8601683613887565b91506147c382614782565b602082019050919050565b600060208201905081810360008301526147e7816147ab565b9050919050565b7f436f6d6d756e697479206e6f7420796574207075626c69736865640000000000600082015250565b6000614824601b83613887565b915061482f826147ee565b602082019050919050565b6000602082019050818103600083015261485381614817565b9050919050565b60008160601b9050919050565b60006148728261485a565b9050919050565b600061488482614867565b9050919050565b61489c6148978261365d565b614879565b82525050565b6000819050919050565b6148bd6148b88261369b565b6148a2565b82525050565b60006148cf828861488b565b6014820191506148df82876148ac565b6020820191506148ef82866148ac565b6020820191506148ff82856148ac565b60208201915061490f828461488b565b6014820191508190509695505050505050565b7f496e76616c6964207369676e6174757265000000000000000000000000000000600082015250565b6000614958601183613887565b915061496382614922565b602082019050919050565b600060208201905081810360008301526149878161494b565b9050919050565b7f496e76616c6964206e6f6e636500000000000000000000000000000000000000600082015250565b60006149c4600d83613887565b91506149cf8261498e565b602082019050919050565b600060208201905081810360008301526149f3816149b7565b9050919050565b6000614a058261369b565b9150614a108361369b565b9250828202614a1e8161369b565b91508282048414831517614a3557614a34614395565b5b5092915050565b6000606082019050614a516000830186614198565b614a5e6020830185614198565b614a6b6040830184613711565b949350505050565b600081519050614a8281613747565b92915050565b600060208284031215614a9e57614a9d613633565b5b6000614aac84828501614a73565b91505092915050565b7f55534454207472616e73666572206661696c6564000000000000000000000000600082015250565b6000614aeb601483613887565b9150614af682614ab5565b602082019050919050565b60006020820190508181036000830152614b1a81614ade565b9050919050565b6000604082019050614b366000830185613711565b614b436020830184613711565b9392505050565b7f4e487b7100000000000000000000000000000000000000000000000000000000600052603260045260246000fd5b60006020601f8301049050919050565b600082821b905092915050565b600060088302614bc67fffffffffffffffffffffffffffffffffffffffffffffffffffffffffffffffff82614b89565b614bd08683614b89565b95508019841693508086168417925050509392505050565b6000614c03614bfe614bf98461369b565b614007565b61369b565b9050919050565b6000819050919050565b614c1d83614be8565b614c31614c2982614c0a565b848454614b96565b825550505050565b600090565b614c46614c39565b614c51818484614c14565b505050565b5b81811015614c7557614c6a600082614c3e565b600181019050614c57565b5050565b601f821115614cba57614c8b81614517565b614c9484614b79565b81016020851015614ca3578190505b614cb7614caf85614b79565b830182614c56565b50505b505050565b600082821c905092915050565b6000614cdd60001984600802614cbf565b1980831691505092915050565b6000614cf68383614ccc565b9150826002028217905092915050565b614d0f8261387c565b67ffffffffffffffff811115614d2857614d27613a51565b5b614d3282546144db565b614d3d828285614c79565b600060209050601f831160018114614d705760008415614d5e578287015190505b614d688582614cea565b865550614dd0565b601f198416614d7e86614517565b60005b82811015614da657848901518255600182019150602085019450602081019050614d81565b86831015614dc35784890151614dbf601f891682614ccc565b8355505b6001600288020188555050505b505050505050565b600081519050614de7816136a5565b92915050565b600060208284031215614e0357614e02613633565b5b6000614e1184828501614dd8565b91505092915050565b7f496e73756666696369656e742062616c616e636520666f72207769746864726160008201527f77616c0000000000000000000000000000000000000000000000000000000000602082015250565b6000614e76602383613887565b9150614e8182614e1a565b604082019050919050565b60006020820190508181036000830152614ea581614e69565b9050919050565b7f5769746864726177616c206661696c6564000000000000000000000000000000600082015250565b6000614ee2601183613887565b9150614eed82614eac565b602082019050919050565b60006020820190508181036000830152614f1181614ed5565b9050919050565b6000604082019050614f2d6000830185613711565b614f3a6020830184613825565b9392505050565b7f4552433230207472616e73666572206661696c65640000000000000000000000600082015250565b6000614f77601583613887565b9150614f8282614f41565b602082019050919050565b60006020820190508181036000830152614fa681614f6a565b9050919050565b7f4e487b7100000000000000000000000000000000000000000000000000000000600052601260045260246000fd5b6000614fe78261369b565b9150614ff28361369b565b925082820390508181111561500a57615009614395565b5b92915050565b7f4e487b7100000000000000000000000000000000000000000000000000000000600052603160045260246000fd5b7f4e487b7100000000000000000000000000000000000000000000000000000000600052602160045260246000fd5b6000819050919050565b6150818161506e565b82525050565b600060208201905061509c6000830184615078565b92915050565b60006080820190506150b76000830187614198565b6150c46020830186613711565b6150d16040830185613711565b6150de6060830184613711565b95945050505050565b600060408201905081810360008301526151018185613f87565b905081810360208301526151158184613f87565b90509392505050565b600081519050919050565b600082825260208201905092915050565b60006151458261511e565b61514f8185615129565b935061515f818560208601613898565b615168816138c2565b840191505092915050565b600060a0820190506151886000830188614198565b6151956020830187614198565b6151a26040830186613711565b6151af6060830185613711565b81810360808301526151c1818461513a565b90509695505050505050565b6000815190506151dc816137cc565b92915050565b6000602082840312156151f8576151f7613633565b5b6000615206848285016151cd565b91505092915050565b600060a0820190506152246000830188614198565b6152316020830187614198565b81810360408301526152438186613f87565b905081810360608301526152578185613f87565b9050818103608083015261526b818461513a565b90509695505050505050565b600060ff82169050919050565b61528d81615277565b82525050565b60006080820190506152a86000830187615078565b6152b56020830186615284565b6152c26040830185615078565b6152cf6060830184615078565b9594505050505056fea26469706673582212203c9f4374e9bcb15944a8f5c426990071a0e25e79ff8f36c42a2c8bac66f2cf7464736f6c634300081b0033",
  "linkReferences": {},
  "deployedLinkReferences": {}
}